{
	"remix/010/if-Else.sol": {
		"IfElse": {
			"abi": [
				{
					"inputs": [],
					"name": "doWhileTest",
					"outputs": [
						{
							"internalType": "uint256",
							"name": "",
							"type": "uint256"
						}
					],
					"stateMutability": "pure",
					"type": "function"
				},
				{
					"inputs": [],
					"name": "forLoopTest",
					"outputs": [
						{
							"internalType": "uint256",
							"name": "",
							"type": "uint256"
						}
					],
					"stateMutability": "pure",
					"type": "function"
				},
				{
					"inputs": [
						{
							"internalType": "uint256",
							"name": "_number",
							"type": "uint256"
						}
					],
					"name": "ifElseTest",
					"outputs": [
						{
							"internalType": "bool",
							"name": "",
							"type": "bool"
						}
					],
					"stateMutability": "pure",
					"type": "function"
				},
				{
					"inputs": [
						{
							"internalType": "uint256[]",
							"name": "a",
							"type": "uint256[]"
						}
					],
					"name": "insertionSort",
					"outputs": [
						{
							"internalType": "uint256[]",
							"name": "",
							"type": "uint256[]"
						}
					],
					"stateMutability": "pure",
					"type": "function"
				},
				{
					"inputs": [],
					"name": "whileTest",
					"outputs": [
						{
							"internalType": "uint256",
							"name": "",
							"type": "uint256"
						}
					],
					"stateMutability": "pure",
					"type": "function"
				}
			],
			"devdoc": {
				"kind": "dev",
				"methods": {},
				"version": 1
			},
			"evm": {
				"assembly": "    /* \"remix/010/if-Else.sol\":27:1267  contract IfElse{\r... */\n  mstore(0x40, 0x80)\n  callvalue\n  dup1\n  iszero\n  tag_1\n  jumpi\n  0x00\n  dup1\n  revert\ntag_1:\n  pop\n  dataSize(sub_0)\n  dup1\n  dataOffset(sub_0)\n  0x00\n  codecopy\n  0x00\n  return\nstop\n\nsub_0: assembly {\n        /* \"remix/010/if-Else.sol\":27:1267  contract IfElse{\r... */\n      mstore(0x40, 0x80)\n      callvalue\n      dup1\n      iszero\n      tag_1\n      jumpi\n      0x00\n      dup1\n      revert\n    tag_1:\n      pop\n      jumpi(tag_2, lt(calldatasize, 0x04))\n      shr(0xe0, calldataload(0x00))\n      dup1\n      0x2bbacaaa\n      eq\n      tag_3\n      jumpi\n      dup1\n      0x5d14639d\n      eq\n      tag_4\n      jumpi\n      dup1\n      0x6297206f\n      eq\n      tag_5\n      jumpi\n      dup1\n      0x7141fb00\n      eq\n      tag_6\n      jumpi\n      dup1\n      0xb0cfa9fc\n      eq\n      tag_7\n      jumpi\n    tag_2:\n      0x00\n      dup1\n      revert\n        /* \"remix/010/if-Else.sol\":617:813  function doWhileTest() public pure returns(uint256){\r... */\n    tag_3:\n      tag_8\n      tag_9\n      jump\t// in\n    tag_8:\n      mload(0x40)\n      tag_10\n      swap2\n      swap1\n      tag_11\n      jump\t// in\n    tag_10:\n      mload(0x40)\n      dup1\n      swap2\n      sub\n      swap1\n      return\n        /* \"remix/010/if-Else.sol\":414:611  function whileTest() public pure returns(uint256){\r... */\n    tag_4:\n      tag_12\n      tag_13\n      jump\t// in\n    tag_12:\n      mload(0x40)\n      tag_14\n      swap2\n      swap1\n      tag_11\n      jump\t// in\n    tag_14:\n      mload(0x40)\n      dup1\n      swap2\n      sub\n      swap1\n      return\n        /* \"remix/010/if-Else.sol\":850:1262  function insertionSort(uint[] memory a) public pure returns(uint[] memory) {\r... */\n    tag_5:\n      tag_15\n      0x04\n      dup1\n      calldatasize\n      sub\n      dup2\n      add\n      swap1\n      tag_16\n      swap2\n      swap1\n      tag_17\n      jump\t// in\n    tag_16:\n      tag_18\n      jump\t// in\n    tag_15:\n      mload(0x40)\n      tag_19\n      swap2\n      swap1\n      tag_20\n      jump\t// in\n    tag_19:\n      mload(0x40)\n      dup1\n      swap2\n      sub\n      swap1\n      return\n        /* \"remix/010/if-Else.sol\":49:228  function ifElseTest(uint256 _number) public pure returns(bool){\r... */\n    tag_6:\n      tag_21\n      0x04\n      dup1\n      calldatasize\n      sub\n      dup2\n      add\n      swap1\n      tag_22\n      swap2\n      swap1\n      tag_23\n      jump\t// in\n    tag_22:\n      tag_24\n      jump\t// in\n    tag_21:\n      mload(0x40)\n      tag_25\n      swap2\n      swap1\n      tag_26\n      jump\t// in\n    tag_25:\n      mload(0x40)\n      dup1\n      swap2\n      sub\n      swap1\n      return\n        /* \"remix/010/if-Else.sol\":236:408  function forLoopTest() public pure returns(uint256){\r... */\n    tag_7:\n      tag_27\n      tag_28\n      jump\t// in\n    tag_27:\n      mload(0x40)\n      tag_29\n      swap2\n      swap1\n      tag_11\n      jump\t// in\n    tag_29:\n      mload(0x40)\n      dup1\n      swap2\n      sub\n      swap1\n      return\n        /* \"remix/010/if-Else.sol\":617:813  function doWhileTest() public pure returns(uint256){\r... */\n    tag_9:\n        /* \"remix/010/if-Else.sol\":660:667  uint256 */\n      0x00\n        /* \"remix/010/if-Else.sol\":679:687  uint sum */\n      dup1\n        /* \"remix/010/if-Else.sol\":690:691  0 */\n      0x00\n        /* \"remix/010/if-Else.sol\":679:691  uint sum = 0 */\n      swap1\n      pop\n        /* \"remix/010/if-Else.sol\":702:708  uint i */\n      0x00\n        /* \"remix/010/if-Else.sol\":723:784  do{\r... */\n    tag_31:\n        /* \"remix/010/if-Else.sol\":743:744  i */\n      dup1\n        /* \"remix/010/if-Else.sol\":736:744  sum += i */\n      dup3\n      tag_34\n      swap2\n      swap1\n      tag_35\n      jump\t// in\n    tag_34:\n      swap2\n      pop\n        /* \"remix/010/if-Else.sol\":755:758  i++ */\n      dup1\n      dup1\n      tag_36\n      swap1\n      tag_37\n      jump\t// in\n    tag_36:\n      swap2\n      pop\n      pop\n        /* \"remix/010/if-Else.sol\":780:782  10 */\n      0x0a\n        /* \"remix/010/if-Else.sol\":776:777  i */\n      dup2\n        /* \"remix/010/if-Else.sol\":776:782  i < 10 */\n      lt\n        /* \"remix/010/if-Else.sol\":723:784  do{\r... */\n      tag_31\n      jumpi\n        /* \"remix/010/if-Else.sol\":801:804  sum */\n      dup2\n        /* \"remix/010/if-Else.sol\":794:805  return(sum) */\n      swap3\n      pop\n      pop\n      pop\n        /* \"remix/010/if-Else.sol\":617:813  function doWhileTest() public pure returns(uint256){\r... */\n      swap1\n      jump\t// out\n        /* \"remix/010/if-Else.sol\":414:611  function whileTest() public pure returns(uint256){\r... */\n    tag_13:\n        /* \"remix/010/if-Else.sol\":455:462  uint256 */\n      0x00\n        /* \"remix/010/if-Else.sol\":474:482  uint sum */\n      dup1\n        /* \"remix/010/if-Else.sol\":485:486  0 */\n      0x00\n        /* \"remix/010/if-Else.sol\":474:486  uint sum = 0 */\n      swap1\n      pop\n        /* \"remix/010/if-Else.sol\":497:503  uint i */\n      0x00\n        /* \"remix/010/if-Else.sol\":518:582  while(i < 10){\r... */\n    tag_39:\n        /* \"remix/010/if-Else.sol\":528:530  10 */\n      0x0a\n        /* \"remix/010/if-Else.sol\":524:525  i */\n      dup2\n        /* \"remix/010/if-Else.sol\":524:530  i < 10 */\n      lt\n        /* \"remix/010/if-Else.sol\":518:582  while(i < 10){\r... */\n      iszero\n      tag_40\n      jumpi\n        /* \"remix/010/if-Else.sol\":551:552  i */\n      dup1\n        /* \"remix/010/if-Else.sol\":546:552  sum+=i */\n      dup3\n      tag_41\n      swap2\n      swap1\n      tag_35\n      jump\t// in\n    tag_41:\n      swap2\n      pop\n        /* \"remix/010/if-Else.sol\":567:570  i++ */\n      dup1\n      dup1\n      tag_42\n      swap1\n      tag_37\n      jump\t// in\n    tag_42:\n      swap2\n      pop\n      pop\n        /* \"remix/010/if-Else.sol\":518:582  while(i < 10){\r... */\n      jump(tag_39)\n    tag_40:\n        /* \"remix/010/if-Else.sol\":599:602  sum */\n      dup2\n        /* \"remix/010/if-Else.sol\":592:603  return(sum) */\n      swap3\n      pop\n      pop\n      pop\n        /* \"remix/010/if-Else.sol\":414:611  function whileTest() public pure returns(uint256){\r... */\n      swap1\n      jump\t// out\n        /* \"remix/010/if-Else.sol\":850:1262  function insertionSort(uint[] memory a) public pure returns(uint[] memory) {\r... */\n    tag_18:\n        /* \"remix/010/if-Else.sol\":910:923  uint[] memory */\n      0x60\n        /* \"remix/010/if-Else.sol\":996:1002  uint i */\n      0x00\n        /* \"remix/010/if-Else.sol\":1005:1006  1 */\n      0x01\n        /* \"remix/010/if-Else.sol\":996:1006  uint i = 1 */\n      swap1\n      pop\n        /* \"remix/010/if-Else.sol\":991:1235  for (uint i = 1;i < a.length;i++){\r... */\n    tag_44:\n        /* \"remix/010/if-Else.sol\":1011:1012  a */\n      dup3\n        /* \"remix/010/if-Else.sol\":1011:1019  a.length */\n      mload\n        /* \"remix/010/if-Else.sol\":1007:1008  i */\n      dup2\n        /* \"remix/010/if-Else.sol\":1007:1019  i < a.length */\n      lt\n        /* \"remix/010/if-Else.sol\":991:1235  for (uint i = 1;i < a.length;i++){\r... */\n      iszero\n      tag_45\n      jumpi\n        /* \"remix/010/if-Else.sol\":1039:1048  uint temp */\n      0x00\n        /* \"remix/010/if-Else.sol\":1051:1052  a */\n      dup4\n        /* \"remix/010/if-Else.sol\":1053:1054  i */\n      dup3\n        /* \"remix/010/if-Else.sol\":1051:1055  a[i] */\n      dup2\n      mload\n      dup2\n      lt\n      tag_47\n      jumpi\n      tag_48\n      tag_49\n      jump\t// in\n    tag_48:\n    tag_47:\n      0x20\n      mul\n      0x20\n      add\n      add\n      mload\n        /* \"remix/010/if-Else.sol\":1039:1055  uint temp = a[i] */\n      swap1\n      pop\n        /* \"remix/010/if-Else.sol\":1070:1076  uint j */\n      0x00\n        /* \"remix/010/if-Else.sol\":1077:1078  i */\n      dup3\n        /* \"remix/010/if-Else.sol\":1070:1078  uint j=i */\n      swap1\n      pop\n        /* \"remix/010/if-Else.sol\":1093:1198  while( (j >= 1) && (temp < a[j-1])){\r... */\n    tag_50:\n        /* \"remix/010/if-Else.sol\":1106:1107  1 */\n      0x01\n        /* \"remix/010/if-Else.sol\":1101:1102  j */\n      dup2\n        /* \"remix/010/if-Else.sol\":1101:1107  j >= 1 */\n      lt\n      iszero\n        /* \"remix/010/if-Else.sol\":1100:1127  (j >= 1) && (temp < a[j-1]) */\n      dup1\n      iszero\n      tag_52\n      jumpi\n      pop\n        /* \"remix/010/if-Else.sol\":1120:1121  a */\n      dup5\n        /* \"remix/010/if-Else.sol\":1124:1125  1 */\n      0x01\n        /* \"remix/010/if-Else.sol\":1122:1123  j */\n      dup3\n        /* \"remix/010/if-Else.sol\":1122:1125  j-1 */\n      tag_53\n      swap2\n      swap1\n      tag_54\n      jump\t// in\n    tag_53:\n        /* \"remix/010/if-Else.sol\":1120:1126  a[j-1] */\n      dup2\n      mload\n      dup2\n      lt\n      tag_55\n      jumpi\n      tag_56\n      tag_49\n      jump\t// in\n    tag_56:\n    tag_55:\n      0x20\n      mul\n      0x20\n      add\n      add\n      mload\n        /* \"remix/010/if-Else.sol\":1113:1117  temp */\n      dup3\n        /* \"remix/010/if-Else.sol\":1113:1126  temp < a[j-1] */\n      lt\n        /* \"remix/010/if-Else.sol\":1100:1127  (j >= 1) && (temp < a[j-1]) */\n    tag_52:\n        /* \"remix/010/if-Else.sol\":1093:1198  while( (j >= 1) && (temp < a[j-1])){\r... */\n      iszero\n      tag_51\n      jumpi\n        /* \"remix/010/if-Else.sol\":1154:1155  a */\n      dup5\n        /* \"remix/010/if-Else.sol\":1158:1159  1 */\n      0x01\n        /* \"remix/010/if-Else.sol\":1156:1157  j */\n      dup3\n        /* \"remix/010/if-Else.sol\":1156:1159  j-1 */\n      tag_57\n      swap2\n      swap1\n      tag_54\n      jump\t// in\n    tag_57:\n        /* \"remix/010/if-Else.sol\":1154:1160  a[j-1] */\n      dup2\n      mload\n      dup2\n      lt\n      tag_58\n      jumpi\n      tag_59\n      tag_49\n      jump\t// in\n    tag_59:\n    tag_58:\n      0x20\n      mul\n      0x20\n      add\n      add\n      mload\n        /* \"remix/010/if-Else.sol\":1147:1148  a */\n      dup6\n        /* \"remix/010/if-Else.sol\":1149:1150  j */\n      dup3\n        /* \"remix/010/if-Else.sol\":1147:1151  a[j] */\n      dup2\n      mload\n      dup2\n      lt\n      tag_60\n      jumpi\n      tag_61\n      tag_49\n      jump\t// in\n    tag_61:\n    tag_60:\n      0x20\n      mul\n      0x20\n      add\n      add\n        /* \"remix/010/if-Else.sol\":1147:1160  a[j] = a[j-1] */\n      dup2\n      dup2\n      mstore\n      pop\n      pop\n        /* \"remix/010/if-Else.sol\":1179:1182  j-- */\n      dup1\n      dup1\n      tag_62\n      swap1\n      tag_63\n      jump\t// in\n    tag_62:\n      swap2\n      pop\n      pop\n        /* \"remix/010/if-Else.sol\":1093:1198  while( (j >= 1) && (temp < a[j-1])){\r... */\n      jump(tag_50)\n    tag_51:\n        /* \"remix/010/if-Else.sol\":1219:1223  temp */\n      dup2\n        /* \"remix/010/if-Else.sol\":1212:1213  a */\n      dup6\n        /* \"remix/010/if-Else.sol\":1214:1215  j */\n      dup3\n        /* \"remix/010/if-Else.sol\":1212:1216  a[j] */\n      dup2\n      mload\n      dup2\n      lt\n      tag_64\n      jumpi\n      tag_65\n      tag_49\n      jump\t// in\n    tag_65:\n    tag_64:\n      0x20\n      mul\n      0x20\n      add\n      add\n        /* \"remix/010/if-Else.sol\":1212:1223  a[j] = temp */\n      dup2\n      dup2\n      mstore\n      pop\n      pop\n        /* \"remix/010/if-Else.sol\":1024:1235  {\r... */\n      pop\n      pop\n        /* \"remix/010/if-Else.sol\":1020:1023  i++ */\n      dup1\n      dup1\n      tag_66\n      swap1\n      tag_37\n      jump\t// in\n    tag_66:\n      swap2\n      pop\n      pop\n        /* \"remix/010/if-Else.sol\":991:1235  for (uint i = 1;i < a.length;i++){\r... */\n      jump(tag_44)\n    tag_45:\n      pop\n        /* \"remix/010/if-Else.sol\":1252:1253  a */\n      dup2\n        /* \"remix/010/if-Else.sol\":1245:1254  return(a) */\n      swap1\n      pop\n        /* \"remix/010/if-Else.sol\":850:1262  function insertionSort(uint[] memory a) public pure returns(uint[] memory) {\r... */\n      swap2\n      swap1\n      pop\n      jump\t// out\n        /* \"remix/010/if-Else.sol\":49:228  function ifElseTest(uint256 _number) public pure returns(bool){\r... */\n    tag_24:\n        /* \"remix/010/if-Else.sol\":106:110  bool */\n      0x00\n        /* \"remix/010/if-Else.sol\":136:137  0 */\n      dup1\n        /* \"remix/010/if-Else.sol\":125:132  _number */\n      dup3\n        /* \"remix/010/if-Else.sol\":125:137  _number == 0 */\n      eq\n        /* \"remix/010/if-Else.sol\":122:221  if(_number == 0){\r... */\n      iszero\n      tag_68\n      jumpi\n        /* \"remix/010/if-Else.sol\":160:164  true */\n      0x01\n        /* \"remix/010/if-Else.sol\":153:165  return(true) */\n      swap1\n      pop\n      jump(tag_67)\n        /* \"remix/010/if-Else.sol\":122:221  if(_number == 0){\r... */\n    tag_68:\n        /* \"remix/010/if-Else.sol\":203:208  false */\n      0x00\n        /* \"remix/010/if-Else.sol\":196:209  return(false) */\n      swap1\n      pop\n        /* \"remix/010/if-Else.sol\":49:228  function ifElseTest(uint256 _number) public pure returns(bool){\r... */\n    tag_67:\n      swap2\n      swap1\n      pop\n      jump\t// out\n        /* \"remix/010/if-Else.sol\":236:408  function forLoopTest() public pure returns(uint256){\r... */\n    tag_28:\n        /* \"remix/010/if-Else.sol\":279:286  uint256 */\n      0x00\n        /* \"remix/010/if-Else.sol\":298:306  uint sum */\n      dup1\n        /* \"remix/010/if-Else.sol\":310:311  0 */\n      0x00\n        /* \"remix/010/if-Else.sol\":298:311  uint sum  = 0 */\n      swap1\n      pop\n        /* \"remix/010/if-Else.sol\":326:332  uint i */\n      0x00\n        /* \"remix/010/if-Else.sol\":322:379  for(uint i = 0;i<10;i++){\r... */\n    tag_71:\n        /* \"remix/010/if-Else.sol\":339:341  10 */\n      0x0a\n        /* \"remix/010/if-Else.sol\":337:338  i */\n      dup2\n        /* \"remix/010/if-Else.sol\":337:341  i<10 */\n      lt\n        /* \"remix/010/if-Else.sol\":322:379  for(uint i = 0;i<10;i++){\r... */\n      iszero\n      tag_72\n      jumpi\n        /* \"remix/010/if-Else.sol\":366:367  i */\n      dup1\n        /* \"remix/010/if-Else.sol\":361:367  sum+=i */\n      dup3\n      tag_74\n      swap2\n      swap1\n      tag_35\n      jump\t// in\n    tag_74:\n      swap2\n      pop\n        /* \"remix/010/if-Else.sol\":342:345  i++ */\n      dup1\n      dup1\n      tag_75\n      swap1\n      tag_37\n      jump\t// in\n    tag_75:\n      swap2\n      pop\n      pop\n        /* \"remix/010/if-Else.sol\":322:379  for(uint i = 0;i<10;i++){\r... */\n      jump(tag_71)\n    tag_72:\n      pop\n        /* \"remix/010/if-Else.sol\":396:399  sum */\n      dup1\n        /* \"remix/010/if-Else.sol\":389:400  return(sum) */\n      swap2\n      pop\n      pop\n        /* \"remix/010/if-Else.sol\":236:408  function forLoopTest() public pure returns(uint256){\r... */\n      swap1\n      jump\t// out\n        /* \"#utility.yul\":24:746   */\n    tag_77:\n        /* \"#utility.yul\":120:125   */\n      0x00\n        /* \"#utility.yul\":145:226   */\n      tag_79\n        /* \"#utility.yul\":161:225   */\n      tag_80\n        /* \"#utility.yul\":218:224   */\n      dup5\n        /* \"#utility.yul\":161:225   */\n      tag_81\n      jump\t// in\n    tag_80:\n        /* \"#utility.yul\":145:226   */\n      tag_82\n      jump\t// in\n    tag_79:\n        /* \"#utility.yul\":136:226   */\n      swap1\n      pop\n        /* \"#utility.yul\":246:251   */\n      dup1\n        /* \"#utility.yul\":275:281   */\n      dup4\n        /* \"#utility.yul\":268:273   */\n      dup3\n        /* \"#utility.yul\":261:282   */\n      mstore\n        /* \"#utility.yul\":309:313   */\n      0x20\n        /* \"#utility.yul\":302:307   */\n      dup3\n        /* \"#utility.yul\":298:314   */\n      add\n        /* \"#utility.yul\":291:314   */\n      swap1\n      pop\n        /* \"#utility.yul\":335:341   */\n      dup3\n        /* \"#utility.yul\":385:388   */\n      dup6\n        /* \"#utility.yul\":377:381   */\n      0x20\n        /* \"#utility.yul\":369:375   */\n      dup7\n        /* \"#utility.yul\":365:382   */\n      mul\n        /* \"#utility.yul\":360:363   */\n      dup3\n        /* \"#utility.yul\":356:383   */\n      add\n        /* \"#utility.yul\":353:389   */\n      gt\n        /* \"#utility.yul\":350:493   */\n      iszero\n      tag_83\n      jumpi\n        /* \"#utility.yul\":404:483   */\n      tag_84\n      tag_85\n      jump\t// in\n    tag_84:\n        /* \"#utility.yul\":350:493   */\n    tag_83:\n        /* \"#utility.yul\":517:518   */\n      0x00\n        /* \"#utility.yul\":502:740   */\n    tag_86:\n        /* \"#utility.yul\":527:533   */\n      dup6\n        /* \"#utility.yul\":524:525   */\n      dup2\n        /* \"#utility.yul\":521:534   */\n      lt\n        /* \"#utility.yul\":502:740   */\n      iszero\n      tag_88\n      jumpi\n        /* \"#utility.yul\":595:598   */\n      dup2\n        /* \"#utility.yul\":624:661   */\n      tag_89\n        /* \"#utility.yul\":657:660   */\n      dup9\n        /* \"#utility.yul\":645:655   */\n      dup3\n        /* \"#utility.yul\":624:661   */\n      tag_90\n      jump\t// in\n    tag_89:\n        /* \"#utility.yul\":619:622   */\n      dup5\n        /* \"#utility.yul\":612:662   */\n      mstore\n        /* \"#utility.yul\":691:695   */\n      0x20\n        /* \"#utility.yul\":686:689   */\n      dup5\n        /* \"#utility.yul\":682:696   */\n      add\n        /* \"#utility.yul\":675:696   */\n      swap4\n      pop\n        /* \"#utility.yul\":725:729   */\n      0x20\n        /* \"#utility.yul\":720:723   */\n      dup4\n        /* \"#utility.yul\":716:730   */\n      add\n        /* \"#utility.yul\":709:730   */\n      swap3\n      pop\n        /* \"#utility.yul\":562:740   */\n      pop\n        /* \"#utility.yul\":549:550   */\n      0x01\n        /* \"#utility.yul\":546:547   */\n      dup2\n        /* \"#utility.yul\":542:551   */\n      add\n        /* \"#utility.yul\":537:551   */\n      swap1\n      pop\n        /* \"#utility.yul\":502:740   */\n      jump(tag_86)\n    tag_88:\n        /* \"#utility.yul\":506:520   */\n      pop\n        /* \"#utility.yul\":126:746   */\n      pop\n      pop\n        /* \"#utility.yul\":24:746   */\n      swap4\n      swap3\n      pop\n      pop\n      pop\n      jump\t// out\n        /* \"#utility.yul\":769:1139   */\n    tag_91:\n        /* \"#utility.yul\":840:845   */\n      0x00\n        /* \"#utility.yul\":889:892   */\n      dup3\n        /* \"#utility.yul\":882:886   */\n      0x1f\n        /* \"#utility.yul\":874:880   */\n      dup4\n        /* \"#utility.yul\":870:887   */\n      add\n        /* \"#utility.yul\":866:893   */\n      slt\n        /* \"#utility.yul\":856:978   */\n      tag_93\n      jumpi\n        /* \"#utility.yul\":897:976   */\n      tag_94\n      tag_95\n      jump\t// in\n    tag_94:\n        /* \"#utility.yul\":856:978   */\n    tag_93:\n        /* \"#utility.yul\":1014:1020   */\n      dup2\n        /* \"#utility.yul\":1001:1021   */\n      calldataload\n        /* \"#utility.yul\":1039:1133   */\n      tag_96\n        /* \"#utility.yul\":1129:1132   */\n      dup5\n        /* \"#utility.yul\":1121:1127   */\n      dup3\n        /* \"#utility.yul\":1114:1118   */\n      0x20\n        /* \"#utility.yul\":1106:1112   */\n      dup7\n        /* \"#utility.yul\":1102:1119   */\n      add\n        /* \"#utility.yul\":1039:1133   */\n      tag_77\n      jump\t// in\n    tag_96:\n        /* \"#utility.yul\":1030:1133   */\n      swap2\n      pop\n        /* \"#utility.yul\":846:1139   */\n      pop\n        /* \"#utility.yul\":769:1139   */\n      swap3\n      swap2\n      pop\n      pop\n      jump\t// out\n        /* \"#utility.yul\":1145:1284   */\n    tag_90:\n        /* \"#utility.yul\":1191:1196   */\n      0x00\n        /* \"#utility.yul\":1229:1235   */\n      dup2\n        /* \"#utility.yul\":1216:1236   */\n      calldataload\n        /* \"#utility.yul\":1207:1236   */\n      swap1\n      pop\n        /* \"#utility.yul\":1245:1278   */\n      tag_98\n        /* \"#utility.yul\":1272:1277   */\n      dup2\n        /* \"#utility.yul\":1245:1278   */\n      tag_99\n      jump\t// in\n    tag_98:\n        /* \"#utility.yul\":1145:1284   */\n      swap3\n      swap2\n      pop\n      pop\n      jump\t// out\n        /* \"#utility.yul\":1290:1829   */\n    tag_17:\n        /* \"#utility.yul\":1374:1380   */\n      0x00\n        /* \"#utility.yul\":1423:1425   */\n      0x20\n        /* \"#utility.yul\":1411:1420   */\n      dup3\n        /* \"#utility.yul\":1402:1409   */\n      dup5\n        /* \"#utility.yul\":1398:1421   */\n      sub\n        /* \"#utility.yul\":1394:1426   */\n      slt\n        /* \"#utility.yul\":1391:1510   */\n      iszero\n      tag_101\n      jumpi\n        /* \"#utility.yul\":1429:1508   */\n      tag_102\n      tag_103\n      jump\t// in\n    tag_102:\n        /* \"#utility.yul\":1391:1510   */\n    tag_101:\n        /* \"#utility.yul\":1577:1578   */\n      0x00\n        /* \"#utility.yul\":1566:1575   */\n      dup3\n        /* \"#utility.yul\":1562:1579   */\n      add\n        /* \"#utility.yul\":1549:1580   */\n      calldataload\n        /* \"#utility.yul\":1607:1625   */\n      0xffffffffffffffff\n        /* \"#utility.yul\":1599:1605   */\n      dup2\n        /* \"#utility.yul\":1596:1626   */\n      gt\n        /* \"#utility.yul\":1593:1710   */\n      iszero\n      tag_104\n      jumpi\n        /* \"#utility.yul\":1629:1708   */\n      tag_105\n      tag_106\n      jump\t// in\n    tag_105:\n        /* \"#utility.yul\":1593:1710   */\n    tag_104:\n        /* \"#utility.yul\":1734:1812   */\n      tag_107\n        /* \"#utility.yul\":1804:1811   */\n      dup5\n        /* \"#utility.yul\":1795:1801   */\n      dup3\n        /* \"#utility.yul\":1784:1793   */\n      dup6\n        /* \"#utility.yul\":1780:1802   */\n      add\n        /* \"#utility.yul\":1734:1812   */\n      tag_91\n      jump\t// in\n    tag_107:\n        /* \"#utility.yul\":1724:1812   */\n      swap2\n      pop\n        /* \"#utility.yul\":1520:1822   */\n      pop\n        /* \"#utility.yul\":1290:1829   */\n      swap3\n      swap2\n      pop\n      pop\n      jump\t// out\n        /* \"#utility.yul\":1835:2164   */\n    tag_23:\n        /* \"#utility.yul\":1894:1900   */\n      0x00\n        /* \"#utility.yul\":1943:1945   */\n      0x20\n        /* \"#utility.yul\":1931:1940   */\n      dup3\n        /* \"#utility.yul\":1922:1929   */\n      dup5\n        /* \"#utility.yul\":1918:1941   */\n      sub\n        /* \"#utility.yul\":1914:1946   */\n      slt\n        /* \"#utility.yul\":1911:2030   */\n      iszero\n      tag_109\n      jumpi\n        /* \"#utility.yul\":1949:2028   */\n      tag_110\n      tag_103\n      jump\t// in\n    tag_110:\n        /* \"#utility.yul\":1911:2030   */\n    tag_109:\n        /* \"#utility.yul\":2069:2070   */\n      0x00\n        /* \"#utility.yul\":2094:2147   */\n      tag_111\n        /* \"#utility.yul\":2139:2146   */\n      dup5\n        /* \"#utility.yul\":2130:2136   */\n      dup3\n        /* \"#utility.yul\":2119:2128   */\n      dup6\n        /* \"#utility.yul\":2115:2137   */\n      add\n        /* \"#utility.yul\":2094:2147   */\n      tag_90\n      jump\t// in\n    tag_111:\n        /* \"#utility.yul\":2084:2147   */\n      swap2\n      pop\n        /* \"#utility.yul\":2040:2157   */\n      pop\n        /* \"#utility.yul\":1835:2164   */\n      swap3\n      swap2\n      pop\n      pop\n      jump\t// out\n        /* \"#utility.yul\":2170:2349   */\n    tag_112:\n        /* \"#utility.yul\":2239:2249   */\n      0x00\n        /* \"#utility.yul\":2260:2306   */\n      tag_114\n        /* \"#utility.yul\":2302:2305   */\n      dup4\n        /* \"#utility.yul\":2294:2300   */\n      dup4\n        /* \"#utility.yul\":2260:2306   */\n      tag_115\n      jump\t// in\n    tag_114:\n        /* \"#utility.yul\":2338:2342   */\n      0x20\n        /* \"#utility.yul\":2333:2336   */\n      dup4\n        /* \"#utility.yul\":2329:2343   */\n      add\n        /* \"#utility.yul\":2315:2343   */\n      swap1\n      pop\n        /* \"#utility.yul\":2170:2349   */\n      swap3\n      swap2\n      pop\n      pop\n      jump\t// out\n        /* \"#utility.yul\":2385:3117   */\n    tag_116:\n        /* \"#utility.yul\":2504:2507   */\n      0x00\n        /* \"#utility.yul\":2533:2587   */\n      tag_118\n        /* \"#utility.yul\":2581:2586   */\n      dup3\n        /* \"#utility.yul\":2533:2587   */\n      tag_119\n      jump\t// in\n    tag_118:\n        /* \"#utility.yul\":2603:2689   */\n      tag_120\n        /* \"#utility.yul\":2682:2688   */\n      dup2\n        /* \"#utility.yul\":2677:2680   */\n      dup6\n        /* \"#utility.yul\":2603:2689   */\n      tag_121\n      jump\t// in\n    tag_120:\n        /* \"#utility.yul\":2596:2689   */\n      swap4\n      pop\n        /* \"#utility.yul\":2713:2769   */\n      tag_122\n        /* \"#utility.yul\":2763:2768   */\n      dup4\n        /* \"#utility.yul\":2713:2769   */\n      tag_123\n      jump\t// in\n    tag_122:\n        /* \"#utility.yul\":2792:2799   */\n      dup1\n        /* \"#utility.yul\":2823:2824   */\n      0x00\n        /* \"#utility.yul\":2808:3092   */\n    tag_124:\n        /* \"#utility.yul\":2833:2839   */\n      dup4\n        /* \"#utility.yul\":2830:2831   */\n      dup2\n        /* \"#utility.yul\":2827:2840   */\n      lt\n        /* \"#utility.yul\":2808:3092   */\n      iszero\n      tag_126\n      jumpi\n        /* \"#utility.yul\":2909:2915   */\n      dup2\n        /* \"#utility.yul\":2903:2916   */\n      mload\n        /* \"#utility.yul\":2936:2999   */\n      tag_127\n        /* \"#utility.yul\":2995:2998   */\n      dup9\n        /* \"#utility.yul\":2980:2993   */\n      dup3\n        /* \"#utility.yul\":2936:2999   */\n      tag_112\n      jump\t// in\n    tag_127:\n        /* \"#utility.yul\":2929:2999   */\n      swap8\n      pop\n        /* \"#utility.yul\":3022:3082   */\n      tag_128\n        /* \"#utility.yul\":3075:3081   */\n      dup4\n        /* \"#utility.yul\":3022:3082   */\n      tag_129\n      jump\t// in\n    tag_128:\n        /* \"#utility.yul\":3012:3082   */\n      swap3\n      pop\n        /* \"#utility.yul\":2868:3092   */\n      pop\n        /* \"#utility.yul\":2855:2856   */\n      0x01\n        /* \"#utility.yul\":2852:2853   */\n      dup2\n        /* \"#utility.yul\":2848:2857   */\n      add\n        /* \"#utility.yul\":2843:2857   */\n      swap1\n      pop\n        /* \"#utility.yul\":2808:3092   */\n      jump(tag_124)\n    tag_126:\n        /* \"#utility.yul\":2812:2826   */\n      pop\n        /* \"#utility.yul\":3108:3111   */\n      dup6\n        /* \"#utility.yul\":3101:3111   */\n      swap4\n      pop\n        /* \"#utility.yul\":2509:3117   */\n      pop\n      pop\n      pop\n        /* \"#utility.yul\":2385:3117   */\n      swap3\n      swap2\n      pop\n      pop\n      jump\t// out\n        /* \"#utility.yul\":3123:3232   */\n    tag_130:\n        /* \"#utility.yul\":3204:3225   */\n      tag_132\n        /* \"#utility.yul\":3219:3224   */\n      dup2\n        /* \"#utility.yul\":3204:3225   */\n      tag_133\n      jump\t// in\n    tag_132:\n        /* \"#utility.yul\":3199:3202   */\n      dup3\n        /* \"#utility.yul\":3192:3226   */\n      mstore\n        /* \"#utility.yul\":3123:3232   */\n      pop\n      pop\n      jump\t// out\n        /* \"#utility.yul\":3238:3346   */\n    tag_115:\n        /* \"#utility.yul\":3315:3339   */\n      tag_135\n        /* \"#utility.yul\":3333:3338   */\n      dup2\n        /* \"#utility.yul\":3315:3339   */\n      tag_136\n      jump\t// in\n    tag_135:\n        /* \"#utility.yul\":3310:3313   */\n      dup3\n        /* \"#utility.yul\":3303:3340   */\n      mstore\n        /* \"#utility.yul\":3238:3346   */\n      pop\n      pop\n      jump\t// out\n        /* \"#utility.yul\":3352:3470   */\n    tag_137:\n        /* \"#utility.yul\":3439:3463   */\n      tag_139\n        /* \"#utility.yul\":3457:3462   */\n      dup2\n        /* \"#utility.yul\":3439:3463   */\n      tag_136\n      jump\t// in\n    tag_139:\n        /* \"#utility.yul\":3434:3437   */\n      dup3\n        /* \"#utility.yul\":3427:3464   */\n      mstore\n        /* \"#utility.yul\":3352:3470   */\n      pop\n      pop\n      jump\t// out\n        /* \"#utility.yul\":3476:3849   */\n    tag_20:\n        /* \"#utility.yul\":3619:3623   */\n      0x00\n        /* \"#utility.yul\":3657:3659   */\n      0x20\n        /* \"#utility.yul\":3646:3655   */\n      dup3\n        /* \"#utility.yul\":3642:3660   */\n      add\n        /* \"#utility.yul\":3634:3660   */\n      swap1\n      pop\n        /* \"#utility.yul\":3706:3715   */\n      dup2\n        /* \"#utility.yul\":3700:3704   */\n      dup2\n        /* \"#utility.yul\":3696:3716   */\n      sub\n        /* \"#utility.yul\":3692:3693   */\n      0x00\n        /* \"#utility.yul\":3681:3690   */\n      dup4\n        /* \"#utility.yul\":3677:3694   */\n      add\n        /* \"#utility.yul\":3670:3717   */\n      mstore\n        /* \"#utility.yul\":3734:3842   */\n      tag_141\n        /* \"#utility.yul\":3837:3841   */\n      dup2\n        /* \"#utility.yul\":3828:3834   */\n      dup5\n        /* \"#utility.yul\":3734:3842   */\n      tag_116\n      jump\t// in\n    tag_141:\n        /* \"#utility.yul\":3726:3842   */\n      swap1\n      pop\n        /* \"#utility.yul\":3476:3849   */\n      swap3\n      swap2\n      pop\n      pop\n      jump\t// out\n        /* \"#utility.yul\":3855:4065   */\n    tag_26:\n        /* \"#utility.yul\":3942:3946   */\n      0x00\n        /* \"#utility.yul\":3980:3982   */\n      0x20\n        /* \"#utility.yul\":3969:3978   */\n      dup3\n        /* \"#utility.yul\":3965:3983   */\n      add\n        /* \"#utility.yul\":3957:3983   */\n      swap1\n      pop\n        /* \"#utility.yul\":3993:4058   */\n      tag_143\n        /* \"#utility.yul\":4055:4056   */\n      0x00\n        /* \"#utility.yul\":4044:4053   */\n      dup4\n        /* \"#utility.yul\":4040:4057   */\n      add\n        /* \"#utility.yul\":4031:4037   */\n      dup5\n        /* \"#utility.yul\":3993:4058   */\n      tag_130\n      jump\t// in\n    tag_143:\n        /* \"#utility.yul\":3855:4065   */\n      swap3\n      swap2\n      pop\n      pop\n      jump\t// out\n        /* \"#utility.yul\":4071:4293   */\n    tag_11:\n        /* \"#utility.yul\":4164:4168   */\n      0x00\n        /* \"#utility.yul\":4202:4204   */\n      0x20\n        /* \"#utility.yul\":4191:4200   */\n      dup3\n        /* \"#utility.yul\":4187:4205   */\n      add\n        /* \"#utility.yul\":4179:4205   */\n      swap1\n      pop\n        /* \"#utility.yul\":4215:4286   */\n      tag_145\n        /* \"#utility.yul\":4283:4284   */\n      0x00\n        /* \"#utility.yul\":4272:4281   */\n      dup4\n        /* \"#utility.yul\":4268:4285   */\n      add\n        /* \"#utility.yul\":4259:4265   */\n      dup5\n        /* \"#utility.yul\":4215:4286   */\n      tag_137\n      jump\t// in\n    tag_145:\n        /* \"#utility.yul\":4071:4293   */\n      swap3\n      swap2\n      pop\n      pop\n      jump\t// out\n        /* \"#utility.yul\":4299:4428   */\n    tag_82:\n        /* \"#utility.yul\":4333:4339   */\n      0x00\n        /* \"#utility.yul\":4360:4380   */\n      tag_147\n      tag_148\n      jump\t// in\n    tag_147:\n        /* \"#utility.yul\":4350:4380   */\n      swap1\n      pop\n        /* \"#utility.yul\":4389:4422   */\n      tag_149\n        /* \"#utility.yul\":4417:4421   */\n      dup3\n        /* \"#utility.yul\":4409:4415   */\n      dup3\n        /* \"#utility.yul\":4389:4422   */\n      tag_150\n      jump\t// in\n    tag_149:\n        /* \"#utility.yul\":4299:4428   */\n      swap2\n      swap1\n      pop\n      jump\t// out\n        /* \"#utility.yul\":4434:4509   */\n    tag_148:\n        /* \"#utility.yul\":4467:4473   */\n      0x00\n        /* \"#utility.yul\":4500:4502   */\n      0x40\n        /* \"#utility.yul\":4494:4503   */\n      mload\n        /* \"#utility.yul\":4484:4503   */\n      swap1\n      pop\n        /* \"#utility.yul\":4434:4509   */\n      swap1\n      jump\t// out\n        /* \"#utility.yul\":4515:4826   */\n    tag_81:\n        /* \"#utility.yul\":4592:4596   */\n      0x00\n        /* \"#utility.yul\":4682:4700   */\n      0xffffffffffffffff\n        /* \"#utility.yul\":4674:4680   */\n      dup3\n        /* \"#utility.yul\":4671:4701   */\n      gt\n        /* \"#utility.yul\":4668:4724   */\n      iszero\n      tag_153\n      jumpi\n        /* \"#utility.yul\":4704:4722   */\n      tag_154\n      tag_155\n      jump\t// in\n    tag_154:\n        /* \"#utility.yul\":4668:4724   */\n    tag_153:\n        /* \"#utility.yul\":4754:4758   */\n      0x20\n        /* \"#utility.yul\":4746:4752   */\n      dup3\n        /* \"#utility.yul\":4742:4759   */\n      mul\n        /* \"#utility.yul\":4734:4759   */\n      swap1\n      pop\n        /* \"#utility.yul\":4814:4818   */\n      0x20\n        /* \"#utility.yul\":4808:4812   */\n      dup2\n        /* \"#utility.yul\":4804:4819   */\n      add\n        /* \"#utility.yul\":4796:4819   */\n      swap1\n      pop\n        /* \"#utility.yul\":4515:4826   */\n      swap2\n      swap1\n      pop\n      jump\t// out\n        /* \"#utility.yul\":4832:4964   */\n    tag_123:\n        /* \"#utility.yul\":4899:4903   */\n      0x00\n        /* \"#utility.yul\":4922:4925   */\n      dup2\n        /* \"#utility.yul\":4914:4925   */\n      swap1\n      pop\n        /* \"#utility.yul\":4952:4956   */\n      0x20\n        /* \"#utility.yul\":4947:4950   */\n      dup3\n        /* \"#utility.yul\":4943:4957   */\n      add\n        /* \"#utility.yul\":4935:4957   */\n      swap1\n      pop\n        /* \"#utility.yul\":4832:4964   */\n      swap2\n      swap1\n      pop\n      jump\t// out\n        /* \"#utility.yul\":4970:5084   */\n    tag_119:\n        /* \"#utility.yul\":5037:5043   */\n      0x00\n        /* \"#utility.yul\":5071:5076   */\n      dup2\n        /* \"#utility.yul\":5065:5077   */\n      mload\n        /* \"#utility.yul\":5055:5077   */\n      swap1\n      pop\n        /* \"#utility.yul\":4970:5084   */\n      swap2\n      swap1\n      pop\n      jump\t// out\n        /* \"#utility.yul\":5090:5203   */\n    tag_129:\n        /* \"#utility.yul\":5160:5164   */\n      0x00\n        /* \"#utility.yul\":5192:5196   */\n      0x20\n        /* \"#utility.yul\":5187:5190   */\n      dup3\n        /* \"#utility.yul\":5183:5197   */\n      add\n        /* \"#utility.yul\":5175:5197   */\n      swap1\n      pop\n        /* \"#utility.yul\":5090:5203   */\n      swap2\n      swap1\n      pop\n      jump\t// out\n        /* \"#utility.yul\":5209:5393   */\n    tag_121:\n        /* \"#utility.yul\":5308:5319   */\n      0x00\n        /* \"#utility.yul\":5342:5348   */\n      dup3\n        /* \"#utility.yul\":5337:5340   */\n      dup3\n        /* \"#utility.yul\":5330:5349   */\n      mstore\n        /* \"#utility.yul\":5382:5386   */\n      0x20\n        /* \"#utility.yul\":5377:5380   */\n      dup3\n        /* \"#utility.yul\":5373:5387   */\n      add\n        /* \"#utility.yul\":5358:5387   */\n      swap1\n      pop\n        /* \"#utility.yul\":5209:5393   */\n      swap3\n      swap2\n      pop\n      pop\n      jump\t// out\n        /* \"#utility.yul\":5399:5704   */\n    tag_35:\n        /* \"#utility.yul\":5439:5442   */\n      0x00\n        /* \"#utility.yul\":5458:5478   */\n      tag_161\n        /* \"#utility.yul\":5476:5477   */\n      dup3\n        /* \"#utility.yul\":5458:5478   */\n      tag_136\n      jump\t// in\n    tag_161:\n        /* \"#utility.yul\":5453:5478   */\n      swap2\n      pop\n        /* \"#utility.yul\":5492:5512   */\n      tag_162\n        /* \"#utility.yul\":5510:5511   */\n      dup4\n        /* \"#utility.yul\":5492:5512   */\n      tag_136\n      jump\t// in\n    tag_162:\n        /* \"#utility.yul\":5487:5512   */\n      swap3\n      pop\n        /* \"#utility.yul\":5646:5647   */\n      dup3\n        /* \"#utility.yul\":5578:5644   */\n      0xffffffffffffffffffffffffffffffffffffffffffffffffffffffffffffffff\n        /* \"#utility.yul\":5574:5648   */\n      sub\n        /* \"#utility.yul\":5571:5572   */\n      dup3\n        /* \"#utility.yul\":5568:5649   */\n      gt\n        /* \"#utility.yul\":5565:5672   */\n      iszero\n      tag_163\n      jumpi\n        /* \"#utility.yul\":5652:5670   */\n      tag_164\n      tag_165\n      jump\t// in\n    tag_164:\n        /* \"#utility.yul\":5565:5672   */\n    tag_163:\n        /* \"#utility.yul\":5696:5697   */\n      dup3\n        /* \"#utility.yul\":5693:5694   */\n      dup3\n        /* \"#utility.yul\":5689:5698   */\n      add\n        /* \"#utility.yul\":5682:5698   */\n      swap1\n      pop\n        /* \"#utility.yul\":5399:5704   */\n      swap3\n      swap2\n      pop\n      pop\n      jump\t// out\n        /* \"#utility.yul\":5710:5901   */\n    tag_54:\n        /* \"#utility.yul\":5750:5754   */\n      0x00\n        /* \"#utility.yul\":5770:5790   */\n      tag_167\n        /* \"#utility.yul\":5788:5789   */\n      dup3\n        /* \"#utility.yul\":5770:5790   */\n      tag_136\n      jump\t// in\n    tag_167:\n        /* \"#utility.yul\":5765:5790   */\n      swap2\n      pop\n        /* \"#utility.yul\":5804:5824   */\n      tag_168\n        /* \"#utility.yul\":5822:5823   */\n      dup4\n        /* \"#utility.yul\":5804:5824   */\n      tag_136\n      jump\t// in\n    tag_168:\n        /* \"#utility.yul\":5799:5824   */\n      swap3\n      pop\n        /* \"#utility.yul\":5843:5844   */\n      dup3\n        /* \"#utility.yul\":5840:5841   */\n      dup3\n        /* \"#utility.yul\":5837:5845   */\n      lt\n        /* \"#utility.yul\":5834:5868   */\n      iszero\n      tag_169\n      jumpi\n        /* \"#utility.yul\":5848:5866   */\n      tag_170\n      tag_165\n      jump\t// in\n    tag_170:\n        /* \"#utility.yul\":5834:5868   */\n    tag_169:\n        /* \"#utility.yul\":5893:5894   */\n      dup3\n        /* \"#utility.yul\":5890:5891   */\n      dup3\n        /* \"#utility.yul\":5886:5895   */\n      sub\n        /* \"#utility.yul\":5878:5895   */\n      swap1\n      pop\n        /* \"#utility.yul\":5710:5901   */\n      swap3\n      swap2\n      pop\n      pop\n      jump\t// out\n        /* \"#utility.yul\":5907:5997   */\n    tag_133:\n        /* \"#utility.yul\":5941:5948   */\n      0x00\n        /* \"#utility.yul\":5984:5989   */\n      dup2\n        /* \"#utility.yul\":5977:5990   */\n      iszero\n        /* \"#utility.yul\":5970:5991   */\n      iszero\n        /* \"#utility.yul\":5959:5991   */\n      swap1\n      pop\n        /* \"#utility.yul\":5907:5997   */\n      swap2\n      swap1\n      pop\n      jump\t// out\n        /* \"#utility.yul\":6003:6080   */\n    tag_136:\n        /* \"#utility.yul\":6040:6047   */\n      0x00\n        /* \"#utility.yul\":6069:6074   */\n      dup2\n        /* \"#utility.yul\":6058:6074   */\n      swap1\n      pop\n        /* \"#utility.yul\":6003:6080   */\n      swap2\n      swap1\n      pop\n      jump\t// out\n        /* \"#utility.yul\":6086:6257   */\n    tag_63:\n        /* \"#utility.yul\":6125:6128   */\n      0x00\n        /* \"#utility.yul\":6148:6172   */\n      tag_174\n        /* \"#utility.yul\":6166:6171   */\n      dup3\n        /* \"#utility.yul\":6148:6172   */\n      tag_136\n      jump\t// in\n    tag_174:\n        /* \"#utility.yul\":6139:6172   */\n      swap2\n      pop\n        /* \"#utility.yul\":6194:6198   */\n      0x00\n        /* \"#utility.yul\":6187:6192   */\n      dup3\n        /* \"#utility.yul\":6184:6199   */\n      eq\n        /* \"#utility.yul\":6181:6222   */\n      iszero\n      tag_175\n      jumpi\n        /* \"#utility.yul\":6202:6220   */\n      tag_176\n      tag_165\n      jump\t// in\n    tag_176:\n        /* \"#utility.yul\":6181:6222   */\n    tag_175:\n        /* \"#utility.yul\":6249:6250   */\n      0x01\n        /* \"#utility.yul\":6242:6247   */\n      dup3\n        /* \"#utility.yul\":6238:6251   */\n      sub\n        /* \"#utility.yul\":6231:6251   */\n      swap1\n      pop\n        /* \"#utility.yul\":6086:6257   */\n      swap2\n      swap1\n      pop\n      jump\t// out\n        /* \"#utility.yul\":6263:6544   */\n    tag_150:\n        /* \"#utility.yul\":6346:6373   */\n      tag_178\n        /* \"#utility.yul\":6368:6372   */\n      dup3\n        /* \"#utility.yul\":6346:6373   */\n      tag_179\n      jump\t// in\n    tag_178:\n        /* \"#utility.yul\":6338:6344   */\n      dup2\n        /* \"#utility.yul\":6334:6374   */\n      add\n        /* \"#utility.yul\":6476:6482   */\n      dup2\n        /* \"#utility.yul\":6464:6474   */\n      dup2\n        /* \"#utility.yul\":6461:6483   */\n      lt\n        /* \"#utility.yul\":6440:6458   */\n      0xffffffffffffffff\n        /* \"#utility.yul\":6428:6438   */\n      dup3\n        /* \"#utility.yul\":6425:6459   */\n      gt\n        /* \"#utility.yul\":6422:6484   */\n      or\n        /* \"#utility.yul\":6419:6507   */\n      iszero\n      tag_180\n      jumpi\n        /* \"#utility.yul\":6487:6505   */\n      tag_181\n      tag_155\n      jump\t// in\n    tag_181:\n        /* \"#utility.yul\":6419:6507   */\n    tag_180:\n        /* \"#utility.yul\":6527:6537   */\n      dup1\n        /* \"#utility.yul\":6523:6525   */\n      0x40\n        /* \"#utility.yul\":6516:6538   */\n      mstore\n        /* \"#utility.yul\":6306:6544   */\n      pop\n        /* \"#utility.yul\":6263:6544   */\n      pop\n      pop\n      jump\t// out\n        /* \"#utility.yul\":6550:6783   */\n    tag_37:\n        /* \"#utility.yul\":6589:6592   */\n      0x00\n        /* \"#utility.yul\":6612:6636   */\n      tag_183\n        /* \"#utility.yul\":6630:6635   */\n      dup3\n        /* \"#utility.yul\":6612:6636   */\n      tag_136\n      jump\t// in\n    tag_183:\n        /* \"#utility.yul\":6603:6636   */\n      swap2\n      pop\n        /* \"#utility.yul\":6658:6724   */\n      0xffffffffffffffffffffffffffffffffffffffffffffffffffffffffffffffff\n        /* \"#utility.yul\":6651:6656   */\n      dup3\n        /* \"#utility.yul\":6648:6725   */\n      eq\n        /* \"#utility.yul\":6645:6748   */\n      iszero\n      tag_184\n      jumpi\n        /* \"#utility.yul\":6728:6746   */\n      tag_185\n      tag_165\n      jump\t// in\n    tag_185:\n        /* \"#utility.yul\":6645:6748   */\n    tag_184:\n        /* \"#utility.yul\":6775:6776   */\n      0x01\n        /* \"#utility.yul\":6768:6773   */\n      dup3\n        /* \"#utility.yul\":6764:6777   */\n      add\n        /* \"#utility.yul\":6757:6777   */\n      swap1\n      pop\n        /* \"#utility.yul\":6550:6783   */\n      swap2\n      swap1\n      pop\n      jump\t// out\n        /* \"#utility.yul\":6789:6969   */\n    tag_165:\n        /* \"#utility.yul\":6837:6914   */\n      0x4e487b7100000000000000000000000000000000000000000000000000000000\n        /* \"#utility.yul\":6834:6835   */\n      0x00\n        /* \"#utility.yul\":6827:6915   */\n      mstore\n        /* \"#utility.yul\":6934:6938   */\n      0x11\n        /* \"#utility.yul\":6931:6932   */\n      0x04\n        /* \"#utility.yul\":6924:6939   */\n      mstore\n        /* \"#utility.yul\":6958:6962   */\n      0x24\n        /* \"#utility.yul\":6955:6956   */\n      0x00\n        /* \"#utility.yul\":6948:6963   */\n      revert\n        /* \"#utility.yul\":6975:7155   */\n    tag_49:\n        /* \"#utility.yul\":7023:7100   */\n      0x4e487b7100000000000000000000000000000000000000000000000000000000\n        /* \"#utility.yul\":7020:7021   */\n      0x00\n        /* \"#utility.yul\":7013:7101   */\n      mstore\n        /* \"#utility.yul\":7120:7124   */\n      0x32\n        /* \"#utility.yul\":7117:7118   */\n      0x04\n        /* \"#utility.yul\":7110:7125   */\n      mstore\n        /* \"#utility.yul\":7144:7148   */\n      0x24\n        /* \"#utility.yul\":7141:7142   */\n      0x00\n        /* \"#utility.yul\":7134:7149   */\n      revert\n        /* \"#utility.yul\":7161:7341   */\n    tag_155:\n        /* \"#utility.yul\":7209:7286   */\n      0x4e487b7100000000000000000000000000000000000000000000000000000000\n        /* \"#utility.yul\":7206:7207   */\n      0x00\n        /* \"#utility.yul\":7199:7287   */\n      mstore\n        /* \"#utility.yul\":7306:7310   */\n      0x41\n        /* \"#utility.yul\":7303:7304   */\n      0x04\n        /* \"#utility.yul\":7296:7311   */\n      mstore\n        /* \"#utility.yul\":7330:7334   */\n      0x24\n        /* \"#utility.yul\":7327:7328   */\n      0x00\n        /* \"#utility.yul\":7320:7335   */\n      revert\n        /* \"#utility.yul\":7347:7464   */\n    tag_95:\n        /* \"#utility.yul\":7456:7457   */\n      0x00\n        /* \"#utility.yul\":7453:7454   */\n      dup1\n        /* \"#utility.yul\":7446:7458   */\n      revert\n        /* \"#utility.yul\":7470:7587   */\n    tag_85:\n        /* \"#utility.yul\":7579:7580   */\n      0x00\n        /* \"#utility.yul\":7576:7577   */\n      dup1\n        /* \"#utility.yul\":7569:7581   */\n      revert\n        /* \"#utility.yul\":7593:7710   */\n    tag_106:\n        /* \"#utility.yul\":7702:7703   */\n      0x00\n        /* \"#utility.yul\":7699:7700   */\n      dup1\n        /* \"#utility.yul\":7692:7704   */\n      revert\n        /* \"#utility.yul\":7716:7833   */\n    tag_103:\n        /* \"#utility.yul\":7825:7826   */\n      0x00\n        /* \"#utility.yul\":7822:7823   */\n      dup1\n        /* \"#utility.yul\":7815:7827   */\n      revert\n        /* \"#utility.yul\":7839:7941   */\n    tag_179:\n        /* \"#utility.yul\":7880:7886   */\n      0x00\n        /* \"#utility.yul\":7931:7933   */\n      0x1f\n        /* \"#utility.yul\":7927:7934   */\n      not\n        /* \"#utility.yul\":7922:7924   */\n      0x1f\n        /* \"#utility.yul\":7915:7920   */\n      dup4\n        /* \"#utility.yul\":7911:7925   */\n      add\n        /* \"#utility.yul\":7907:7935   */\n      and\n        /* \"#utility.yul\":7897:7935   */\n      swap1\n      pop\n        /* \"#utility.yul\":7839:7941   */\n      swap2\n      swap1\n      pop\n      jump\t// out\n        /* \"#utility.yul\":7947:8069   */\n    tag_99:\n        /* \"#utility.yul\":8020:8044   */\n      tag_195\n        /* \"#utility.yul\":8038:8043   */\n      dup2\n        /* \"#utility.yul\":8020:8044   */\n      tag_136\n      jump\t// in\n    tag_195:\n        /* \"#utility.yul\":8013:8018   */\n      dup2\n        /* \"#utility.yul\":8010:8045   */\n      eq\n        /* \"#utility.yul\":8000:8063   */\n      tag_196\n      jumpi\n        /* \"#utility.yul\":8059:8060   */\n      0x00\n        /* \"#utility.yul\":8056:8057   */\n      dup1\n        /* \"#utility.yul\":8049:8061   */\n      revert\n        /* \"#utility.yul\":8000:8063   */\n    tag_196:\n        /* \"#utility.yul\":7947:8069   */\n      pop\n      jump\t// out\n\n    auxdata: 0xa2646970667358221220f3b1786d639beb06186c59cb19029f3070fd4923091deddbea696173319d0d5e64736f6c63430008070033\n}\n",
				"bytecode": {
					"linkReferences": {},
					"object": "608060405234801561001057600080fd5b506107db806100206000396000f3fe608060405234801561001057600080fd5b50600436106100575760003560e01c80632bbacaaa1461005c5780635d14639d1461007a5780636297206f146100985780637141fb00146100c8578063b0cfa9fc146100f8575b600080fd5b610064610116565b60405161007191906104f3565b60405180910390f35b61008261014c565b60405161008f91906104f3565b60405180910390f35b6100b260048036038101906100ad919061039d565b610188565b6040516100bf91906104b6565b60405180910390f35b6100e260048036038101906100dd91906103e6565b610291565b6040516100ef91906104d8565b60405180910390f35b6101006102ae565b60405161010d91906104f3565b60405180910390f35b6000806000905060005b808261012c9190610598565b9150808061013990610693565b915050600a811061012057819250505090565b6000806000905060005b600a81101561018057808261016b9190610598565b9150808061017890610693565b915050610156565b819250505090565b60606000600190505b82518110156102885760008382815181106101af576101ae61070b565b5b6020026020010151905060008290505b600181101580156101f55750846001826101d991906105ee565b815181106101ea576101e961070b565b5b602002602001015182105b15610253578460018261020891906105ee565b815181106102195761021861070b565b5b60200260200101518582815181106102345761023361070b565b5b602002602001018181525050808061024b90610638565b9150506101bf565b818582815181106102675761026661070b565b5b6020026020010181815250505050808061028090610693565b915050610191565b50819050919050565b6000808214156102a457600190506102a9565b600090505b919050565b6000806000905060005b600a8110156102e25780826102cd9190610598565b915080806102da90610693565b9150506102b8565b508091505090565b60006102fd6102f884610533565b61050e565b905080838252602082019050828560208602820111156103205761031f61076e565b5b60005b8581101561035057816103368882610388565b845260208401935060208301925050600181019050610323565b5050509392505050565b600082601f83011261036f5761036e610769565b5b813561037f8482602086016102ea565b91505092915050565b6000813590506103978161078e565b92915050565b6000602082840312156103b3576103b2610778565b5b600082013567ffffffffffffffff8111156103d1576103d0610773565b5b6103dd8482850161035a565b91505092915050565b6000602082840312156103fc576103fb610778565b5b600061040a84828501610388565b91505092915050565b600061041f8383610498565b60208301905092915050565b60006104368261056f565b6104408185610587565b935061044b8361055f565b8060005b8381101561047c5781516104638882610413565b975061046e8361057a565b92505060018101905061044f565b5085935050505092915050565b61049281610622565b82525050565b6104a18161062e565b82525050565b6104b08161062e565b82525050565b600060208201905081810360008301526104d0818461042b565b905092915050565b60006020820190506104ed6000830184610489565b92915050565b600060208201905061050860008301846104a7565b92915050565b6000610518610529565b90506105248282610662565b919050565b6000604051905090565b600067ffffffffffffffff82111561054e5761054d61073a565b5b602082029050602081019050919050565b6000819050602082019050919050565b600081519050919050565b6000602082019050919050565b600082825260208201905092915050565b60006105a38261062e565b91506105ae8361062e565b9250827fffffffffffffffffffffffffffffffffffffffffffffffffffffffffffffffff038211156105e3576105e26106dc565b5b828201905092915050565b60006105f98261062e565b91506106048361062e565b925082821015610617576106166106dc565b5b828203905092915050565b60008115159050919050565b6000819050919050565b60006106438261062e565b91506000821415610657576106566106dc565b5b600182039050919050565b61066b8261077d565b810181811067ffffffffffffffff8211171561068a5761068961073a565b5b80604052505050565b600061069e8261062e565b91507fffffffffffffffffffffffffffffffffffffffffffffffffffffffffffffffff8214156106d1576106d06106dc565b5b600182019050919050565b7f4e487b7100000000000000000000000000000000000000000000000000000000600052601160045260246000fd5b7f4e487b7100000000000000000000000000000000000000000000000000000000600052603260045260246000fd5b7f4e487b7100000000000000000000000000000000000000000000000000000000600052604160045260246000fd5b600080fd5b600080fd5b600080fd5b600080fd5b6000601f19601f8301169050919050565b6107978161062e565b81146107a257600080fd5b5056fea2646970667358221220f3b1786d639beb06186c59cb19029f3070fd4923091deddbea696173319d0d5e64736f6c63430008070033",
					"opcodes": "PUSH1 0x80 PUSH1 0x40 MSTORE CALLVALUE DUP1 ISZERO PUSH2 0x10 JUMPI PUSH1 0x0 DUP1 REVERT JUMPDEST POP PUSH2 0x7DB DUP1 PUSH2 0x20 PUSH1 0x0 CODECOPY PUSH1 0x0 RETURN INVALID PUSH1 0x80 PUSH1 0x40 MSTORE CALLVALUE DUP1 ISZERO PUSH2 0x10 JUMPI PUSH1 0x0 DUP1 REVERT JUMPDEST POP PUSH1 0x4 CALLDATASIZE LT PUSH2 0x57 JUMPI PUSH1 0x0 CALLDATALOAD PUSH1 0xE0 SHR DUP1 PUSH4 0x2BBACAAA EQ PUSH2 0x5C JUMPI DUP1 PUSH4 0x5D14639D EQ PUSH2 0x7A JUMPI DUP1 PUSH4 0x6297206F EQ PUSH2 0x98 JUMPI DUP1 PUSH4 0x7141FB00 EQ PUSH2 0xC8 JUMPI DUP1 PUSH4 0xB0CFA9FC EQ PUSH2 0xF8 JUMPI JUMPDEST PUSH1 0x0 DUP1 REVERT JUMPDEST PUSH2 0x64 PUSH2 0x116 JUMP JUMPDEST PUSH1 0x40 MLOAD PUSH2 0x71 SWAP2 SWAP1 PUSH2 0x4F3 JUMP JUMPDEST PUSH1 0x40 MLOAD DUP1 SWAP2 SUB SWAP1 RETURN JUMPDEST PUSH2 0x82 PUSH2 0x14C JUMP JUMPDEST PUSH1 0x40 MLOAD PUSH2 0x8F SWAP2 SWAP1 PUSH2 0x4F3 JUMP JUMPDEST PUSH1 0x40 MLOAD DUP1 SWAP2 SUB SWAP1 RETURN JUMPDEST PUSH2 0xB2 PUSH1 0x4 DUP1 CALLDATASIZE SUB DUP2 ADD SWAP1 PUSH2 0xAD SWAP2 SWAP1 PUSH2 0x39D JUMP JUMPDEST PUSH2 0x188 JUMP JUMPDEST PUSH1 0x40 MLOAD PUSH2 0xBF SWAP2 SWAP1 PUSH2 0x4B6 JUMP JUMPDEST PUSH1 0x40 MLOAD DUP1 SWAP2 SUB SWAP1 RETURN JUMPDEST PUSH2 0xE2 PUSH1 0x4 DUP1 CALLDATASIZE SUB DUP2 ADD SWAP1 PUSH2 0xDD SWAP2 SWAP1 PUSH2 0x3E6 JUMP JUMPDEST PUSH2 0x291 JUMP JUMPDEST PUSH1 0x40 MLOAD PUSH2 0xEF SWAP2 SWAP1 PUSH2 0x4D8 JUMP JUMPDEST PUSH1 0x40 MLOAD DUP1 SWAP2 SUB SWAP1 RETURN JUMPDEST PUSH2 0x100 PUSH2 0x2AE JUMP JUMPDEST PUSH1 0x40 MLOAD PUSH2 0x10D SWAP2 SWAP1 PUSH2 0x4F3 JUMP JUMPDEST PUSH1 0x40 MLOAD DUP1 SWAP2 SUB SWAP1 RETURN JUMPDEST PUSH1 0x0 DUP1 PUSH1 0x0 SWAP1 POP PUSH1 0x0 JUMPDEST DUP1 DUP3 PUSH2 0x12C SWAP2 SWAP1 PUSH2 0x598 JUMP JUMPDEST SWAP2 POP DUP1 DUP1 PUSH2 0x139 SWAP1 PUSH2 0x693 JUMP JUMPDEST SWAP2 POP POP PUSH1 0xA DUP2 LT PUSH2 0x120 JUMPI DUP2 SWAP3 POP POP POP SWAP1 JUMP JUMPDEST PUSH1 0x0 DUP1 PUSH1 0x0 SWAP1 POP PUSH1 0x0 JUMPDEST PUSH1 0xA DUP2 LT ISZERO PUSH2 0x180 JUMPI DUP1 DUP3 PUSH2 0x16B SWAP2 SWAP1 PUSH2 0x598 JUMP JUMPDEST SWAP2 POP DUP1 DUP1 PUSH2 0x178 SWAP1 PUSH2 0x693 JUMP JUMPDEST SWAP2 POP POP PUSH2 0x156 JUMP JUMPDEST DUP2 SWAP3 POP POP POP SWAP1 JUMP JUMPDEST PUSH1 0x60 PUSH1 0x0 PUSH1 0x1 SWAP1 POP JUMPDEST DUP3 MLOAD DUP2 LT ISZERO PUSH2 0x288 JUMPI PUSH1 0x0 DUP4 DUP3 DUP2 MLOAD DUP2 LT PUSH2 0x1AF JUMPI PUSH2 0x1AE PUSH2 0x70B JUMP JUMPDEST JUMPDEST PUSH1 0x20 MUL PUSH1 0x20 ADD ADD MLOAD SWAP1 POP PUSH1 0x0 DUP3 SWAP1 POP JUMPDEST PUSH1 0x1 DUP2 LT ISZERO DUP1 ISZERO PUSH2 0x1F5 JUMPI POP DUP5 PUSH1 0x1 DUP3 PUSH2 0x1D9 SWAP2 SWAP1 PUSH2 0x5EE JUMP JUMPDEST DUP2 MLOAD DUP2 LT PUSH2 0x1EA JUMPI PUSH2 0x1E9 PUSH2 0x70B JUMP JUMPDEST JUMPDEST PUSH1 0x20 MUL PUSH1 0x20 ADD ADD MLOAD DUP3 LT JUMPDEST ISZERO PUSH2 0x253 JUMPI DUP5 PUSH1 0x1 DUP3 PUSH2 0x208 SWAP2 SWAP1 PUSH2 0x5EE JUMP JUMPDEST DUP2 MLOAD DUP2 LT PUSH2 0x219 JUMPI PUSH2 0x218 PUSH2 0x70B JUMP JUMPDEST JUMPDEST PUSH1 0x20 MUL PUSH1 0x20 ADD ADD MLOAD DUP6 DUP3 DUP2 MLOAD DUP2 LT PUSH2 0x234 JUMPI PUSH2 0x233 PUSH2 0x70B JUMP JUMPDEST JUMPDEST PUSH1 0x20 MUL PUSH1 0x20 ADD ADD DUP2 DUP2 MSTORE POP POP DUP1 DUP1 PUSH2 0x24B SWAP1 PUSH2 0x638 JUMP JUMPDEST SWAP2 POP POP PUSH2 0x1BF JUMP JUMPDEST DUP2 DUP6 DUP3 DUP2 MLOAD DUP2 LT PUSH2 0x267 JUMPI PUSH2 0x266 PUSH2 0x70B JUMP JUMPDEST JUMPDEST PUSH1 0x20 MUL PUSH1 0x20 ADD ADD DUP2 DUP2 MSTORE POP POP POP POP DUP1 DUP1 PUSH2 0x280 SWAP1 PUSH2 0x693 JUMP JUMPDEST SWAP2 POP POP PUSH2 0x191 JUMP JUMPDEST POP DUP2 SWAP1 POP SWAP2 SWAP1 POP JUMP JUMPDEST PUSH1 0x0 DUP1 DUP3 EQ ISZERO PUSH2 0x2A4 JUMPI PUSH1 0x1 SWAP1 POP PUSH2 0x2A9 JUMP JUMPDEST PUSH1 0x0 SWAP1 POP JUMPDEST SWAP2 SWAP1 POP JUMP JUMPDEST PUSH1 0x0 DUP1 PUSH1 0x0 SWAP1 POP PUSH1 0x0 JUMPDEST PUSH1 0xA DUP2 LT ISZERO PUSH2 0x2E2 JUMPI DUP1 DUP3 PUSH2 0x2CD SWAP2 SWAP1 PUSH2 0x598 JUMP JUMPDEST SWAP2 POP DUP1 DUP1 PUSH2 0x2DA SWAP1 PUSH2 0x693 JUMP JUMPDEST SWAP2 POP POP PUSH2 0x2B8 JUMP JUMPDEST POP DUP1 SWAP2 POP POP SWAP1 JUMP JUMPDEST PUSH1 0x0 PUSH2 0x2FD PUSH2 0x2F8 DUP5 PUSH2 0x533 JUMP JUMPDEST PUSH2 0x50E JUMP JUMPDEST SWAP1 POP DUP1 DUP4 DUP3 MSTORE PUSH1 0x20 DUP3 ADD SWAP1 POP DUP3 DUP6 PUSH1 0x20 DUP7 MUL DUP3 ADD GT ISZERO PUSH2 0x320 JUMPI PUSH2 0x31F PUSH2 0x76E JUMP JUMPDEST JUMPDEST PUSH1 0x0 JUMPDEST DUP6 DUP2 LT ISZERO PUSH2 0x350 JUMPI DUP2 PUSH2 0x336 DUP9 DUP3 PUSH2 0x388 JUMP JUMPDEST DUP5 MSTORE PUSH1 0x20 DUP5 ADD SWAP4 POP PUSH1 0x20 DUP4 ADD SWAP3 POP POP PUSH1 0x1 DUP2 ADD SWAP1 POP PUSH2 0x323 JUMP JUMPDEST POP POP POP SWAP4 SWAP3 POP POP POP JUMP JUMPDEST PUSH1 0x0 DUP3 PUSH1 0x1F DUP4 ADD SLT PUSH2 0x36F JUMPI PUSH2 0x36E PUSH2 0x769 JUMP JUMPDEST JUMPDEST DUP2 CALLDATALOAD PUSH2 0x37F DUP5 DUP3 PUSH1 0x20 DUP7 ADD PUSH2 0x2EA JUMP JUMPDEST SWAP2 POP POP SWAP3 SWAP2 POP POP JUMP JUMPDEST PUSH1 0x0 DUP2 CALLDATALOAD SWAP1 POP PUSH2 0x397 DUP2 PUSH2 0x78E JUMP JUMPDEST SWAP3 SWAP2 POP POP JUMP JUMPDEST PUSH1 0x0 PUSH1 0x20 DUP3 DUP5 SUB SLT ISZERO PUSH2 0x3B3 JUMPI PUSH2 0x3B2 PUSH2 0x778 JUMP JUMPDEST JUMPDEST PUSH1 0x0 DUP3 ADD CALLDATALOAD PUSH8 0xFFFFFFFFFFFFFFFF DUP2 GT ISZERO PUSH2 0x3D1 JUMPI PUSH2 0x3D0 PUSH2 0x773 JUMP JUMPDEST JUMPDEST PUSH2 0x3DD DUP5 DUP3 DUP6 ADD PUSH2 0x35A JUMP JUMPDEST SWAP2 POP POP SWAP3 SWAP2 POP POP JUMP JUMPDEST PUSH1 0x0 PUSH1 0x20 DUP3 DUP5 SUB SLT ISZERO PUSH2 0x3FC JUMPI PUSH2 0x3FB PUSH2 0x778 JUMP JUMPDEST JUMPDEST PUSH1 0x0 PUSH2 0x40A DUP5 DUP3 DUP6 ADD PUSH2 0x388 JUMP JUMPDEST SWAP2 POP POP SWAP3 SWAP2 POP POP JUMP JUMPDEST PUSH1 0x0 PUSH2 0x41F DUP4 DUP4 PUSH2 0x498 JUMP JUMPDEST PUSH1 0x20 DUP4 ADD SWAP1 POP SWAP3 SWAP2 POP POP JUMP JUMPDEST PUSH1 0x0 PUSH2 0x436 DUP3 PUSH2 0x56F JUMP JUMPDEST PUSH2 0x440 DUP2 DUP6 PUSH2 0x587 JUMP JUMPDEST SWAP4 POP PUSH2 0x44B DUP4 PUSH2 0x55F JUMP JUMPDEST DUP1 PUSH1 0x0 JUMPDEST DUP4 DUP2 LT ISZERO PUSH2 0x47C JUMPI DUP2 MLOAD PUSH2 0x463 DUP9 DUP3 PUSH2 0x413 JUMP JUMPDEST SWAP8 POP PUSH2 0x46E DUP4 PUSH2 0x57A JUMP JUMPDEST SWAP3 POP POP PUSH1 0x1 DUP2 ADD SWAP1 POP PUSH2 0x44F JUMP JUMPDEST POP DUP6 SWAP4 POP POP POP POP SWAP3 SWAP2 POP POP JUMP JUMPDEST PUSH2 0x492 DUP2 PUSH2 0x622 JUMP JUMPDEST DUP3 MSTORE POP POP JUMP JUMPDEST PUSH2 0x4A1 DUP2 PUSH2 0x62E JUMP JUMPDEST DUP3 MSTORE POP POP JUMP JUMPDEST PUSH2 0x4B0 DUP2 PUSH2 0x62E JUMP JUMPDEST DUP3 MSTORE POP POP JUMP JUMPDEST PUSH1 0x0 PUSH1 0x20 DUP3 ADD SWAP1 POP DUP2 DUP2 SUB PUSH1 0x0 DUP4 ADD MSTORE PUSH2 0x4D0 DUP2 DUP5 PUSH2 0x42B JUMP JUMPDEST SWAP1 POP SWAP3 SWAP2 POP POP JUMP JUMPDEST PUSH1 0x0 PUSH1 0x20 DUP3 ADD SWAP1 POP PUSH2 0x4ED PUSH1 0x0 DUP4 ADD DUP5 PUSH2 0x489 JUMP JUMPDEST SWAP3 SWAP2 POP POP JUMP JUMPDEST PUSH1 0x0 PUSH1 0x20 DUP3 ADD SWAP1 POP PUSH2 0x508 PUSH1 0x0 DUP4 ADD DUP5 PUSH2 0x4A7 JUMP JUMPDEST SWAP3 SWAP2 POP POP JUMP JUMPDEST PUSH1 0x0 PUSH2 0x518 PUSH2 0x529 JUMP JUMPDEST SWAP1 POP PUSH2 0x524 DUP3 DUP3 PUSH2 0x662 JUMP JUMPDEST SWAP2 SWAP1 POP JUMP JUMPDEST PUSH1 0x0 PUSH1 0x40 MLOAD SWAP1 POP SWAP1 JUMP JUMPDEST PUSH1 0x0 PUSH8 0xFFFFFFFFFFFFFFFF DUP3 GT ISZERO PUSH2 0x54E JUMPI PUSH2 0x54D PUSH2 0x73A JUMP JUMPDEST JUMPDEST PUSH1 0x20 DUP3 MUL SWAP1 POP PUSH1 0x20 DUP2 ADD SWAP1 POP SWAP2 SWAP1 POP JUMP JUMPDEST PUSH1 0x0 DUP2 SWAP1 POP PUSH1 0x20 DUP3 ADD SWAP1 POP SWAP2 SWAP1 POP JUMP JUMPDEST PUSH1 0x0 DUP2 MLOAD SWAP1 POP SWAP2 SWAP1 POP JUMP JUMPDEST PUSH1 0x0 PUSH1 0x20 DUP3 ADD SWAP1 POP SWAP2 SWAP1 POP JUMP JUMPDEST PUSH1 0x0 DUP3 DUP3 MSTORE PUSH1 0x20 DUP3 ADD SWAP1 POP SWAP3 SWAP2 POP POP JUMP JUMPDEST PUSH1 0x0 PUSH2 0x5A3 DUP3 PUSH2 0x62E JUMP JUMPDEST SWAP2 POP PUSH2 0x5AE DUP4 PUSH2 0x62E JUMP JUMPDEST SWAP3 POP DUP3 PUSH32 0xFFFFFFFFFFFFFFFFFFFFFFFFFFFFFFFFFFFFFFFFFFFFFFFFFFFFFFFFFFFFFFFF SUB DUP3 GT ISZERO PUSH2 0x5E3 JUMPI PUSH2 0x5E2 PUSH2 0x6DC JUMP JUMPDEST JUMPDEST DUP3 DUP3 ADD SWAP1 POP SWAP3 SWAP2 POP POP JUMP JUMPDEST PUSH1 0x0 PUSH2 0x5F9 DUP3 PUSH2 0x62E JUMP JUMPDEST SWAP2 POP PUSH2 0x604 DUP4 PUSH2 0x62E JUMP JUMPDEST SWAP3 POP DUP3 DUP3 LT ISZERO PUSH2 0x617 JUMPI PUSH2 0x616 PUSH2 0x6DC JUMP JUMPDEST JUMPDEST DUP3 DUP3 SUB SWAP1 POP SWAP3 SWAP2 POP POP JUMP JUMPDEST PUSH1 0x0 DUP2 ISZERO ISZERO SWAP1 POP SWAP2 SWAP1 POP JUMP JUMPDEST PUSH1 0x0 DUP2 SWAP1 POP SWAP2 SWAP1 POP JUMP JUMPDEST PUSH1 0x0 PUSH2 0x643 DUP3 PUSH2 0x62E JUMP JUMPDEST SWAP2 POP PUSH1 0x0 DUP3 EQ ISZERO PUSH2 0x657 JUMPI PUSH2 0x656 PUSH2 0x6DC JUMP JUMPDEST JUMPDEST PUSH1 0x1 DUP3 SUB SWAP1 POP SWAP2 SWAP1 POP JUMP JUMPDEST PUSH2 0x66B DUP3 PUSH2 0x77D JUMP JUMPDEST DUP2 ADD DUP2 DUP2 LT PUSH8 0xFFFFFFFFFFFFFFFF DUP3 GT OR ISZERO PUSH2 0x68A JUMPI PUSH2 0x689 PUSH2 0x73A JUMP JUMPDEST JUMPDEST DUP1 PUSH1 0x40 MSTORE POP POP POP JUMP JUMPDEST PUSH1 0x0 PUSH2 0x69E DUP3 PUSH2 0x62E JUMP JUMPDEST SWAP2 POP PUSH32 0xFFFFFFFFFFFFFFFFFFFFFFFFFFFFFFFFFFFFFFFFFFFFFFFFFFFFFFFFFFFFFFFF DUP3 EQ ISZERO PUSH2 0x6D1 JUMPI PUSH2 0x6D0 PUSH2 0x6DC JUMP JUMPDEST JUMPDEST PUSH1 0x1 DUP3 ADD SWAP1 POP SWAP2 SWAP1 POP JUMP JUMPDEST PUSH32 0x4E487B7100000000000000000000000000000000000000000000000000000000 PUSH1 0x0 MSTORE PUSH1 0x11 PUSH1 0x4 MSTORE PUSH1 0x24 PUSH1 0x0 REVERT JUMPDEST PUSH32 0x4E487B7100000000000000000000000000000000000000000000000000000000 PUSH1 0x0 MSTORE PUSH1 0x32 PUSH1 0x4 MSTORE PUSH1 0x24 PUSH1 0x0 REVERT JUMPDEST PUSH32 0x4E487B7100000000000000000000000000000000000000000000000000000000 PUSH1 0x0 MSTORE PUSH1 0x41 PUSH1 0x4 MSTORE PUSH1 0x24 PUSH1 0x0 REVERT JUMPDEST PUSH1 0x0 DUP1 REVERT JUMPDEST PUSH1 0x0 DUP1 REVERT JUMPDEST PUSH1 0x0 DUP1 REVERT JUMPDEST PUSH1 0x0 DUP1 REVERT JUMPDEST PUSH1 0x0 PUSH1 0x1F NOT PUSH1 0x1F DUP4 ADD AND SWAP1 POP SWAP2 SWAP1 POP JUMP JUMPDEST PUSH2 0x797 DUP2 PUSH2 0x62E JUMP JUMPDEST DUP2 EQ PUSH2 0x7A2 JUMPI PUSH1 0x0 DUP1 REVERT JUMPDEST POP JUMP INVALID LOG2 PUSH5 0x6970667358 0x22 SLT KECCAK256 RETURN 0xB1 PUSH25 0x6D639BEB06186C59CB19029F3070FD4923091DEDDBEA696173 BALANCE SWAP14 0xD 0x5E PUSH5 0x736F6C6343 STOP ADDMOD SMOD STOP CALLER "
				},
				"gasEstimates": {
					"creation": {
						"codeDepositCost": "402200",
						"executionCost": "436",
						"totalCost": "402636"
					},
					"external": {
						"doWhileTest()": "infinite",
						"forLoopTest()": "infinite",
						"ifElseTest(uint256)": "689",
						"insertionSort(uint256[])": "infinite",
						"whileTest()": "infinite"
					}
				},
				"methodIdentifiers": {
					"doWhileTest()": "2bbacaaa",
					"forLoopTest()": "b0cfa9fc",
					"ifElseTest(uint256)": "7141fb00",
					"insertionSort(uint256[])": "6297206f",
					"whileTest()": "5d14639d"
				}
			},
			"storageLayout": {
				"storage": [],
				"types": null
			},
			"userdoc": {
				"kind": "user",
				"methods": {},
				"version": 1
			}
		}
	}
}