{
	"remix/010/if-Else.sol": {
		"IfElse": {
			"abi": [
				{
					"inputs": [],
					"name": "forLoopTest",
					"outputs": [
						{
							"internalType": "uint256",
							"name": "",
							"type": "uint256"
						}
					],
					"stateMutability": "pure",
					"type": "function"
				},
				{
					"inputs": [
						{
							"internalType": "uint256",
							"name": "_number",
							"type": "uint256"
						}
					],
					"name": "ifElseTest",
					"outputs": [
						{
							"internalType": "bool",
							"name": "",
							"type": "bool"
						}
					],
					"stateMutability": "pure",
					"type": "function"
				},
				{
					"inputs": [],
					"name": "whileTest",
					"outputs": [
						{
							"internalType": "uint256",
							"name": "",
							"type": "uint256"
						}
					],
					"stateMutability": "pure",
					"type": "function"
				}
			],
			"devdoc": {
				"kind": "dev",
				"methods": {},
				"version": 1
			},
			"evm": {
				"assembly": "    /* \"remix/010/if-Else.sol\":27:620  contract IfElse{\r... */\n  mstore(0x40, 0x80)\n  callvalue\n  dup1\n  iszero\n  tag_1\n  jumpi\n  0x00\n  dup1\n  revert\ntag_1:\n  pop\n  dataSize(sub_0)\n  dup1\n  dataOffset(sub_0)\n  0x00\n  codecopy\n  0x00\n  return\nstop\n\nsub_0: assembly {\n        /* \"remix/010/if-Else.sol\":27:620  contract IfElse{\r... */\n      mstore(0x40, 0x80)\n      callvalue\n      dup1\n      iszero\n      tag_1\n      jumpi\n      0x00\n      dup1\n      revert\n    tag_1:\n      pop\n      jumpi(tag_2, lt(calldatasize, 0x04))\n      shr(0xe0, calldataload(0x00))\n      dup1\n      0x5d14639d\n      eq\n      tag_3\n      jumpi\n      dup1\n      0x7141fb00\n      eq\n      tag_4\n      jumpi\n      dup1\n      0xb0cfa9fc\n      eq\n      tag_5\n      jumpi\n    tag_2:\n      0x00\n      dup1\n      revert\n        /* \"remix/010/if-Else.sol\":414:611  function whileTest() public pure returns(uint256){\r... */\n    tag_3:\n      tag_6\n      tag_7\n      jump\t// in\n    tag_6:\n      mload(0x40)\n      tag_8\n      swap2\n      swap1\n      tag_9\n      jump\t// in\n    tag_8:\n      mload(0x40)\n      dup1\n      swap2\n      sub\n      swap1\n      return\n        /* \"remix/010/if-Else.sol\":49:228  function ifElseTest(uint256 _number) public pure returns(bool){\r... */\n    tag_4:\n      tag_10\n      0x04\n      dup1\n      calldatasize\n      sub\n      dup2\n      add\n      swap1\n      tag_11\n      swap2\n      swap1\n      tag_12\n      jump\t// in\n    tag_11:\n      tag_13\n      jump\t// in\n    tag_10:\n      mload(0x40)\n      tag_14\n      swap2\n      swap1\n      tag_15\n      jump\t// in\n    tag_14:\n      mload(0x40)\n      dup1\n      swap2\n      sub\n      swap1\n      return\n        /* \"remix/010/if-Else.sol\":236:408  function forLoopTest() public pure returns(uint256){\r... */\n    tag_5:\n      tag_16\n      tag_17\n      jump\t// in\n    tag_16:\n      mload(0x40)\n      tag_18\n      swap2\n      swap1\n      tag_9\n      jump\t// in\n    tag_18:\n      mload(0x40)\n      dup1\n      swap2\n      sub\n      swap1\n      return\n        /* \"remix/010/if-Else.sol\":414:611  function whileTest() public pure returns(uint256){\r... */\n    tag_7:\n        /* \"remix/010/if-Else.sol\":455:462  uint256 */\n      0x00\n        /* \"remix/010/if-Else.sol\":474:482  uint sum */\n      dup1\n        /* \"remix/010/if-Else.sol\":485:486  0 */\n      0x00\n        /* \"remix/010/if-Else.sol\":474:486  uint sum = 0 */\n      swap1\n      pop\n        /* \"remix/010/if-Else.sol\":497:503  uint i */\n      0x00\n        /* \"remix/010/if-Else.sol\":518:582  while(i < 10){\r... */\n    tag_20:\n        /* \"remix/010/if-Else.sol\":528:530  10 */\n      0x0a\n        /* \"remix/010/if-Else.sol\":524:525  i */\n      dup2\n        /* \"remix/010/if-Else.sol\":524:530  i < 10 */\n      lt\n        /* \"remix/010/if-Else.sol\":518:582  while(i < 10){\r... */\n      iszero\n      tag_21\n      jumpi\n        /* \"remix/010/if-Else.sol\":551:552  i */\n      dup1\n        /* \"remix/010/if-Else.sol\":546:552  sum+=i */\n      dup3\n      tag_22\n      swap2\n      swap1\n      tag_23\n      jump\t// in\n    tag_22:\n      swap2\n      pop\n        /* \"remix/010/if-Else.sol\":567:570  i++ */\n      dup1\n      dup1\n      tag_24\n      swap1\n      tag_25\n      jump\t// in\n    tag_24:\n      swap2\n      pop\n      pop\n        /* \"remix/010/if-Else.sol\":518:582  while(i < 10){\r... */\n      jump(tag_20)\n    tag_21:\n        /* \"remix/010/if-Else.sol\":599:602  sum */\n      dup2\n        /* \"remix/010/if-Else.sol\":592:603  return(sum) */\n      swap3\n      pop\n      pop\n      pop\n        /* \"remix/010/if-Else.sol\":414:611  function whileTest() public pure returns(uint256){\r... */\n      swap1\n      jump\t// out\n        /* \"remix/010/if-Else.sol\":49:228  function ifElseTest(uint256 _number) public pure returns(bool){\r... */\n    tag_13:\n        /* \"remix/010/if-Else.sol\":106:110  bool */\n      0x00\n        /* \"remix/010/if-Else.sol\":136:137  0 */\n      dup1\n        /* \"remix/010/if-Else.sol\":125:132  _number */\n      dup3\n        /* \"remix/010/if-Else.sol\":125:137  _number == 0 */\n      eq\n        /* \"remix/010/if-Else.sol\":122:221  if(_number == 0){\r... */\n      iszero\n      tag_27\n      jumpi\n        /* \"remix/010/if-Else.sol\":160:164  true */\n      0x01\n        /* \"remix/010/if-Else.sol\":153:165  return(true) */\n      swap1\n      pop\n      jump(tag_26)\n        /* \"remix/010/if-Else.sol\":122:221  if(_number == 0){\r... */\n    tag_27:\n        /* \"remix/010/if-Else.sol\":203:208  false */\n      0x00\n        /* \"remix/010/if-Else.sol\":196:209  return(false) */\n      swap1\n      pop\n        /* \"remix/010/if-Else.sol\":49:228  function ifElseTest(uint256 _number) public pure returns(bool){\r... */\n    tag_26:\n      swap2\n      swap1\n      pop\n      jump\t// out\n        /* \"remix/010/if-Else.sol\":236:408  function forLoopTest() public pure returns(uint256){\r... */\n    tag_17:\n        /* \"remix/010/if-Else.sol\":279:286  uint256 */\n      0x00\n        /* \"remix/010/if-Else.sol\":298:306  uint sum */\n      dup1\n        /* \"remix/010/if-Else.sol\":310:311  0 */\n      0x00\n        /* \"remix/010/if-Else.sol\":298:311  uint sum  = 0 */\n      swap1\n      pop\n        /* \"remix/010/if-Else.sol\":326:332  uint i */\n      0x00\n        /* \"remix/010/if-Else.sol\":322:379  for(uint i = 0;i<10;i++){\r... */\n    tag_30:\n        /* \"remix/010/if-Else.sol\":339:341  10 */\n      0x0a\n        /* \"remix/010/if-Else.sol\":337:338  i */\n      dup2\n        /* \"remix/010/if-Else.sol\":337:341  i<10 */\n      lt\n        /* \"remix/010/if-Else.sol\":322:379  for(uint i = 0;i<10;i++){\r... */\n      iszero\n      tag_31\n      jumpi\n        /* \"remix/010/if-Else.sol\":366:367  i */\n      dup1\n        /* \"remix/010/if-Else.sol\":361:367  sum+=i */\n      dup3\n      tag_33\n      swap2\n      swap1\n      tag_23\n      jump\t// in\n    tag_33:\n      swap2\n      pop\n        /* \"remix/010/if-Else.sol\":342:345  i++ */\n      dup1\n      dup1\n      tag_34\n      swap1\n      tag_25\n      jump\t// in\n    tag_34:\n      swap2\n      pop\n      pop\n        /* \"remix/010/if-Else.sol\":322:379  for(uint i = 0;i<10;i++){\r... */\n      jump(tag_30)\n    tag_31:\n      pop\n        /* \"remix/010/if-Else.sol\":396:399  sum */\n      dup1\n        /* \"remix/010/if-Else.sol\":389:400  return(sum) */\n      swap2\n      pop\n      pop\n        /* \"remix/010/if-Else.sol\":236:408  function forLoopTest() public pure returns(uint256){\r... */\n      swap1\n      jump\t// out\n        /* \"#utility.yul\":7:146   */\n    tag_36:\n        /* \"#utility.yul\":53:58   */\n      0x00\n        /* \"#utility.yul\":91:97   */\n      dup2\n        /* \"#utility.yul\":78:98   */\n      calldataload\n        /* \"#utility.yul\":69:98   */\n      swap1\n      pop\n        /* \"#utility.yul\":107:140   */\n      tag_38\n        /* \"#utility.yul\":134:139   */\n      dup2\n        /* \"#utility.yul\":107:140   */\n      tag_39\n      jump\t// in\n    tag_38:\n        /* \"#utility.yul\":7:146   */\n      swap3\n      swap2\n      pop\n      pop\n      jump\t// out\n        /* \"#utility.yul\":152:481   */\n    tag_12:\n        /* \"#utility.yul\":211:217   */\n      0x00\n        /* \"#utility.yul\":260:262   */\n      0x20\n        /* \"#utility.yul\":248:257   */\n      dup3\n        /* \"#utility.yul\":239:246   */\n      dup5\n        /* \"#utility.yul\":235:258   */\n      sub\n        /* \"#utility.yul\":231:263   */\n      slt\n        /* \"#utility.yul\":228:347   */\n      iszero\n      tag_41\n      jumpi\n        /* \"#utility.yul\":266:345   */\n      tag_42\n      tag_43\n      jump\t// in\n    tag_42:\n        /* \"#utility.yul\":228:347   */\n    tag_41:\n        /* \"#utility.yul\":386:387   */\n      0x00\n        /* \"#utility.yul\":411:464   */\n      tag_44\n        /* \"#utility.yul\":456:463   */\n      dup5\n        /* \"#utility.yul\":447:453   */\n      dup3\n        /* \"#utility.yul\":436:445   */\n      dup6\n        /* \"#utility.yul\":432:454   */\n      add\n        /* \"#utility.yul\":411:464   */\n      tag_36\n      jump\t// in\n    tag_44:\n        /* \"#utility.yul\":401:464   */\n      swap2\n      pop\n        /* \"#utility.yul\":357:474   */\n      pop\n        /* \"#utility.yul\":152:481   */\n      swap3\n      swap2\n      pop\n      pop\n      jump\t// out\n        /* \"#utility.yul\":487:596   */\n    tag_45:\n        /* \"#utility.yul\":568:589   */\n      tag_47\n        /* \"#utility.yul\":583:588   */\n      dup2\n        /* \"#utility.yul\":568:589   */\n      tag_48\n      jump\t// in\n    tag_47:\n        /* \"#utility.yul\":563:566   */\n      dup3\n        /* \"#utility.yul\":556:590   */\n      mstore\n        /* \"#utility.yul\":487:596   */\n      pop\n      pop\n      jump\t// out\n        /* \"#utility.yul\":602:720   */\n    tag_49:\n        /* \"#utility.yul\":689:713   */\n      tag_51\n        /* \"#utility.yul\":707:712   */\n      dup2\n        /* \"#utility.yul\":689:713   */\n      tag_52\n      jump\t// in\n    tag_51:\n        /* \"#utility.yul\":684:687   */\n      dup3\n        /* \"#utility.yul\":677:714   */\n      mstore\n        /* \"#utility.yul\":602:720   */\n      pop\n      pop\n      jump\t// out\n        /* \"#utility.yul\":726:936   */\n    tag_15:\n        /* \"#utility.yul\":813:817   */\n      0x00\n        /* \"#utility.yul\":851:853   */\n      0x20\n        /* \"#utility.yul\":840:849   */\n      dup3\n        /* \"#utility.yul\":836:854   */\n      add\n        /* \"#utility.yul\":828:854   */\n      swap1\n      pop\n        /* \"#utility.yul\":864:929   */\n      tag_54\n        /* \"#utility.yul\":926:927   */\n      0x00\n        /* \"#utility.yul\":915:924   */\n      dup4\n        /* \"#utility.yul\":911:928   */\n      add\n        /* \"#utility.yul\":902:908   */\n      dup5\n        /* \"#utility.yul\":864:929   */\n      tag_45\n      jump\t// in\n    tag_54:\n        /* \"#utility.yul\":726:936   */\n      swap3\n      swap2\n      pop\n      pop\n      jump\t// out\n        /* \"#utility.yul\":942:1164   */\n    tag_9:\n        /* \"#utility.yul\":1035:1039   */\n      0x00\n        /* \"#utility.yul\":1073:1075   */\n      0x20\n        /* \"#utility.yul\":1062:1071   */\n      dup3\n        /* \"#utility.yul\":1058:1076   */\n      add\n        /* \"#utility.yul\":1050:1076   */\n      swap1\n      pop\n        /* \"#utility.yul\":1086:1157   */\n      tag_56\n        /* \"#utility.yul\":1154:1155   */\n      0x00\n        /* \"#utility.yul\":1143:1152   */\n      dup4\n        /* \"#utility.yul\":1139:1156   */\n      add\n        /* \"#utility.yul\":1130:1136   */\n      dup5\n        /* \"#utility.yul\":1086:1157   */\n      tag_49\n      jump\t// in\n    tag_56:\n        /* \"#utility.yul\":942:1164   */\n      swap3\n      swap2\n      pop\n      pop\n      jump\t// out\n        /* \"#utility.yul\":1251:1556   */\n    tag_23:\n        /* \"#utility.yul\":1291:1294   */\n      0x00\n        /* \"#utility.yul\":1310:1330   */\n      tag_60\n        /* \"#utility.yul\":1328:1329   */\n      dup3\n        /* \"#utility.yul\":1310:1330   */\n      tag_52\n      jump\t// in\n    tag_60:\n        /* \"#utility.yul\":1305:1330   */\n      swap2\n      pop\n        /* \"#utility.yul\":1344:1364   */\n      tag_61\n        /* \"#utility.yul\":1362:1363   */\n      dup4\n        /* \"#utility.yul\":1344:1364   */\n      tag_52\n      jump\t// in\n    tag_61:\n        /* \"#utility.yul\":1339:1364   */\n      swap3\n      pop\n        /* \"#utility.yul\":1498:1499   */\n      dup3\n        /* \"#utility.yul\":1430:1496   */\n      0xffffffffffffffffffffffffffffffffffffffffffffffffffffffffffffffff\n        /* \"#utility.yul\":1426:1500   */\n      sub\n        /* \"#utility.yul\":1423:1424   */\n      dup3\n        /* \"#utility.yul\":1420:1501   */\n      gt\n        /* \"#utility.yul\":1417:1524   */\n      iszero\n      tag_62\n      jumpi\n        /* \"#utility.yul\":1504:1522   */\n      tag_63\n      tag_64\n      jump\t// in\n    tag_63:\n        /* \"#utility.yul\":1417:1524   */\n    tag_62:\n        /* \"#utility.yul\":1548:1549   */\n      dup3\n        /* \"#utility.yul\":1545:1546   */\n      dup3\n        /* \"#utility.yul\":1541:1550   */\n      add\n        /* \"#utility.yul\":1534:1550   */\n      swap1\n      pop\n        /* \"#utility.yul\":1251:1556   */\n      swap3\n      swap2\n      pop\n      pop\n      jump\t// out\n        /* \"#utility.yul\":1562:1652   */\n    tag_48:\n        /* \"#utility.yul\":1596:1603   */\n      0x00\n        /* \"#utility.yul\":1639:1644   */\n      dup2\n        /* \"#utility.yul\":1632:1645   */\n      iszero\n        /* \"#utility.yul\":1625:1646   */\n      iszero\n        /* \"#utility.yul\":1614:1646   */\n      swap1\n      pop\n        /* \"#utility.yul\":1562:1652   */\n      swap2\n      swap1\n      pop\n      jump\t// out\n        /* \"#utility.yul\":1658:1735   */\n    tag_52:\n        /* \"#utility.yul\":1695:1702   */\n      0x00\n        /* \"#utility.yul\":1724:1729   */\n      dup2\n        /* \"#utility.yul\":1713:1729   */\n      swap1\n      pop\n        /* \"#utility.yul\":1658:1735   */\n      swap2\n      swap1\n      pop\n      jump\t// out\n        /* \"#utility.yul\":1741:1974   */\n    tag_25:\n        /* \"#utility.yul\":1780:1783   */\n      0x00\n        /* \"#utility.yul\":1803:1827   */\n      tag_68\n        /* \"#utility.yul\":1821:1826   */\n      dup3\n        /* \"#utility.yul\":1803:1827   */\n      tag_52\n      jump\t// in\n    tag_68:\n        /* \"#utility.yul\":1794:1827   */\n      swap2\n      pop\n        /* \"#utility.yul\":1849:1915   */\n      0xffffffffffffffffffffffffffffffffffffffffffffffffffffffffffffffff\n        /* \"#utility.yul\":1842:1847   */\n      dup3\n        /* \"#utility.yul\":1839:1916   */\n      eq\n        /* \"#utility.yul\":1836:1939   */\n      iszero\n      tag_69\n      jumpi\n        /* \"#utility.yul\":1919:1937   */\n      tag_70\n      tag_64\n      jump\t// in\n    tag_70:\n        /* \"#utility.yul\":1836:1939   */\n    tag_69:\n        /* \"#utility.yul\":1966:1967   */\n      0x01\n        /* \"#utility.yul\":1959:1964   */\n      dup3\n        /* \"#utility.yul\":1955:1968   */\n      add\n        /* \"#utility.yul\":1948:1968   */\n      swap1\n      pop\n        /* \"#utility.yul\":1741:1974   */\n      swap2\n      swap1\n      pop\n      jump\t// out\n        /* \"#utility.yul\":1980:2160   */\n    tag_64:\n        /* \"#utility.yul\":2028:2105   */\n      0x4e487b7100000000000000000000000000000000000000000000000000000000\n        /* \"#utility.yul\":2025:2026   */\n      0x00\n        /* \"#utility.yul\":2018:2106   */\n      mstore\n        /* \"#utility.yul\":2125:2129   */\n      0x11\n        /* \"#utility.yul\":2122:2123   */\n      0x04\n        /* \"#utility.yul\":2115:2130   */\n      mstore\n        /* \"#utility.yul\":2149:2153   */\n      0x24\n        /* \"#utility.yul\":2146:2147   */\n      0x00\n        /* \"#utility.yul\":2139:2154   */\n      revert\n        /* \"#utility.yul\":2289:2406   */\n    tag_43:\n        /* \"#utility.yul\":2398:2399   */\n      0x00\n        /* \"#utility.yul\":2395:2396   */\n      dup1\n        /* \"#utility.yul\":2388:2400   */\n      revert\n        /* \"#utility.yul\":2412:2534   */\n    tag_39:\n        /* \"#utility.yul\":2485:2509   */\n      tag_76\n        /* \"#utility.yul\":2503:2508   */\n      dup2\n        /* \"#utility.yul\":2485:2509   */\n      tag_52\n      jump\t// in\n    tag_76:\n        /* \"#utility.yul\":2478:2483   */\n      dup2\n        /* \"#utility.yul\":2475:2510   */\n      eq\n        /* \"#utility.yul\":2465:2528   */\n      tag_77\n      jumpi\n        /* \"#utility.yul\":2524:2525   */\n      0x00\n        /* \"#utility.yul\":2521:2522   */\n      dup1\n        /* \"#utility.yul\":2514:2526   */\n      revert\n        /* \"#utility.yul\":2465:2528   */\n    tag_77:\n        /* \"#utility.yul\":2412:2534   */\n      pop\n      jump\t// out\n\n    auxdata: 0xa2646970667358221220bfb70182c707823a959262cd0c7b6f39e207349850cc63ce8261d17ceca3d5de64736f6c63430008070033\n}\n",
				"bytecode": {
					"linkReferences": {},
					"object": "608060405234801561001057600080fd5b50610313806100206000396000f3fe608060405234801561001057600080fd5b50600436106100415760003560e01c80635d14639d146100465780637141fb0014610064578063b0cfa9fc14610094575b600080fd5b61004e6100b2565b60405161005b91906101c2565b60405180910390f35b61007e6004803603810190610079919061015c565b6100ee565b60405161008b91906101a7565b60405180910390f35b61009c61010b565b6040516100a991906101c2565b60405180910390f35b6000806000905060005b600a8110156100e65780826100d191906101dd565b915080806100de90610249565b9150506100bc565b819250505090565b6000808214156101015760019050610106565b600090505b919050565b6000806000905060005b600a81101561013f57808261012a91906101dd565b9150808061013790610249565b915050610115565b508091505090565b600081359050610156816102c6565b92915050565b600060208284031215610172576101716102c1565b5b600061018084828501610147565b91505092915050565b61019281610233565b82525050565b6101a18161023f565b82525050565b60006020820190506101bc6000830184610189565b92915050565b60006020820190506101d76000830184610198565b92915050565b60006101e88261023f565b91506101f38361023f565b9250827fffffffffffffffffffffffffffffffffffffffffffffffffffffffffffffffff0382111561022857610227610292565b5b828201905092915050565b60008115159050919050565b6000819050919050565b60006102548261023f565b91507fffffffffffffffffffffffffffffffffffffffffffffffffffffffffffffffff82141561028757610286610292565b5b600182019050919050565b7f4e487b7100000000000000000000000000000000000000000000000000000000600052601160045260246000fd5b600080fd5b6102cf8161023f565b81146102da57600080fd5b5056fea2646970667358221220bfb70182c707823a959262cd0c7b6f39e207349850cc63ce8261d17ceca3d5de64736f6c63430008070033",
					"opcodes": "PUSH1 0x80 PUSH1 0x40 MSTORE CALLVALUE DUP1 ISZERO PUSH2 0x10 JUMPI PUSH1 0x0 DUP1 REVERT JUMPDEST POP PUSH2 0x313 DUP1 PUSH2 0x20 PUSH1 0x0 CODECOPY PUSH1 0x0 RETURN INVALID PUSH1 0x80 PUSH1 0x40 MSTORE CALLVALUE DUP1 ISZERO PUSH2 0x10 JUMPI PUSH1 0x0 DUP1 REVERT JUMPDEST POP PUSH1 0x4 CALLDATASIZE LT PUSH2 0x41 JUMPI PUSH1 0x0 CALLDATALOAD PUSH1 0xE0 SHR DUP1 PUSH4 0x5D14639D EQ PUSH2 0x46 JUMPI DUP1 PUSH4 0x7141FB00 EQ PUSH2 0x64 JUMPI DUP1 PUSH4 0xB0CFA9FC EQ PUSH2 0x94 JUMPI JUMPDEST PUSH1 0x0 DUP1 REVERT JUMPDEST PUSH2 0x4E PUSH2 0xB2 JUMP JUMPDEST PUSH1 0x40 MLOAD PUSH2 0x5B SWAP2 SWAP1 PUSH2 0x1C2 JUMP JUMPDEST PUSH1 0x40 MLOAD DUP1 SWAP2 SUB SWAP1 RETURN JUMPDEST PUSH2 0x7E PUSH1 0x4 DUP1 CALLDATASIZE SUB DUP2 ADD SWAP1 PUSH2 0x79 SWAP2 SWAP1 PUSH2 0x15C JUMP JUMPDEST PUSH2 0xEE JUMP JUMPDEST PUSH1 0x40 MLOAD PUSH2 0x8B SWAP2 SWAP1 PUSH2 0x1A7 JUMP JUMPDEST PUSH1 0x40 MLOAD DUP1 SWAP2 SUB SWAP1 RETURN JUMPDEST PUSH2 0x9C PUSH2 0x10B JUMP JUMPDEST PUSH1 0x40 MLOAD PUSH2 0xA9 SWAP2 SWAP1 PUSH2 0x1C2 JUMP JUMPDEST PUSH1 0x40 MLOAD DUP1 SWAP2 SUB SWAP1 RETURN JUMPDEST PUSH1 0x0 DUP1 PUSH1 0x0 SWAP1 POP PUSH1 0x0 JUMPDEST PUSH1 0xA DUP2 LT ISZERO PUSH2 0xE6 JUMPI DUP1 DUP3 PUSH2 0xD1 SWAP2 SWAP1 PUSH2 0x1DD JUMP JUMPDEST SWAP2 POP DUP1 DUP1 PUSH2 0xDE SWAP1 PUSH2 0x249 JUMP JUMPDEST SWAP2 POP POP PUSH2 0xBC JUMP JUMPDEST DUP2 SWAP3 POP POP POP SWAP1 JUMP JUMPDEST PUSH1 0x0 DUP1 DUP3 EQ ISZERO PUSH2 0x101 JUMPI PUSH1 0x1 SWAP1 POP PUSH2 0x106 JUMP JUMPDEST PUSH1 0x0 SWAP1 POP JUMPDEST SWAP2 SWAP1 POP JUMP JUMPDEST PUSH1 0x0 DUP1 PUSH1 0x0 SWAP1 POP PUSH1 0x0 JUMPDEST PUSH1 0xA DUP2 LT ISZERO PUSH2 0x13F JUMPI DUP1 DUP3 PUSH2 0x12A SWAP2 SWAP1 PUSH2 0x1DD JUMP JUMPDEST SWAP2 POP DUP1 DUP1 PUSH2 0x137 SWAP1 PUSH2 0x249 JUMP JUMPDEST SWAP2 POP POP PUSH2 0x115 JUMP JUMPDEST POP DUP1 SWAP2 POP POP SWAP1 JUMP JUMPDEST PUSH1 0x0 DUP2 CALLDATALOAD SWAP1 POP PUSH2 0x156 DUP2 PUSH2 0x2C6 JUMP JUMPDEST SWAP3 SWAP2 POP POP JUMP JUMPDEST PUSH1 0x0 PUSH1 0x20 DUP3 DUP5 SUB SLT ISZERO PUSH2 0x172 JUMPI PUSH2 0x171 PUSH2 0x2C1 JUMP JUMPDEST JUMPDEST PUSH1 0x0 PUSH2 0x180 DUP5 DUP3 DUP6 ADD PUSH2 0x147 JUMP JUMPDEST SWAP2 POP POP SWAP3 SWAP2 POP POP JUMP JUMPDEST PUSH2 0x192 DUP2 PUSH2 0x233 JUMP JUMPDEST DUP3 MSTORE POP POP JUMP JUMPDEST PUSH2 0x1A1 DUP2 PUSH2 0x23F JUMP JUMPDEST DUP3 MSTORE POP POP JUMP JUMPDEST PUSH1 0x0 PUSH1 0x20 DUP3 ADD SWAP1 POP PUSH2 0x1BC PUSH1 0x0 DUP4 ADD DUP5 PUSH2 0x189 JUMP JUMPDEST SWAP3 SWAP2 POP POP JUMP JUMPDEST PUSH1 0x0 PUSH1 0x20 DUP3 ADD SWAP1 POP PUSH2 0x1D7 PUSH1 0x0 DUP4 ADD DUP5 PUSH2 0x198 JUMP JUMPDEST SWAP3 SWAP2 POP POP JUMP JUMPDEST PUSH1 0x0 PUSH2 0x1E8 DUP3 PUSH2 0x23F JUMP JUMPDEST SWAP2 POP PUSH2 0x1F3 DUP4 PUSH2 0x23F JUMP JUMPDEST SWAP3 POP DUP3 PUSH32 0xFFFFFFFFFFFFFFFFFFFFFFFFFFFFFFFFFFFFFFFFFFFFFFFFFFFFFFFFFFFFFFFF SUB DUP3 GT ISZERO PUSH2 0x228 JUMPI PUSH2 0x227 PUSH2 0x292 JUMP JUMPDEST JUMPDEST DUP3 DUP3 ADD SWAP1 POP SWAP3 SWAP2 POP POP JUMP JUMPDEST PUSH1 0x0 DUP2 ISZERO ISZERO SWAP1 POP SWAP2 SWAP1 POP JUMP JUMPDEST PUSH1 0x0 DUP2 SWAP1 POP SWAP2 SWAP1 POP JUMP JUMPDEST PUSH1 0x0 PUSH2 0x254 DUP3 PUSH2 0x23F JUMP JUMPDEST SWAP2 POP PUSH32 0xFFFFFFFFFFFFFFFFFFFFFFFFFFFFFFFFFFFFFFFFFFFFFFFFFFFFFFFFFFFFFFFF DUP3 EQ ISZERO PUSH2 0x287 JUMPI PUSH2 0x286 PUSH2 0x292 JUMP JUMPDEST JUMPDEST PUSH1 0x1 DUP3 ADD SWAP1 POP SWAP2 SWAP1 POP JUMP JUMPDEST PUSH32 0x4E487B7100000000000000000000000000000000000000000000000000000000 PUSH1 0x0 MSTORE PUSH1 0x11 PUSH1 0x4 MSTORE PUSH1 0x24 PUSH1 0x0 REVERT JUMPDEST PUSH1 0x0 DUP1 REVERT JUMPDEST PUSH2 0x2CF DUP2 PUSH2 0x23F JUMP JUMPDEST DUP2 EQ PUSH2 0x2DA JUMPI PUSH1 0x0 DUP1 REVERT JUMPDEST POP JUMP INVALID LOG2 PUSH5 0x6970667358 0x22 SLT KECCAK256 0xBF 0xB7 ADD DUP3 0xC7 SMOD DUP3 GASPRICE SWAP6 SWAP3 PUSH3 0xCD0C7B PUSH16 0x39E207349850CC63CE8261D17CECA3D5 0xDE PUSH5 0x736F6C6343 STOP ADDMOD SMOD STOP CALLER "
				},
				"gasEstimates": {
					"creation": {
						"codeDepositCost": "157400",
						"executionCost": "202",
						"totalCost": "157602"
					},
					"external": {
						"forLoopTest()": "infinite",
						"ifElseTest(uint256)": "645",
						"whileTest()": "infinite"
					}
				},
				"methodIdentifiers": {
					"forLoopTest()": "b0cfa9fc",
					"ifElseTest(uint256)": "7141fb00",
					"whileTest()": "5d14639d"
				}
			},
			"storageLayout": {
				"storage": [],
				"types": null
			},
			"userdoc": {
				"kind": "user",
				"methods": {},
				"version": 1
			}
		}
	}
}