{
	"data": {
		"bytecode": {
			"linkReferences": {},
			"object": "6101006040526402540be3ff60809081525034801561001d57600080fd5b503073ffffffffffffffffffffffffffffffffffffffff1660a08173ffffffffffffffffffffffffffffffffffffffff1660601b815250504360c0818152505061006b61007760201b60201c565b60e08181525050610085565b600080600990508091505090565b60805160a05160601c60c05160e0516102846100c160003960006101460152600061011d0152600061018e0152600061016a01526102846000f3fe608060405234801561001057600080fd5b50600436106100625760003560e01c80631d9afdd2146100675780632314d48c146100855780634064572e146100a3578063ed7ff875146100c1578063f1513021146100df578063f8a8fd6d146100fd575b600080fd5b61006f61011b565b60405161007c91906101f7565b60405180910390f35b61008d61013f565b60405161009a91906101f7565b60405180910390f35b6100ab610144565b6040516100b891906101f7565b60405180910390f35b6100c9610168565b6040516100d691906101f7565b60405180910390f35b6100e761018c565b6040516100f491906101dc565b60405180910390f35b6101056101b0565b60405161011291906101f7565b60405180910390f35b7f000000000000000000000000000000000000000000000000000000000000000081565b600a81565b7f000000000000000000000000000000000000000000000000000000000000000081565b7f000000000000000000000000000000000000000000000000000000000000000081565b7f000000000000000000000000000000000000000000000000000000000000000081565b600080600990508091505090565b6101c781610212565b82525050565b6101d681610244565b82525050565b60006020820190506101f160008301846101be565b92915050565b600060208201905061020c60008301846101cd565b92915050565b600061021d82610224565b9050919050565b600073ffffffffffffffffffffffffffffffffffffffff82169050919050565b600081905091905056fea264697066735822122045ddbd3641f84bb09b9b1481f86156bfd09d2701aa1b1b5c2f541d28924147ea64736f6c63430008070033",
			"opcodes": "PUSH2 0x100 PUSH1 0x40 MSTORE PUSH5 0x2540BE3FF PUSH1 0x80 SWAP1 DUP2 MSTORE POP CALLVALUE DUP1 ISZERO PUSH2 0x1D JUMPI PUSH1 0x0 DUP1 REVERT JUMPDEST POP ADDRESS PUSH20 0xFFFFFFFFFFFFFFFFFFFFFFFFFFFFFFFFFFFFFFFF AND PUSH1 0xA0 DUP2 PUSH20 0xFFFFFFFFFFFFFFFFFFFFFFFFFFFFFFFFFFFFFFFF AND PUSH1 0x60 SHL DUP2 MSTORE POP POP NUMBER PUSH1 0xC0 DUP2 DUP2 MSTORE POP POP PUSH2 0x6B PUSH2 0x77 PUSH1 0x20 SHL PUSH1 0x20 SHR JUMP JUMPDEST PUSH1 0xE0 DUP2 DUP2 MSTORE POP POP PUSH2 0x85 JUMP JUMPDEST PUSH1 0x0 DUP1 PUSH1 0x9 SWAP1 POP DUP1 SWAP2 POP POP SWAP1 JUMP JUMPDEST PUSH1 0x80 MLOAD PUSH1 0xA0 MLOAD PUSH1 0x60 SHR PUSH1 0xC0 MLOAD PUSH1 0xE0 MLOAD PUSH2 0x284 PUSH2 0xC1 PUSH1 0x0 CODECOPY PUSH1 0x0 PUSH2 0x146 ADD MSTORE PUSH1 0x0 PUSH2 0x11D ADD MSTORE PUSH1 0x0 PUSH2 0x18E ADD MSTORE PUSH1 0x0 PUSH2 0x16A ADD MSTORE PUSH2 0x284 PUSH1 0x0 RETURN INVALID PUSH1 0x80 PUSH1 0x40 MSTORE CALLVALUE DUP1 ISZERO PUSH2 0x10 JUMPI PUSH1 0x0 DUP1 REVERT JUMPDEST POP PUSH1 0x4 CALLDATASIZE LT PUSH2 0x62 JUMPI PUSH1 0x0 CALLDATALOAD PUSH1 0xE0 SHR DUP1 PUSH4 0x1D9AFDD2 EQ PUSH2 0x67 JUMPI DUP1 PUSH4 0x2314D48C EQ PUSH2 0x85 JUMPI DUP1 PUSH4 0x4064572E EQ PUSH2 0xA3 JUMPI DUP1 PUSH4 0xED7FF875 EQ PUSH2 0xC1 JUMPI DUP1 PUSH4 0xF1513021 EQ PUSH2 0xDF JUMPI DUP1 PUSH4 0xF8A8FD6D EQ PUSH2 0xFD JUMPI JUMPDEST PUSH1 0x0 DUP1 REVERT JUMPDEST PUSH2 0x6F PUSH2 0x11B JUMP JUMPDEST PUSH1 0x40 MLOAD PUSH2 0x7C SWAP2 SWAP1 PUSH2 0x1F7 JUMP JUMPDEST PUSH1 0x40 MLOAD DUP1 SWAP2 SUB SWAP1 RETURN JUMPDEST PUSH2 0x8D PUSH2 0x13F JUMP JUMPDEST PUSH1 0x40 MLOAD PUSH2 0x9A SWAP2 SWAP1 PUSH2 0x1F7 JUMP JUMPDEST PUSH1 0x40 MLOAD DUP1 SWAP2 SUB SWAP1 RETURN JUMPDEST PUSH2 0xAB PUSH2 0x144 JUMP JUMPDEST PUSH1 0x40 MLOAD PUSH2 0xB8 SWAP2 SWAP1 PUSH2 0x1F7 JUMP JUMPDEST PUSH1 0x40 MLOAD DUP1 SWAP2 SUB SWAP1 RETURN JUMPDEST PUSH2 0xC9 PUSH2 0x168 JUMP JUMPDEST PUSH1 0x40 MLOAD PUSH2 0xD6 SWAP2 SWAP1 PUSH2 0x1F7 JUMP JUMPDEST PUSH1 0x40 MLOAD DUP1 SWAP2 SUB SWAP1 RETURN JUMPDEST PUSH2 0xE7 PUSH2 0x18C JUMP JUMPDEST PUSH1 0x40 MLOAD PUSH2 0xF4 SWAP2 SWAP1 PUSH2 0x1DC JUMP JUMPDEST PUSH1 0x40 MLOAD DUP1 SWAP2 SUB SWAP1 RETURN JUMPDEST PUSH2 0x105 PUSH2 0x1B0 JUMP JUMPDEST PUSH1 0x40 MLOAD PUSH2 0x112 SWAP2 SWAP1 PUSH2 0x1F7 JUMP JUMPDEST PUSH1 0x40 MLOAD DUP1 SWAP2 SUB SWAP1 RETURN JUMPDEST PUSH32 0x0 DUP2 JUMP JUMPDEST PUSH1 0xA DUP2 JUMP JUMPDEST PUSH32 0x0 DUP2 JUMP JUMPDEST PUSH32 0x0 DUP2 JUMP JUMPDEST PUSH32 0x0 DUP2 JUMP JUMPDEST PUSH1 0x0 DUP1 PUSH1 0x9 SWAP1 POP DUP1 SWAP2 POP POP SWAP1 JUMP JUMPDEST PUSH2 0x1C7 DUP2 PUSH2 0x212 JUMP JUMPDEST DUP3 MSTORE POP POP JUMP JUMPDEST PUSH2 0x1D6 DUP2 PUSH2 0x244 JUMP JUMPDEST DUP3 MSTORE POP POP JUMP JUMPDEST PUSH1 0x0 PUSH1 0x20 DUP3 ADD SWAP1 POP PUSH2 0x1F1 PUSH1 0x0 DUP4 ADD DUP5 PUSH2 0x1BE JUMP JUMPDEST SWAP3 SWAP2 POP POP JUMP JUMPDEST PUSH1 0x0 PUSH1 0x20 DUP3 ADD SWAP1 POP PUSH2 0x20C PUSH1 0x0 DUP4 ADD DUP5 PUSH2 0x1CD JUMP JUMPDEST SWAP3 SWAP2 POP POP JUMP JUMPDEST PUSH1 0x0 PUSH2 0x21D DUP3 PUSH2 0x224 JUMP JUMPDEST SWAP1 POP SWAP2 SWAP1 POP JUMP JUMPDEST PUSH1 0x0 PUSH20 0xFFFFFFFFFFFFFFFFFFFFFFFFFFFFFFFFFFFFFFFF DUP3 AND SWAP1 POP SWAP2 SWAP1 POP JUMP JUMPDEST PUSH1 0x0 DUP2 SWAP1 POP SWAP2 SWAP1 POP JUMP INVALID LOG2 PUSH5 0x6970667358 0x22 SLT KECCAK256 GASLIMIT 0xDD 0xBD CALLDATASIZE COINBASE 0xF8 0x4B 0xB0 SWAP12 SWAP12 EQ DUP2 0xF8 PUSH2 0x56BF 0xD0 SWAP14 0x27 ADD 0xAA SHL SHL 0x5C 0x2F SLOAD SAR 0x28 SWAP3 COINBASE SELFBALANCE 0xEA PUSH5 0x736F6C6343 STOP ADDMOD SMOD STOP CALLER "
		},
		"gasEstimates": {
			"creation": {
				"codeDepositCost": "128800",
				"executionCost": "infinite",
				"totalCost": "infinite"
			},
			"external": {
				"CONSTANT_NUM()": "329",
				"IMMUTABLE_ADDRESS()": "infinite",
				"IMMUTABLE_BLOCK()": "infinite",
				"IMMUTABLE_NUM()": "infinite",
				"IMMUTABLE_TEST()": "infinite",
				"test()": "438"
			}
		},
		"methodIdentifiers": {
			"CONSTANT_NUM()": "2314d48c",
			"IMMUTABLE_ADDRESS()": "f1513021",
			"IMMUTABLE_BLOCK()": "1d9afdd2",
			"IMMUTABLE_NUM()": "ed7ff875",
			"IMMUTABLE_TEST()": "4064572e",
			"test()": "f8a8fd6d"
		}
	},
	"abi": [
		{
			"inputs": [],
			"stateMutability": "nonpayable",
			"type": "constructor"
		},
		{
			"inputs": [],
			"name": "CONSTANT_NUM",
			"outputs": [
				{
					"internalType": "uint256",
					"name": "",
					"type": "uint256"
				}
			],
			"stateMutability": "view",
			"type": "function"
		},
		{
			"inputs": [],
			"name": "IMMUTABLE_ADDRESS",
			"outputs": [
				{
					"internalType": "address",
					"name": "",
					"type": "address"
				}
			],
			"stateMutability": "view",
			"type": "function"
		},
		{
			"inputs": [],
			"name": "IMMUTABLE_BLOCK",
			"outputs": [
				{
					"internalType": "uint256",
					"name": "",
					"type": "uint256"
				}
			],
			"stateMutability": "view",
			"type": "function"
		},
		{
			"inputs": [],
			"name": "IMMUTABLE_NUM",
			"outputs": [
				{
					"internalType": "uint256",
					"name": "",
					"type": "uint256"
				}
			],
			"stateMutability": "view",
			"type": "function"
		},
		{
			"inputs": [],
			"name": "IMMUTABLE_TEST",
			"outputs": [
				{
					"internalType": "uint256",
					"name": "",
					"type": "uint256"
				}
			],
			"stateMutability": "view",
			"type": "function"
		},
		{
			"inputs": [],
			"name": "test",
			"outputs": [
				{
					"internalType": "uint256",
					"name": "",
					"type": "uint256"
				}
			],
			"stateMutability": "pure",
			"type": "function"
		}
	]
}