{
	"remix/006/Array-Struct.sol": {
		"Array": {
			"abi": [
				{
					"inputs": [],
					"name": "arrayPush",
					"outputs": [
						{
							"internalType": "uint256[]",
							"name": "",
							"type": "uint256[]"
						}
					],
					"stateMutability": "nonpayable",
					"type": "function"
				},
				{
					"inputs": [],
					"name": "f",
					"outputs": [],
					"stateMutability": "pure",
					"type": "function"
				},
				{
					"inputs": [
						{
							"internalType": "uint256[3]",
							"name": "",
							"type": "uint256[3]"
						}
					],
					"name": "g",
					"outputs": [],
					"stateMutability": "pure",
					"type": "function"
				}
			],
			"devdoc": {
				"kind": "dev",
				"methods": {},
				"version": 1
			},
			"evm": {
				"assembly": "    /* \"remix/006/Array-Struct.sol\":35:675  contract Array{\r... */\n  mstore(0x40, 0x80)\n  callvalue\n  dup1\n  iszero\n  tag_1\n  jumpi\n  0x00\n  dup1\n  revert\ntag_1:\n  pop\n  dataSize(sub_0)\n  dup1\n  dataOffset(sub_0)\n  0x00\n  codecopy\n  0x00\n  return\nstop\n\nsub_0: assembly {\n        /* \"remix/006/Array-Struct.sol\":35:675  contract Array{\r... */\n      mstore(0x40, 0x80)\n      callvalue\n      dup1\n      iszero\n      tag_1\n      jumpi\n      0x00\n      dup1\n      revert\n    tag_1:\n      pop\n      jumpi(tag_2, lt(calldatasize, 0x04))\n      shr(0xe0, calldataload(0x00))\n      dup1\n      0x26121ff0\n      eq\n      tag_3\n      jumpi\n      dup1\n      0x47f6ac11\n      eq\n      tag_4\n      jumpi\n      dup1\n      0xd14d385d\n      eq\n      tag_5\n      jumpi\n    tag_2:\n      0x00\n      dup1\n      revert\n        /* \"remix/006/Array-Struct.sol\":287:441  function f() public pure{\r... */\n    tag_3:\n      tag_6\n      tag_7\n      jump\t// in\n    tag_6:\n      stop\n        /* \"remix/006/Array-Struct.sol\":504:672  function arrayPush() public returns (uint[] memory){\r... */\n    tag_4:\n      tag_8\n      tag_9\n      jump\t// in\n    tag_8:\n      mload(0x40)\n      tag_10\n      swap2\n      swap1\n      tag_11\n      jump\t// in\n    tag_10:\n      mload(0x40)\n      dup1\n      swap2\n      sub\n      swap1\n      return\n        /* \"remix/006/Array-Struct.sol\":449:497  function g(uint[3] memory) public pure{\r... */\n    tag_5:\n      tag_12\n      0x04\n      dup1\n      calldatasize\n      sub\n      dup2\n      add\n      swap1\n      tag_13\n      swap2\n      swap1\n      tag_14\n      jump\t// in\n    tag_13:\n      tag_15\n      jump\t// in\n    tag_12:\n      stop\n        /* \"remix/006/Array-Struct.sol\":287:441  function f() public pure{\r... */\n    tag_7:\n        /* \"remix/006/Array-Struct.sol\":322:337  uint[] memory x */\n      0x00\n        /* \"remix/006/Array-Struct.sol\":351:352  3 */\n      0x03\n        /* \"remix/006/Array-Struct.sol\":340:353  new uint[](3) */\n      0xffffffffffffffff\n      dup2\n      gt\n      iszero\n      tag_17\n      jumpi\n      tag_18\n      tag_19\n      jump\t// in\n    tag_18:\n    tag_17:\n      mload(0x40)\n      swap1\n      dup1\n      dup3\n      mstore\n      dup1\n      0x20\n      mul\n      0x20\n      add\n      dup3\n      add\n      0x40\n      mstore\n      dup1\n      iszero\n      tag_20\n      jumpi\n      dup2\n      0x20\n      add\n      0x20\n      dup3\n      mul\n      dup1\n      calldatasize\n      dup4\n      calldatacopy\n      dup1\n      dup3\n      add\n      swap2\n      pop\n      pop\n      swap1\n      pop\n    tag_20:\n      pop\n        /* \"remix/006/Array-Struct.sol\":322:353  uint[] memory x = new uint[](3) */\n      swap1\n      pop\n        /* \"remix/006/Array-Struct.sol\":369:370  1 */\n      0x01\n        /* \"remix/006/Array-Struct.sol\":364:365  x */\n      dup2\n        /* \"remix/006/Array-Struct.sol\":366:367  0 */\n      0x00\n        /* \"remix/006/Array-Struct.sol\":364:368  x[0] */\n      dup2\n      mload\n      dup2\n      lt\n      tag_21\n      jumpi\n      tag_22\n      tag_23\n      jump\t// in\n    tag_22:\n    tag_21:\n      0x20\n      mul\n      0x20\n      add\n      add\n        /* \"remix/006/Array-Struct.sol\":364:370  x[0]=1 */\n      dup2\n      dup2\n      mstore\n      pop\n      pop\n        /* \"remix/006/Array-Struct.sol\":386:387  3 */\n      0x03\n        /* \"remix/006/Array-Struct.sol\":381:382  x */\n      dup2\n        /* \"remix/006/Array-Struct.sol\":383:384  1 */\n      0x01\n        /* \"remix/006/Array-Struct.sol\":381:385  x[1] */\n      dup2\n      mload\n      dup2\n      lt\n      tag_24\n      jumpi\n      tag_25\n      tag_23\n      jump\t// in\n    tag_25:\n    tag_24:\n      0x20\n      mul\n      0x20\n      add\n      add\n        /* \"remix/006/Array-Struct.sol\":381:387  x[1]=3 */\n      dup2\n      dup2\n      mstore\n      pop\n      pop\n        /* \"remix/006/Array-Struct.sol\":405:406  4 */\n      0x04\n        /* \"remix/006/Array-Struct.sol\":398:399  x */\n      dup2\n        /* \"remix/006/Array-Struct.sol\":400:401  2 */\n      0x02\n        /* \"remix/006/Array-Struct.sol\":398:402  x[2] */\n      dup2\n      mload\n      dup2\n      lt\n      tag_26\n      jumpi\n      tag_27\n      tag_23\n      jump\t// in\n    tag_27:\n    tag_26:\n      0x20\n      mul\n      0x20\n      add\n      add\n        /* \"remix/006/Array-Struct.sol\":398:406  x[2] = 4 */\n      dup2\n      dup2\n      mstore\n      pop\n      pop\n        /* \"remix/006/Array-Struct.sol\":417:433  g([uint(1),2,3]) */\n      tag_28\n      mload(0x40)\n      dup1\n      0x60\n      add\n      0x40\n      mstore\n      dup1\n        /* \"remix/006/Array-Struct.sol\":425:426  1 */\n      0x01\n        /* \"remix/006/Array-Struct.sol\":417:433  g([uint(1),2,3]) */\n      dup2\n      mstore\n      0x20\n      add\n        /* \"remix/006/Array-Struct.sol\":428:429  2 */\n      0x02\n        /* \"remix/006/Array-Struct.sol\":417:433  g([uint(1),2,3]) */\n      dup2\n      mstore\n      0x20\n      add\n        /* \"remix/006/Array-Struct.sol\":430:431  3 */\n      0x03\n        /* \"remix/006/Array-Struct.sol\":417:433  g([uint(1),2,3]) */\n      dup2\n      mstore\n      pop\n        /* \"remix/006/Array-Struct.sol\":417:418  g */\n      tag_15\n        /* \"remix/006/Array-Struct.sol\":417:433  g([uint(1),2,3]) */\n      jump\t// in\n    tag_28:\n        /* \"remix/006/Array-Struct.sol\":311:441  {\r... */\n      pop\n        /* \"remix/006/Array-Struct.sol\":287:441  function f() public pure{\r... */\n      jump\t// out\n        /* \"remix/006/Array-Struct.sol\":504:672  function arrayPush() public returns (uint[] memory){\r... */\n    tag_9:\n        /* \"remix/006/Array-Struct.sol\":541:554  uint[] memory */\n      0x60\n        /* \"remix/006/Array-Struct.sol\":566:582  uint[2] memory a */\n      0x00\n        /* \"remix/006/Array-Struct.sol\":566:596  uint[2] memory a = [uint(1),2] */\n      mload(0x40)\n      dup1\n      0x40\n      add\n      0x40\n      mstore\n      dup1\n        /* \"remix/006/Array-Struct.sol\":591:592  1 */\n      0x01\n        /* \"remix/006/Array-Struct.sol\":566:596  uint[2] memory a = [uint(1),2] */\n      dup2\n      mstore\n      0x20\n      add\n        /* \"remix/006/Array-Struct.sol\":594:595  2 */\n      0x02\n        /* \"remix/006/Array-Struct.sol\":566:596  uint[2] memory a = [uint(1),2] */\n      dup2\n      mstore\n      pop\n      swap1\n      pop\n        /* \"remix/006/Array-Struct.sol\":614:615  a */\n      dup1\n        /* \"remix/006/Array-Struct.sol\":607:613  array4 */\n      0x71\n        /* \"remix/006/Array-Struct.sol\":607:615  array4=a */\n      swap1\n      0x02\n      tag_30\n      swap3\n      swap2\n      swap1\n      tag_31\n      jump\t// in\n    tag_30:\n      pop\n        /* \"remix/006/Array-Struct.sol\":626:632  array4 */\n      0x71\n        /* \"remix/006/Array-Struct.sol\":638:639  3 */\n      0x03\n        /* \"remix/006/Array-Struct.sol\":626:640  array4.push(3) */\n      swap1\n      dup1\n      0x01\n      dup2\n      sload\n      add\n      dup1\n      dup3\n      sstore\n      dup1\n      swap2\n      pop\n      pop\n      0x01\n      swap1\n      sub\n      swap1\n      0x00\n      mstore\n      keccak256(0x00, 0x20)\n      add\n      0x00\n      swap1\n      swap2\n      swap1\n      swap2\n      swap1\n      swap2\n      pop\n      sstore\n        /* \"remix/006/Array-Struct.sol\":658:664  array4 */\n      0x71\n        /* \"remix/006/Array-Struct.sol\":651:664  return array4 */\n      dup1\n      sload\n      dup1\n      0x20\n      mul\n      0x20\n      add\n      mload(0x40)\n      swap1\n      dup2\n      add\n      0x40\n      mstore\n      dup1\n      swap3\n      swap2\n      swap1\n      dup2\n      dup2\n      mstore\n      0x20\n      add\n      dup3\n      dup1\n      sload\n      dup1\n      iszero\n      tag_33\n      jumpi\n      0x20\n      mul\n      dup3\n      add\n      swap2\n      swap1\n      0x00\n      mstore\n      keccak256(0x00, 0x20)\n      swap1\n    tag_34:\n      dup2\n      sload\n      dup2\n      mstore\n      0x20\n      add\n      swap1\n      0x01\n      add\n      swap1\n      dup1\n      dup4\n      gt\n      tag_34\n      jumpi\n    tag_33:\n      pop\n      pop\n      pop\n      pop\n      pop\n      swap2\n      pop\n      pop\n        /* \"remix/006/Array-Struct.sol\":504:672  function arrayPush() public returns (uint[] memory){\r... */\n      swap1\n      jump\t// out\n        /* \"remix/006/Array-Struct.sol\":449:497  function g(uint[3] memory) public pure{\r... */\n    tag_15:\n      pop\n      jump\t// out\n    tag_31:\n      dup3\n      dup1\n      sload\n      dup3\n      dup3\n      sstore\n      swap1\n      0x00\n      mstore\n      keccak256(0x00, 0x20)\n      swap1\n      dup2\n      add\n      swap3\n      dup3\n      iszero\n      tag_36\n      jumpi\n      swap2\n      0x20\n      mul\n      dup3\n      add\n    tag_37:\n      dup3\n      dup2\n      gt\n      iszero\n      tag_38\n      jumpi\n      dup3\n      mload\n      dup3\n      sstore\n      swap2\n      0x20\n      add\n      swap2\n      swap1\n      0x01\n      add\n      swap1\n      jump(tag_37)\n    tag_38:\n    tag_36:\n      pop\n      swap1\n      pop\n      tag_39\n      swap2\n      swap1\n      tag_40\n      jump\t// in\n    tag_39:\n      pop\n      swap1\n      jump\t// out\n    tag_40:\n    tag_41:\n      dup1\n      dup3\n      gt\n      iszero\n      tag_42\n      jumpi\n      0x00\n      dup2\n      0x00\n      swap1\n      sstore\n      pop\n      0x01\n      add\n      jump(tag_41)\n    tag_42:\n      pop\n      swap1\n      jump\t// out\n        /* \"#utility.yul\":25:680   */\n    tag_44:\n        /* \"#utility.yul\":119:124   */\n      0x00\n        /* \"#utility.yul\":144:223   */\n      tag_46\n        /* \"#utility.yul\":160:222   */\n      tag_47\n        /* \"#utility.yul\":215:221   */\n      dup5\n        /* \"#utility.yul\":160:222   */\n      tag_48\n      jump\t// in\n    tag_47:\n        /* \"#utility.yul\":144:223   */\n      tag_49\n      jump\t// in\n    tag_46:\n        /* \"#utility.yul\":135:223   */\n      swap1\n      pop\n        /* \"#utility.yul\":243:248   */\n      dup1\n        /* \"#utility.yul\":269:275   */\n      dup3\n        /* \"#utility.yul\":319:322   */\n      dup6\n        /* \"#utility.yul\":311:315   */\n      0x20\n        /* \"#utility.yul\":303:309   */\n      dup7\n        /* \"#utility.yul\":299:316   */\n      mul\n        /* \"#utility.yul\":294:297   */\n      dup3\n        /* \"#utility.yul\":290:317   */\n      add\n        /* \"#utility.yul\":287:323   */\n      gt\n        /* \"#utility.yul\":284:427   */\n      iszero\n      tag_50\n      jumpi\n        /* \"#utility.yul\":338:417   */\n      tag_51\n      tag_52\n      jump\t// in\n    tag_51:\n        /* \"#utility.yul\":284:427   */\n    tag_50:\n        /* \"#utility.yul\":451:452   */\n      0x00\n        /* \"#utility.yul\":436:674   */\n    tag_53:\n        /* \"#utility.yul\":461:467   */\n      dup6\n        /* \"#utility.yul\":458:459   */\n      dup2\n        /* \"#utility.yul\":455:468   */\n      lt\n        /* \"#utility.yul\":436:674   */\n      iszero\n      tag_55\n      jumpi\n        /* \"#utility.yul\":529:532   */\n      dup2\n        /* \"#utility.yul\":558:595   */\n      tag_56\n        /* \"#utility.yul\":591:594   */\n      dup9\n        /* \"#utility.yul\":579:589   */\n      dup3\n        /* \"#utility.yul\":558:595   */\n      tag_57\n      jump\t// in\n    tag_56:\n        /* \"#utility.yul\":553:556   */\n      dup5\n        /* \"#utility.yul\":546:596   */\n      mstore\n        /* \"#utility.yul\":625:629   */\n      0x20\n        /* \"#utility.yul\":620:623   */\n      dup5\n        /* \"#utility.yul\":616:630   */\n      add\n        /* \"#utility.yul\":609:630   */\n      swap4\n      pop\n        /* \"#utility.yul\":659:663   */\n      0x20\n        /* \"#utility.yul\":654:657   */\n      dup4\n        /* \"#utility.yul\":650:664   */\n      add\n        /* \"#utility.yul\":643:664   */\n      swap3\n      pop\n        /* \"#utility.yul\":496:674   */\n      pop\n        /* \"#utility.yul\":483:484   */\n      0x01\n        /* \"#utility.yul\":480:481   */\n      dup2\n        /* \"#utility.yul\":476:485   */\n      add\n        /* \"#utility.yul\":471:485   */\n      swap1\n      pop\n        /* \"#utility.yul\":436:674   */\n      jump(tag_53)\n    tag_55:\n        /* \"#utility.yul\":440:454   */\n      pop\n        /* \"#utility.yul\":125:680   */\n      pop\n      pop\n        /* \"#utility.yul\":25:680   */\n      swap4\n      swap3\n      pop\n      pop\n      pop\n      jump\t// out\n        /* \"#utility.yul\":704:1043   */\n    tag_58:\n        /* \"#utility.yul\":773:778   */\n      0x00\n        /* \"#utility.yul\":822:825   */\n      dup3\n        /* \"#utility.yul\":815:819   */\n      0x1f\n        /* \"#utility.yul\":807:813   */\n      dup4\n        /* \"#utility.yul\":803:820   */\n      add\n        /* \"#utility.yul\":799:826   */\n      slt\n        /* \"#utility.yul\":789:911   */\n      tag_60\n      jumpi\n        /* \"#utility.yul\":830:909   */\n      tag_61\n      tag_62\n      jump\t// in\n    tag_61:\n        /* \"#utility.yul\":789:911   */\n    tag_60:\n        /* \"#utility.yul\":934:938   */\n      0x03\n        /* \"#utility.yul\":956:1037   */\n      tag_63\n        /* \"#utility.yul\":1033:1036   */\n      dup5\n        /* \"#utility.yul\":1025:1031   */\n      dup3\n        /* \"#utility.yul\":1017:1023   */\n      dup6\n        /* \"#utility.yul\":956:1037   */\n      tag_44\n      jump\t// in\n    tag_63:\n        /* \"#utility.yul\":947:1037   */\n      swap2\n      pop\n        /* \"#utility.yul\":779:1043   */\n      pop\n        /* \"#utility.yul\":704:1043   */\n      swap3\n      swap2\n      pop\n      pop\n      jump\t// out\n        /* \"#utility.yul\":1049:1188   */\n    tag_57:\n        /* \"#utility.yul\":1095:1100   */\n      0x00\n        /* \"#utility.yul\":1133:1139   */\n      dup2\n        /* \"#utility.yul\":1120:1140   */\n      calldataload\n        /* \"#utility.yul\":1111:1140   */\n      swap1\n      pop\n        /* \"#utility.yul\":1149:1182   */\n      tag_65\n        /* \"#utility.yul\":1176:1181   */\n      dup2\n        /* \"#utility.yul\":1149:1182   */\n      tag_66\n      jump\t// in\n    tag_65:\n        /* \"#utility.yul\":1049:1188   */\n      swap3\n      swap2\n      pop\n      pop\n      jump\t// out\n        /* \"#utility.yul\":1194:1569   */\n    tag_14:\n        /* \"#utility.yul\":1276:1282   */\n      0x00\n        /* \"#utility.yul\":1325:1327   */\n      0x60\n        /* \"#utility.yul\":1313:1322   */\n      dup3\n        /* \"#utility.yul\":1304:1311   */\n      dup5\n        /* \"#utility.yul\":1300:1323   */\n      sub\n        /* \"#utility.yul\":1296:1328   */\n      slt\n        /* \"#utility.yul\":1293:1412   */\n      iszero\n      tag_68\n      jumpi\n        /* \"#utility.yul\":1331:1410   */\n      tag_69\n      tag_70\n      jump\t// in\n    tag_69:\n        /* \"#utility.yul\":1293:1412   */\n    tag_68:\n        /* \"#utility.yul\":1451:1452   */\n      0x00\n        /* \"#utility.yul\":1476:1552   */\n      tag_71\n        /* \"#utility.yul\":1544:1551   */\n      dup5\n        /* \"#utility.yul\":1535:1541   */\n      dup3\n        /* \"#utility.yul\":1524:1533   */\n      dup6\n        /* \"#utility.yul\":1520:1542   */\n      add\n        /* \"#utility.yul\":1476:1552   */\n      tag_58\n      jump\t// in\n    tag_71:\n        /* \"#utility.yul\":1466:1552   */\n      swap2\n      pop\n        /* \"#utility.yul\":1422:1562   */\n      pop\n        /* \"#utility.yul\":1194:1569   */\n      swap3\n      swap2\n      pop\n      pop\n      jump\t// out\n        /* \"#utility.yul\":1575:1754   */\n    tag_72:\n        /* \"#utility.yul\":1644:1654   */\n      0x00\n        /* \"#utility.yul\":1665:1711   */\n      tag_74\n        /* \"#utility.yul\":1707:1710   */\n      dup4\n        /* \"#utility.yul\":1699:1705   */\n      dup4\n        /* \"#utility.yul\":1665:1711   */\n      tag_75\n      jump\t// in\n    tag_74:\n        /* \"#utility.yul\":1743:1747   */\n      0x20\n        /* \"#utility.yul\":1738:1741   */\n      dup4\n        /* \"#utility.yul\":1734:1748   */\n      add\n        /* \"#utility.yul\":1720:1748   */\n      swap1\n      pop\n        /* \"#utility.yul\":1575:1754   */\n      swap3\n      swap2\n      pop\n      pop\n      jump\t// out\n        /* \"#utility.yul\":1790:2522   */\n    tag_76:\n        /* \"#utility.yul\":1909:1912   */\n      0x00\n        /* \"#utility.yul\":1938:1992   */\n      tag_78\n        /* \"#utility.yul\":1986:1991   */\n      dup3\n        /* \"#utility.yul\":1938:1992   */\n      tag_79\n      jump\t// in\n    tag_78:\n        /* \"#utility.yul\":2008:2094   */\n      tag_80\n        /* \"#utility.yul\":2087:2093   */\n      dup2\n        /* \"#utility.yul\":2082:2085   */\n      dup6\n        /* \"#utility.yul\":2008:2094   */\n      tag_81\n      jump\t// in\n    tag_80:\n        /* \"#utility.yul\":2001:2094   */\n      swap4\n      pop\n        /* \"#utility.yul\":2118:2174   */\n      tag_82\n        /* \"#utility.yul\":2168:2173   */\n      dup4\n        /* \"#utility.yul\":2118:2174   */\n      tag_83\n      jump\t// in\n    tag_82:\n        /* \"#utility.yul\":2197:2204   */\n      dup1\n        /* \"#utility.yul\":2228:2229   */\n      0x00\n        /* \"#utility.yul\":2213:2497   */\n    tag_84:\n        /* \"#utility.yul\":2238:2244   */\n      dup4\n        /* \"#utility.yul\":2235:2236   */\n      dup2\n        /* \"#utility.yul\":2232:2245   */\n      lt\n        /* \"#utility.yul\":2213:2497   */\n      iszero\n      tag_86\n      jumpi\n        /* \"#utility.yul\":2314:2320   */\n      dup2\n        /* \"#utility.yul\":2308:2321   */\n      mload\n        /* \"#utility.yul\":2341:2404   */\n      tag_87\n        /* \"#utility.yul\":2400:2403   */\n      dup9\n        /* \"#utility.yul\":2385:2398   */\n      dup3\n        /* \"#utility.yul\":2341:2404   */\n      tag_72\n      jump\t// in\n    tag_87:\n        /* \"#utility.yul\":2334:2404   */\n      swap8\n      pop\n        /* \"#utility.yul\":2427:2487   */\n      tag_88\n        /* \"#utility.yul\":2480:2486   */\n      dup4\n        /* \"#utility.yul\":2427:2487   */\n      tag_89\n      jump\t// in\n    tag_88:\n        /* \"#utility.yul\":2417:2487   */\n      swap3\n      pop\n        /* \"#utility.yul\":2273:2497   */\n      pop\n        /* \"#utility.yul\":2260:2261   */\n      0x01\n        /* \"#utility.yul\":2257:2258   */\n      dup2\n        /* \"#utility.yul\":2253:2262   */\n      add\n        /* \"#utility.yul\":2248:2262   */\n      swap1\n      pop\n        /* \"#utility.yul\":2213:2497   */\n      jump(tag_84)\n    tag_86:\n        /* \"#utility.yul\":2217:2231   */\n      pop\n        /* \"#utility.yul\":2513:2516   */\n      dup6\n        /* \"#utility.yul\":2506:2516   */\n      swap4\n      pop\n        /* \"#utility.yul\":1914:2522   */\n      pop\n      pop\n      pop\n        /* \"#utility.yul\":1790:2522   */\n      swap3\n      swap2\n      pop\n      pop\n      jump\t// out\n        /* \"#utility.yul\":2528:2636   */\n    tag_75:\n        /* \"#utility.yul\":2605:2629   */\n      tag_91\n        /* \"#utility.yul\":2623:2628   */\n      dup2\n        /* \"#utility.yul\":2605:2629   */\n      tag_92\n      jump\t// in\n    tag_91:\n        /* \"#utility.yul\":2600:2603   */\n      dup3\n        /* \"#utility.yul\":2593:2630   */\n      mstore\n        /* \"#utility.yul\":2528:2636   */\n      pop\n      pop\n      jump\t// out\n        /* \"#utility.yul\":2642:3015   */\n    tag_11:\n        /* \"#utility.yul\":2785:2789   */\n      0x00\n        /* \"#utility.yul\":2823:2825   */\n      0x20\n        /* \"#utility.yul\":2812:2821   */\n      dup3\n        /* \"#utility.yul\":2808:2826   */\n      add\n        /* \"#utility.yul\":2800:2826   */\n      swap1\n      pop\n        /* \"#utility.yul\":2872:2881   */\n      dup2\n        /* \"#utility.yul\":2866:2870   */\n      dup2\n        /* \"#utility.yul\":2862:2882   */\n      sub\n        /* \"#utility.yul\":2858:2859   */\n      0x00\n        /* \"#utility.yul\":2847:2856   */\n      dup4\n        /* \"#utility.yul\":2843:2860   */\n      add\n        /* \"#utility.yul\":2836:2883   */\n      mstore\n        /* \"#utility.yul\":2900:3008   */\n      tag_94\n        /* \"#utility.yul\":3003:3007   */\n      dup2\n        /* \"#utility.yul\":2994:3000   */\n      dup5\n        /* \"#utility.yul\":2900:3008   */\n      tag_76\n      jump\t// in\n    tag_94:\n        /* \"#utility.yul\":2892:3008   */\n      swap1\n      pop\n        /* \"#utility.yul\":2642:3015   */\n      swap3\n      swap2\n      pop\n      pop\n      jump\t// out\n        /* \"#utility.yul\":3021:3150   */\n    tag_49:\n        /* \"#utility.yul\":3055:3061   */\n      0x00\n        /* \"#utility.yul\":3082:3102   */\n      tag_96\n      tag_97\n      jump\t// in\n    tag_96:\n        /* \"#utility.yul\":3072:3102   */\n      swap1\n      pop\n        /* \"#utility.yul\":3111:3144   */\n      tag_98\n        /* \"#utility.yul\":3139:3143   */\n      dup3\n        /* \"#utility.yul\":3131:3137   */\n      dup3\n        /* \"#utility.yul\":3111:3144   */\n      tag_99\n      jump\t// in\n    tag_98:\n        /* \"#utility.yul\":3021:3150   */\n      swap2\n      swap1\n      pop\n      jump\t// out\n        /* \"#utility.yul\":3156:3231   */\n    tag_97:\n        /* \"#utility.yul\":3189:3195   */\n      0x00\n        /* \"#utility.yul\":3222:3224   */\n      0x40\n        /* \"#utility.yul\":3216:3225   */\n      mload\n        /* \"#utility.yul\":3206:3225   */\n      swap1\n      pop\n        /* \"#utility.yul\":3156:3231   */\n      swap1\n      jump\t// out\n        /* \"#utility.yul\":3237:3486   */\n    tag_48:\n        /* \"#utility.yul\":3312:3316   */\n      0x00\n        /* \"#utility.yul\":3402:3420   */\n      0xffffffffffffffff\n        /* \"#utility.yul\":3394:3400   */\n      dup3\n        /* \"#utility.yul\":3391:3421   */\n      gt\n        /* \"#utility.yul\":3388:3444   */\n      iszero\n      tag_102\n      jumpi\n        /* \"#utility.yul\":3424:3442   */\n      tag_103\n      tag_19\n      jump\t// in\n    tag_103:\n        /* \"#utility.yul\":3388:3444   */\n    tag_102:\n        /* \"#utility.yul\":3474:3478   */\n      0x20\n        /* \"#utility.yul\":3466:3472   */\n      dup3\n        /* \"#utility.yul\":3462:3479   */\n      mul\n        /* \"#utility.yul\":3454:3479   */\n      swap1\n      pop\n        /* \"#utility.yul\":3237:3486   */\n      swap2\n      swap1\n      pop\n      jump\t// out\n        /* \"#utility.yul\":3492:3624   */\n    tag_83:\n        /* \"#utility.yul\":3559:3563   */\n      0x00\n        /* \"#utility.yul\":3582:3585   */\n      dup2\n        /* \"#utility.yul\":3574:3585   */\n      swap1\n      pop\n        /* \"#utility.yul\":3612:3616   */\n      0x20\n        /* \"#utility.yul\":3607:3610   */\n      dup3\n        /* \"#utility.yul\":3603:3617   */\n      add\n        /* \"#utility.yul\":3595:3617   */\n      swap1\n      pop\n        /* \"#utility.yul\":3492:3624   */\n      swap2\n      swap1\n      pop\n      jump\t// out\n        /* \"#utility.yul\":3630:3744   */\n    tag_79:\n        /* \"#utility.yul\":3697:3703   */\n      0x00\n        /* \"#utility.yul\":3731:3736   */\n      dup2\n        /* \"#utility.yul\":3725:3737   */\n      mload\n        /* \"#utility.yul\":3715:3737   */\n      swap1\n      pop\n        /* \"#utility.yul\":3630:3744   */\n      swap2\n      swap1\n      pop\n      jump\t// out\n        /* \"#utility.yul\":3750:3863   */\n    tag_89:\n        /* \"#utility.yul\":3820:3824   */\n      0x00\n        /* \"#utility.yul\":3852:3856   */\n      0x20\n        /* \"#utility.yul\":3847:3850   */\n      dup3\n        /* \"#utility.yul\":3843:3857   */\n      add\n        /* \"#utility.yul\":3835:3857   */\n      swap1\n      pop\n        /* \"#utility.yul\":3750:3863   */\n      swap2\n      swap1\n      pop\n      jump\t// out\n        /* \"#utility.yul\":3869:4053   */\n    tag_81:\n        /* \"#utility.yul\":3968:3979   */\n      0x00\n        /* \"#utility.yul\":4002:4008   */\n      dup3\n        /* \"#utility.yul\":3997:4000   */\n      dup3\n        /* \"#utility.yul\":3990:4009   */\n      mstore\n        /* \"#utility.yul\":4042:4046   */\n      0x20\n        /* \"#utility.yul\":4037:4040   */\n      dup3\n        /* \"#utility.yul\":4033:4047   */\n      add\n        /* \"#utility.yul\":4018:4047   */\n      swap1\n      pop\n        /* \"#utility.yul\":3869:4053   */\n      swap3\n      swap2\n      pop\n      pop\n      jump\t// out\n        /* \"#utility.yul\":4059:4136   */\n    tag_92:\n        /* \"#utility.yul\":4096:4103   */\n      0x00\n        /* \"#utility.yul\":4125:4130   */\n      dup2\n        /* \"#utility.yul\":4114:4130   */\n      swap1\n      pop\n        /* \"#utility.yul\":4059:4136   */\n      swap2\n      swap1\n      pop\n      jump\t// out\n        /* \"#utility.yul\":4142:4423   */\n    tag_99:\n        /* \"#utility.yul\":4225:4252   */\n      tag_110\n        /* \"#utility.yul\":4247:4251   */\n      dup3\n        /* \"#utility.yul\":4225:4252   */\n      tag_111\n      jump\t// in\n    tag_110:\n        /* \"#utility.yul\":4217:4223   */\n      dup2\n        /* \"#utility.yul\":4213:4253   */\n      add\n        /* \"#utility.yul\":4355:4361   */\n      dup2\n        /* \"#utility.yul\":4343:4353   */\n      dup2\n        /* \"#utility.yul\":4340:4362   */\n      lt\n        /* \"#utility.yul\":4319:4337   */\n      0xffffffffffffffff\n        /* \"#utility.yul\":4307:4317   */\n      dup3\n        /* \"#utility.yul\":4304:4338   */\n      gt\n        /* \"#utility.yul\":4301:4363   */\n      or\n        /* \"#utility.yul\":4298:4386   */\n      iszero\n      tag_112\n      jumpi\n        /* \"#utility.yul\":4366:4384   */\n      tag_113\n      tag_19\n      jump\t// in\n    tag_113:\n        /* \"#utility.yul\":4298:4386   */\n    tag_112:\n        /* \"#utility.yul\":4406:4416   */\n      dup1\n        /* \"#utility.yul\":4402:4404   */\n      0x40\n        /* \"#utility.yul\":4395:4417   */\n      mstore\n        /* \"#utility.yul\":4185:4423   */\n      pop\n        /* \"#utility.yul\":4142:4423   */\n      pop\n      pop\n      jump\t// out\n        /* \"#utility.yul\":4429:4609   */\n    tag_23:\n        /* \"#utility.yul\":4477:4554   */\n      0x4e487b7100000000000000000000000000000000000000000000000000000000\n        /* \"#utility.yul\":4474:4475   */\n      0x00\n        /* \"#utility.yul\":4467:4555   */\n      mstore\n        /* \"#utility.yul\":4574:4578   */\n      0x32\n        /* \"#utility.yul\":4571:4572   */\n      0x04\n        /* \"#utility.yul\":4564:4579   */\n      mstore\n        /* \"#utility.yul\":4598:4602   */\n      0x24\n        /* \"#utility.yul\":4595:4596   */\n      0x00\n        /* \"#utility.yul\":4588:4603   */\n      revert\n        /* \"#utility.yul\":4615:4795   */\n    tag_19:\n        /* \"#utility.yul\":4663:4740   */\n      0x4e487b7100000000000000000000000000000000000000000000000000000000\n        /* \"#utility.yul\":4660:4661   */\n      0x00\n        /* \"#utility.yul\":4653:4741   */\n      mstore\n        /* \"#utility.yul\":4760:4764   */\n      0x41\n        /* \"#utility.yul\":4757:4758   */\n      0x04\n        /* \"#utility.yul\":4750:4765   */\n      mstore\n        /* \"#utility.yul\":4784:4788   */\n      0x24\n        /* \"#utility.yul\":4781:4782   */\n      0x00\n        /* \"#utility.yul\":4774:4789   */\n      revert\n        /* \"#utility.yul\":4801:4918   */\n    tag_62:\n        /* \"#utility.yul\":4910:4911   */\n      0x00\n        /* \"#utility.yul\":4907:4908   */\n      dup1\n        /* \"#utility.yul\":4900:4912   */\n      revert\n        /* \"#utility.yul\":4924:5041   */\n    tag_52:\n        /* \"#utility.yul\":5033:5034   */\n      0x00\n        /* \"#utility.yul\":5030:5031   */\n      dup1\n        /* \"#utility.yul\":5023:5035   */\n      revert\n        /* \"#utility.yul\":5170:5287   */\n    tag_70:\n        /* \"#utility.yul\":5279:5280   */\n      0x00\n        /* \"#utility.yul\":5276:5277   */\n      dup1\n        /* \"#utility.yul\":5269:5281   */\n      revert\n        /* \"#utility.yul\":5293:5395   */\n    tag_111:\n        /* \"#utility.yul\":5334:5340   */\n      0x00\n        /* \"#utility.yul\":5385:5387   */\n      0x1f\n        /* \"#utility.yul\":5381:5388   */\n      not\n        /* \"#utility.yul\":5376:5378   */\n      0x1f\n        /* \"#utility.yul\":5369:5374   */\n      dup4\n        /* \"#utility.yul\":5365:5379   */\n      add\n        /* \"#utility.yul\":5361:5389   */\n      and\n        /* \"#utility.yul\":5351:5389   */\n      swap1\n      pop\n        /* \"#utility.yul\":5293:5395   */\n      swap2\n      swap1\n      pop\n      jump\t// out\n        /* \"#utility.yul\":5401:5523   */\n    tag_66:\n        /* \"#utility.yul\":5474:5498   */\n      tag_123\n        /* \"#utility.yul\":5492:5497   */\n      dup2\n        /* \"#utility.yul\":5474:5498   */\n      tag_92\n      jump\t// in\n    tag_123:\n        /* \"#utility.yul\":5467:5472   */\n      dup2\n        /* \"#utility.yul\":5464:5499   */\n      eq\n        /* \"#utility.yul\":5454:5517   */\n      tag_124\n      jumpi\n        /* \"#utility.yul\":5513:5514   */\n      0x00\n        /* \"#utility.yul\":5510:5511   */\n      dup1\n        /* \"#utility.yul\":5503:5515   */\n      revert\n        /* \"#utility.yul\":5454:5517   */\n    tag_124:\n        /* \"#utility.yul\":5401:5523   */\n      pop\n      jump\t// out\n\n    auxdata: 0xa26469706673582212204e4d0fdaa46b200ea06432d127c2db1477e620f612ec2608c4aa35c6412b94e264736f6c63430008070033\n}\n",
				"bytecode": {
					"linkReferences": {},
					"object": "608060405234801561001057600080fd5b50610589806100206000396000f3fe608060405234801561001057600080fd5b50600436106100415760003560e01c806326121ff01461004657806347f6ac1114610050578063d14d385d1461006e575b600080fd5b61004e61008a565b005b610058610167565b60405161006591906103dd565b60405180910390f35b6100886004803603810190610083919061032b565b610217565b005b6000600367ffffffffffffffff8111156100a7576100a66104ed565b5b6040519080825280602002602001820160405280156100d55781602001602082028036833780820191505090505b5090506001816000815181106100ee576100ed6104be565b5b6020026020010181815250506003816001815181106101105761010f6104be565b5b602002602001018181525050600481600281518110610132576101316104be565b5b602002602001018181525050610164604051806060016040528060018152602001600281526020016003815250610217565b50565b606060006040518060400160405280600181526020016002815250905080607190600261019592919061021a565b50607160039080600181540180825580915050600190039060005260206000200160009091909190915055607180548060200260200160405190810160405280929190818152602001828054801561020c57602002820191906000526020600020905b8154815260200190600101908083116101f8575b505050505091505090565b50565b828054828255906000526020600020908101928215610256579160200282015b8281111561025557825182559160200191906001019061023a565b5b5090506102639190610267565b5090565b5b80821115610280576000816000905550600101610268565b5090565b600061029761029284610424565b6103ff565b905080828560208602820111156102b1576102b0610521565b5b60005b858110156102e157816102c78882610316565b8452602084019350602083019250506001810190506102b4565b5050509392505050565b600082601f830112610300576102ff61051c565b5b600361030d848285610284565b91505092915050565b6000813590506103258161053c565b92915050565b60006060828403121561034157610340610526565b5b600061034f848285016102eb565b91505092915050565b600061036483836103ce565b60208301905092915050565b600061037b8261045a565b6103858185610472565b93506103908361044a565b8060005b838110156103c15781516103a88882610358565b97506103b383610465565b925050600181019050610394565b5085935050505092915050565b6103d781610483565b82525050565b600060208201905081810360008301526103f78184610370565b905092915050565b600061040961041a565b9050610415828261048d565b919050565b6000604051905090565b600067ffffffffffffffff82111561043f5761043e6104ed565b5b602082029050919050565b6000819050602082019050919050565b600081519050919050565b6000602082019050919050565b600082825260208201905092915050565b6000819050919050565b6104968261052b565b810181811067ffffffffffffffff821117156104b5576104b46104ed565b5b80604052505050565b7f4e487b7100000000000000000000000000000000000000000000000000000000600052603260045260246000fd5b7f4e487b7100000000000000000000000000000000000000000000000000000000600052604160045260246000fd5b600080fd5b600080fd5b600080fd5b6000601f19601f8301169050919050565b61054581610483565b811461055057600080fd5b5056fea26469706673582212204e4d0fdaa46b200ea06432d127c2db1477e620f612ec2608c4aa35c6412b94e264736f6c63430008070033",
					"opcodes": "PUSH1 0x80 PUSH1 0x40 MSTORE CALLVALUE DUP1 ISZERO PUSH2 0x10 JUMPI PUSH1 0x0 DUP1 REVERT JUMPDEST POP PUSH2 0x589 DUP1 PUSH2 0x20 PUSH1 0x0 CODECOPY PUSH1 0x0 RETURN INVALID PUSH1 0x80 PUSH1 0x40 MSTORE CALLVALUE DUP1 ISZERO PUSH2 0x10 JUMPI PUSH1 0x0 DUP1 REVERT JUMPDEST POP PUSH1 0x4 CALLDATASIZE LT PUSH2 0x41 JUMPI PUSH1 0x0 CALLDATALOAD PUSH1 0xE0 SHR DUP1 PUSH4 0x26121FF0 EQ PUSH2 0x46 JUMPI DUP1 PUSH4 0x47F6AC11 EQ PUSH2 0x50 JUMPI DUP1 PUSH4 0xD14D385D EQ PUSH2 0x6E JUMPI JUMPDEST PUSH1 0x0 DUP1 REVERT JUMPDEST PUSH2 0x4E PUSH2 0x8A JUMP JUMPDEST STOP JUMPDEST PUSH2 0x58 PUSH2 0x167 JUMP JUMPDEST PUSH1 0x40 MLOAD PUSH2 0x65 SWAP2 SWAP1 PUSH2 0x3DD JUMP JUMPDEST PUSH1 0x40 MLOAD DUP1 SWAP2 SUB SWAP1 RETURN JUMPDEST PUSH2 0x88 PUSH1 0x4 DUP1 CALLDATASIZE SUB DUP2 ADD SWAP1 PUSH2 0x83 SWAP2 SWAP1 PUSH2 0x32B JUMP JUMPDEST PUSH2 0x217 JUMP JUMPDEST STOP JUMPDEST PUSH1 0x0 PUSH1 0x3 PUSH8 0xFFFFFFFFFFFFFFFF DUP2 GT ISZERO PUSH2 0xA7 JUMPI PUSH2 0xA6 PUSH2 0x4ED JUMP JUMPDEST JUMPDEST PUSH1 0x40 MLOAD SWAP1 DUP1 DUP3 MSTORE DUP1 PUSH1 0x20 MUL PUSH1 0x20 ADD DUP3 ADD PUSH1 0x40 MSTORE DUP1 ISZERO PUSH2 0xD5 JUMPI DUP2 PUSH1 0x20 ADD PUSH1 0x20 DUP3 MUL DUP1 CALLDATASIZE DUP4 CALLDATACOPY DUP1 DUP3 ADD SWAP2 POP POP SWAP1 POP JUMPDEST POP SWAP1 POP PUSH1 0x1 DUP2 PUSH1 0x0 DUP2 MLOAD DUP2 LT PUSH2 0xEE JUMPI PUSH2 0xED PUSH2 0x4BE JUMP JUMPDEST JUMPDEST PUSH1 0x20 MUL PUSH1 0x20 ADD ADD DUP2 DUP2 MSTORE POP POP PUSH1 0x3 DUP2 PUSH1 0x1 DUP2 MLOAD DUP2 LT PUSH2 0x110 JUMPI PUSH2 0x10F PUSH2 0x4BE JUMP JUMPDEST JUMPDEST PUSH1 0x20 MUL PUSH1 0x20 ADD ADD DUP2 DUP2 MSTORE POP POP PUSH1 0x4 DUP2 PUSH1 0x2 DUP2 MLOAD DUP2 LT PUSH2 0x132 JUMPI PUSH2 0x131 PUSH2 0x4BE JUMP JUMPDEST JUMPDEST PUSH1 0x20 MUL PUSH1 0x20 ADD ADD DUP2 DUP2 MSTORE POP POP PUSH2 0x164 PUSH1 0x40 MLOAD DUP1 PUSH1 0x60 ADD PUSH1 0x40 MSTORE DUP1 PUSH1 0x1 DUP2 MSTORE PUSH1 0x20 ADD PUSH1 0x2 DUP2 MSTORE PUSH1 0x20 ADD PUSH1 0x3 DUP2 MSTORE POP PUSH2 0x217 JUMP JUMPDEST POP JUMP JUMPDEST PUSH1 0x60 PUSH1 0x0 PUSH1 0x40 MLOAD DUP1 PUSH1 0x40 ADD PUSH1 0x40 MSTORE DUP1 PUSH1 0x1 DUP2 MSTORE PUSH1 0x20 ADD PUSH1 0x2 DUP2 MSTORE POP SWAP1 POP DUP1 PUSH1 0x71 SWAP1 PUSH1 0x2 PUSH2 0x195 SWAP3 SWAP2 SWAP1 PUSH2 0x21A JUMP JUMPDEST POP PUSH1 0x71 PUSH1 0x3 SWAP1 DUP1 PUSH1 0x1 DUP2 SLOAD ADD DUP1 DUP3 SSTORE DUP1 SWAP2 POP POP PUSH1 0x1 SWAP1 SUB SWAP1 PUSH1 0x0 MSTORE PUSH1 0x20 PUSH1 0x0 KECCAK256 ADD PUSH1 0x0 SWAP1 SWAP2 SWAP1 SWAP2 SWAP1 SWAP2 POP SSTORE PUSH1 0x71 DUP1 SLOAD DUP1 PUSH1 0x20 MUL PUSH1 0x20 ADD PUSH1 0x40 MLOAD SWAP1 DUP2 ADD PUSH1 0x40 MSTORE DUP1 SWAP3 SWAP2 SWAP1 DUP2 DUP2 MSTORE PUSH1 0x20 ADD DUP3 DUP1 SLOAD DUP1 ISZERO PUSH2 0x20C JUMPI PUSH1 0x20 MUL DUP3 ADD SWAP2 SWAP1 PUSH1 0x0 MSTORE PUSH1 0x20 PUSH1 0x0 KECCAK256 SWAP1 JUMPDEST DUP2 SLOAD DUP2 MSTORE PUSH1 0x20 ADD SWAP1 PUSH1 0x1 ADD SWAP1 DUP1 DUP4 GT PUSH2 0x1F8 JUMPI JUMPDEST POP POP POP POP POP SWAP2 POP POP SWAP1 JUMP JUMPDEST POP JUMP JUMPDEST DUP3 DUP1 SLOAD DUP3 DUP3 SSTORE SWAP1 PUSH1 0x0 MSTORE PUSH1 0x20 PUSH1 0x0 KECCAK256 SWAP1 DUP2 ADD SWAP3 DUP3 ISZERO PUSH2 0x256 JUMPI SWAP2 PUSH1 0x20 MUL DUP3 ADD JUMPDEST DUP3 DUP2 GT ISZERO PUSH2 0x255 JUMPI DUP3 MLOAD DUP3 SSTORE SWAP2 PUSH1 0x20 ADD SWAP2 SWAP1 PUSH1 0x1 ADD SWAP1 PUSH2 0x23A JUMP JUMPDEST JUMPDEST POP SWAP1 POP PUSH2 0x263 SWAP2 SWAP1 PUSH2 0x267 JUMP JUMPDEST POP SWAP1 JUMP JUMPDEST JUMPDEST DUP1 DUP3 GT ISZERO PUSH2 0x280 JUMPI PUSH1 0x0 DUP2 PUSH1 0x0 SWAP1 SSTORE POP PUSH1 0x1 ADD PUSH2 0x268 JUMP JUMPDEST POP SWAP1 JUMP JUMPDEST PUSH1 0x0 PUSH2 0x297 PUSH2 0x292 DUP5 PUSH2 0x424 JUMP JUMPDEST PUSH2 0x3FF JUMP JUMPDEST SWAP1 POP DUP1 DUP3 DUP6 PUSH1 0x20 DUP7 MUL DUP3 ADD GT ISZERO PUSH2 0x2B1 JUMPI PUSH2 0x2B0 PUSH2 0x521 JUMP JUMPDEST JUMPDEST PUSH1 0x0 JUMPDEST DUP6 DUP2 LT ISZERO PUSH2 0x2E1 JUMPI DUP2 PUSH2 0x2C7 DUP9 DUP3 PUSH2 0x316 JUMP JUMPDEST DUP5 MSTORE PUSH1 0x20 DUP5 ADD SWAP4 POP PUSH1 0x20 DUP4 ADD SWAP3 POP POP PUSH1 0x1 DUP2 ADD SWAP1 POP PUSH2 0x2B4 JUMP JUMPDEST POP POP POP SWAP4 SWAP3 POP POP POP JUMP JUMPDEST PUSH1 0x0 DUP3 PUSH1 0x1F DUP4 ADD SLT PUSH2 0x300 JUMPI PUSH2 0x2FF PUSH2 0x51C JUMP JUMPDEST JUMPDEST PUSH1 0x3 PUSH2 0x30D DUP5 DUP3 DUP6 PUSH2 0x284 JUMP JUMPDEST SWAP2 POP POP SWAP3 SWAP2 POP POP JUMP JUMPDEST PUSH1 0x0 DUP2 CALLDATALOAD SWAP1 POP PUSH2 0x325 DUP2 PUSH2 0x53C JUMP JUMPDEST SWAP3 SWAP2 POP POP JUMP JUMPDEST PUSH1 0x0 PUSH1 0x60 DUP3 DUP5 SUB SLT ISZERO PUSH2 0x341 JUMPI PUSH2 0x340 PUSH2 0x526 JUMP JUMPDEST JUMPDEST PUSH1 0x0 PUSH2 0x34F DUP5 DUP3 DUP6 ADD PUSH2 0x2EB JUMP JUMPDEST SWAP2 POP POP SWAP3 SWAP2 POP POP JUMP JUMPDEST PUSH1 0x0 PUSH2 0x364 DUP4 DUP4 PUSH2 0x3CE JUMP JUMPDEST PUSH1 0x20 DUP4 ADD SWAP1 POP SWAP3 SWAP2 POP POP JUMP JUMPDEST PUSH1 0x0 PUSH2 0x37B DUP3 PUSH2 0x45A JUMP JUMPDEST PUSH2 0x385 DUP2 DUP6 PUSH2 0x472 JUMP JUMPDEST SWAP4 POP PUSH2 0x390 DUP4 PUSH2 0x44A JUMP JUMPDEST DUP1 PUSH1 0x0 JUMPDEST DUP4 DUP2 LT ISZERO PUSH2 0x3C1 JUMPI DUP2 MLOAD PUSH2 0x3A8 DUP9 DUP3 PUSH2 0x358 JUMP JUMPDEST SWAP8 POP PUSH2 0x3B3 DUP4 PUSH2 0x465 JUMP JUMPDEST SWAP3 POP POP PUSH1 0x1 DUP2 ADD SWAP1 POP PUSH2 0x394 JUMP JUMPDEST POP DUP6 SWAP4 POP POP POP POP SWAP3 SWAP2 POP POP JUMP JUMPDEST PUSH2 0x3D7 DUP2 PUSH2 0x483 JUMP JUMPDEST DUP3 MSTORE POP POP JUMP JUMPDEST PUSH1 0x0 PUSH1 0x20 DUP3 ADD SWAP1 POP DUP2 DUP2 SUB PUSH1 0x0 DUP4 ADD MSTORE PUSH2 0x3F7 DUP2 DUP5 PUSH2 0x370 JUMP JUMPDEST SWAP1 POP SWAP3 SWAP2 POP POP JUMP JUMPDEST PUSH1 0x0 PUSH2 0x409 PUSH2 0x41A JUMP JUMPDEST SWAP1 POP PUSH2 0x415 DUP3 DUP3 PUSH2 0x48D JUMP JUMPDEST SWAP2 SWAP1 POP JUMP JUMPDEST PUSH1 0x0 PUSH1 0x40 MLOAD SWAP1 POP SWAP1 JUMP JUMPDEST PUSH1 0x0 PUSH8 0xFFFFFFFFFFFFFFFF DUP3 GT ISZERO PUSH2 0x43F JUMPI PUSH2 0x43E PUSH2 0x4ED JUMP JUMPDEST JUMPDEST PUSH1 0x20 DUP3 MUL SWAP1 POP SWAP2 SWAP1 POP JUMP JUMPDEST PUSH1 0x0 DUP2 SWAP1 POP PUSH1 0x20 DUP3 ADD SWAP1 POP SWAP2 SWAP1 POP JUMP JUMPDEST PUSH1 0x0 DUP2 MLOAD SWAP1 POP SWAP2 SWAP1 POP JUMP JUMPDEST PUSH1 0x0 PUSH1 0x20 DUP3 ADD SWAP1 POP SWAP2 SWAP1 POP JUMP JUMPDEST PUSH1 0x0 DUP3 DUP3 MSTORE PUSH1 0x20 DUP3 ADD SWAP1 POP SWAP3 SWAP2 POP POP JUMP JUMPDEST PUSH1 0x0 DUP2 SWAP1 POP SWAP2 SWAP1 POP JUMP JUMPDEST PUSH2 0x496 DUP3 PUSH2 0x52B JUMP JUMPDEST DUP2 ADD DUP2 DUP2 LT PUSH8 0xFFFFFFFFFFFFFFFF DUP3 GT OR ISZERO PUSH2 0x4B5 JUMPI PUSH2 0x4B4 PUSH2 0x4ED JUMP JUMPDEST JUMPDEST DUP1 PUSH1 0x40 MSTORE POP POP POP JUMP JUMPDEST PUSH32 0x4E487B7100000000000000000000000000000000000000000000000000000000 PUSH1 0x0 MSTORE PUSH1 0x32 PUSH1 0x4 MSTORE PUSH1 0x24 PUSH1 0x0 REVERT JUMPDEST PUSH32 0x4E487B7100000000000000000000000000000000000000000000000000000000 PUSH1 0x0 MSTORE PUSH1 0x41 PUSH1 0x4 MSTORE PUSH1 0x24 PUSH1 0x0 REVERT JUMPDEST PUSH1 0x0 DUP1 REVERT JUMPDEST PUSH1 0x0 DUP1 REVERT JUMPDEST PUSH1 0x0 DUP1 REVERT JUMPDEST PUSH1 0x0 PUSH1 0x1F NOT PUSH1 0x1F DUP4 ADD AND SWAP1 POP SWAP2 SWAP1 POP JUMP JUMPDEST PUSH2 0x545 DUP2 PUSH2 0x483 JUMP JUMPDEST DUP2 EQ PUSH2 0x550 JUMPI PUSH1 0x0 DUP1 REVERT JUMPDEST POP JUMP INVALID LOG2 PUSH5 0x6970667358 0x22 SLT KECCAK256 0x4E 0x4D 0xF 0xDA LOG4 PUSH12 0x200EA06432D127C2DB1477E6 KECCAK256 0xF6 SLT 0xEC 0x26 ADDMOD 0xC4 0xAA CALLDATALOAD 0xC6 COINBASE 0x2B SWAP5 0xE2 PUSH5 0x736F6C6343 STOP ADDMOD SMOD STOP CALLER "
				},
				"gasEstimates": {
					"creation": {
						"codeDepositCost": "283400",
						"executionCost": "324",
						"totalCost": "283724"
					},
					"external": {
						"arrayPush()": "infinite",
						"f()": "infinite",
						"g(uint256[3])": "infinite"
					}
				},
				"methodIdentifiers": {
					"arrayPush()": "47f6ac11",
					"f()": "26121ff0",
					"g(uint256[3])": "d14d385d"
				}
			},
			"storageLayout": {
				"storage": [
					{
						"astId": 5,
						"contract": "remix/006/Array-Struct.sol:Array",
						"label": "array1",
						"offset": 0,
						"slot": "0",
						"type": "t_array(t_uint256)8_storage"
					},
					{
						"astId": 9,
						"contract": "remix/006/Array-Struct.sol:Array",
						"label": "array2",
						"offset": 0,
						"slot": "8",
						"type": "t_array(t_bytes_storage)5_storage"
					},
					{
						"astId": 13,
						"contract": "remix/006/Array-Struct.sol:Array",
						"label": "array3",
						"offset": 0,
						"slot": "13",
						"type": "t_array(t_address)100_storage"
					},
					{
						"astId": 16,
						"contract": "remix/006/Array-Struct.sol:Array",
						"label": "array4",
						"offset": 0,
						"slot": "113",
						"type": "t_array(t_uint256)dyn_storage"
					},
					{
						"astId": 19,
						"contract": "remix/006/Array-Struct.sol:Array",
						"label": "array5",
						"offset": 0,
						"slot": "114",
						"type": "t_array(t_bytes_storage)dyn_storage"
					},
					{
						"astId": 22,
						"contract": "remix/006/Array-Struct.sol:Array",
						"label": "array6",
						"offset": 0,
						"slot": "115",
						"type": "t_array(t_address)dyn_storage"
					}
				],
				"types": {
					"t_address": {
						"encoding": "inplace",
						"label": "address",
						"numberOfBytes": "20"
					},
					"t_array(t_address)100_storage": {
						"base": "t_address",
						"encoding": "inplace",
						"label": "address[100]",
						"numberOfBytes": "3200"
					},
					"t_array(t_address)dyn_storage": {
						"base": "t_address",
						"encoding": "dynamic_array",
						"label": "address[]",
						"numberOfBytes": "32"
					},
					"t_array(t_bytes_storage)5_storage": {
						"base": "t_bytes_storage",
						"encoding": "inplace",
						"label": "bytes[5]",
						"numberOfBytes": "160"
					},
					"t_array(t_bytes_storage)dyn_storage": {
						"base": "t_bytes_storage",
						"encoding": "dynamic_array",
						"label": "bytes[]",
						"numberOfBytes": "32"
					},
					"t_array(t_uint256)8_storage": {
						"base": "t_uint256",
						"encoding": "inplace",
						"label": "uint256[8]",
						"numberOfBytes": "256"
					},
					"t_array(t_uint256)dyn_storage": {
						"base": "t_uint256",
						"encoding": "dynamic_array",
						"label": "uint256[]",
						"numberOfBytes": "32"
					},
					"t_bytes_storage": {
						"encoding": "bytes",
						"label": "bytes",
						"numberOfBytes": "32"
					},
					"t_uint256": {
						"encoding": "inplace",
						"label": "uint256",
						"numberOfBytes": "32"
					}
				}
			},
			"userdoc": {
				"kind": "user",
				"methods": {},
				"version": 1
			}
		}
	}
}