{
	"remix/006/Array-Struct.sol": {
		"Array": {
			"abi": [
				{
					"inputs": [],
					"name": "f",
					"outputs": [],
					"stateMutability": "pure",
					"type": "function"
				},
				{
					"inputs": [
						{
							"internalType": "uint256[3]",
							"name": "",
							"type": "uint256[3]"
						}
					],
					"name": "g",
					"outputs": [],
					"stateMutability": "pure",
					"type": "function"
				}
			],
			"devdoc": {
				"kind": "dev",
				"methods": {},
				"version": 1
			},
			"evm": {
				"assembly": "    /* \"remix/006/Array-Struct.sol\":35:501  contract Array{\r... */\n  mstore(0x40, 0x80)\n  callvalue\n  dup1\n  iszero\n  tag_1\n  jumpi\n  0x00\n  dup1\n  revert\ntag_1:\n  pop\n  dataSize(sub_0)\n  dup1\n  dataOffset(sub_0)\n  0x00\n  codecopy\n  0x00\n  return\nstop\n\nsub_0: assembly {\n        /* \"remix/006/Array-Struct.sol\":35:501  contract Array{\r... */\n      mstore(0x40, 0x80)\n      callvalue\n      dup1\n      iszero\n      tag_1\n      jumpi\n      0x00\n      dup1\n      revert\n    tag_1:\n      pop\n      jumpi(tag_2, lt(calldatasize, 0x04))\n      shr(0xe0, calldataload(0x00))\n      dup1\n      0x26121ff0\n      eq\n      tag_3\n      jumpi\n      dup1\n      0xd14d385d\n      eq\n      tag_4\n      jumpi\n    tag_2:\n      0x00\n      dup1\n      revert\n        /* \"remix/006/Array-Struct.sol\":287:441  function f() public pure{\r... */\n    tag_3:\n      tag_5\n      tag_6\n      jump\t// in\n    tag_5:\n      stop\n        /* \"remix/006/Array-Struct.sol\":449:497  function g(uint[3] memory) public pure{\r... */\n    tag_4:\n      tag_7\n      0x04\n      dup1\n      calldatasize\n      sub\n      dup2\n      add\n      swap1\n      tag_8\n      swap2\n      swap1\n      tag_9\n      jump\t// in\n    tag_8:\n      tag_10\n      jump\t// in\n    tag_7:\n      stop\n        /* \"remix/006/Array-Struct.sol\":287:441  function f() public pure{\r... */\n    tag_6:\n        /* \"remix/006/Array-Struct.sol\":322:337  uint[] memory x */\n      0x00\n        /* \"remix/006/Array-Struct.sol\":351:352  3 */\n      0x03\n        /* \"remix/006/Array-Struct.sol\":340:353  new uint[](3) */\n      0xffffffffffffffff\n      dup2\n      gt\n      iszero\n      tag_12\n      jumpi\n      tag_13\n      tag_14\n      jump\t// in\n    tag_13:\n    tag_12:\n      mload(0x40)\n      swap1\n      dup1\n      dup3\n      mstore\n      dup1\n      0x20\n      mul\n      0x20\n      add\n      dup3\n      add\n      0x40\n      mstore\n      dup1\n      iszero\n      tag_15\n      jumpi\n      dup2\n      0x20\n      add\n      0x20\n      dup3\n      mul\n      dup1\n      calldatasize\n      dup4\n      calldatacopy\n      dup1\n      dup3\n      add\n      swap2\n      pop\n      pop\n      swap1\n      pop\n    tag_15:\n      pop\n        /* \"remix/006/Array-Struct.sol\":322:353  uint[] memory x = new uint[](3) */\n      swap1\n      pop\n        /* \"remix/006/Array-Struct.sol\":369:370  1 */\n      0x01\n        /* \"remix/006/Array-Struct.sol\":364:365  x */\n      dup2\n        /* \"remix/006/Array-Struct.sol\":366:367  0 */\n      0x00\n        /* \"remix/006/Array-Struct.sol\":364:368  x[0] */\n      dup2\n      mload\n      dup2\n      lt\n      tag_16\n      jumpi\n      tag_17\n      tag_18\n      jump\t// in\n    tag_17:\n    tag_16:\n      0x20\n      mul\n      0x20\n      add\n      add\n        /* \"remix/006/Array-Struct.sol\":364:370  x[0]=1 */\n      dup2\n      dup2\n      mstore\n      pop\n      pop\n        /* \"remix/006/Array-Struct.sol\":386:387  3 */\n      0x03\n        /* \"remix/006/Array-Struct.sol\":381:382  x */\n      dup2\n        /* \"remix/006/Array-Struct.sol\":383:384  1 */\n      0x01\n        /* \"remix/006/Array-Struct.sol\":381:385  x[1] */\n      dup2\n      mload\n      dup2\n      lt\n      tag_19\n      jumpi\n      tag_20\n      tag_18\n      jump\t// in\n    tag_20:\n    tag_19:\n      0x20\n      mul\n      0x20\n      add\n      add\n        /* \"remix/006/Array-Struct.sol\":381:387  x[1]=3 */\n      dup2\n      dup2\n      mstore\n      pop\n      pop\n        /* \"remix/006/Array-Struct.sol\":405:406  4 */\n      0x04\n        /* \"remix/006/Array-Struct.sol\":398:399  x */\n      dup2\n        /* \"remix/006/Array-Struct.sol\":400:401  2 */\n      0x02\n        /* \"remix/006/Array-Struct.sol\":398:402  x[2] */\n      dup2\n      mload\n      dup2\n      lt\n      tag_21\n      jumpi\n      tag_22\n      tag_18\n      jump\t// in\n    tag_22:\n    tag_21:\n      0x20\n      mul\n      0x20\n      add\n      add\n        /* \"remix/006/Array-Struct.sol\":398:406  x[2] = 4 */\n      dup2\n      dup2\n      mstore\n      pop\n      pop\n        /* \"remix/006/Array-Struct.sol\":417:433  g([uint(1),2,3]) */\n      tag_23\n      mload(0x40)\n      dup1\n      0x60\n      add\n      0x40\n      mstore\n      dup1\n        /* \"remix/006/Array-Struct.sol\":425:426  1 */\n      0x01\n        /* \"remix/006/Array-Struct.sol\":417:433  g([uint(1),2,3]) */\n      dup2\n      mstore\n      0x20\n      add\n        /* \"remix/006/Array-Struct.sol\":428:429  2 */\n      0x02\n        /* \"remix/006/Array-Struct.sol\":417:433  g([uint(1),2,3]) */\n      dup2\n      mstore\n      0x20\n      add\n        /* \"remix/006/Array-Struct.sol\":430:431  3 */\n      0x03\n        /* \"remix/006/Array-Struct.sol\":417:433  g([uint(1),2,3]) */\n      dup2\n      mstore\n      pop\n        /* \"remix/006/Array-Struct.sol\":417:418  g */\n      tag_10\n        /* \"remix/006/Array-Struct.sol\":417:433  g([uint(1),2,3]) */\n      jump\t// in\n    tag_23:\n        /* \"remix/006/Array-Struct.sol\":311:441  {\r... */\n      pop\n        /* \"remix/006/Array-Struct.sol\":287:441  function f() public pure{\r... */\n      jump\t// out\n        /* \"remix/006/Array-Struct.sol\":449:497  function g(uint[3] memory) public pure{\r... */\n    tag_10:\n      pop\n      jump\t// out\n        /* \"#utility.yul\":25:680   */\n    tag_26:\n        /* \"#utility.yul\":119:124   */\n      0x00\n        /* \"#utility.yul\":144:223   */\n      tag_28\n        /* \"#utility.yul\":160:222   */\n      tag_29\n        /* \"#utility.yul\":215:221   */\n      dup5\n        /* \"#utility.yul\":160:222   */\n      tag_30\n      jump\t// in\n    tag_29:\n        /* \"#utility.yul\":144:223   */\n      tag_31\n      jump\t// in\n    tag_28:\n        /* \"#utility.yul\":135:223   */\n      swap1\n      pop\n        /* \"#utility.yul\":243:248   */\n      dup1\n        /* \"#utility.yul\":269:275   */\n      dup3\n        /* \"#utility.yul\":319:322   */\n      dup6\n        /* \"#utility.yul\":311:315   */\n      0x20\n        /* \"#utility.yul\":303:309   */\n      dup7\n        /* \"#utility.yul\":299:316   */\n      mul\n        /* \"#utility.yul\":294:297   */\n      dup3\n        /* \"#utility.yul\":290:317   */\n      add\n        /* \"#utility.yul\":287:323   */\n      gt\n        /* \"#utility.yul\":284:427   */\n      iszero\n      tag_32\n      jumpi\n        /* \"#utility.yul\":338:417   */\n      tag_33\n      tag_34\n      jump\t// in\n    tag_33:\n        /* \"#utility.yul\":284:427   */\n    tag_32:\n        /* \"#utility.yul\":451:452   */\n      0x00\n        /* \"#utility.yul\":436:674   */\n    tag_35:\n        /* \"#utility.yul\":461:467   */\n      dup6\n        /* \"#utility.yul\":458:459   */\n      dup2\n        /* \"#utility.yul\":455:468   */\n      lt\n        /* \"#utility.yul\":436:674   */\n      iszero\n      tag_37\n      jumpi\n        /* \"#utility.yul\":529:532   */\n      dup2\n        /* \"#utility.yul\":558:595   */\n      tag_38\n        /* \"#utility.yul\":591:594   */\n      dup9\n        /* \"#utility.yul\":579:589   */\n      dup3\n        /* \"#utility.yul\":558:595   */\n      tag_39\n      jump\t// in\n    tag_38:\n        /* \"#utility.yul\":553:556   */\n      dup5\n        /* \"#utility.yul\":546:596   */\n      mstore\n        /* \"#utility.yul\":625:629   */\n      0x20\n        /* \"#utility.yul\":620:623   */\n      dup5\n        /* \"#utility.yul\":616:630   */\n      add\n        /* \"#utility.yul\":609:630   */\n      swap4\n      pop\n        /* \"#utility.yul\":659:663   */\n      0x20\n        /* \"#utility.yul\":654:657   */\n      dup4\n        /* \"#utility.yul\":650:664   */\n      add\n        /* \"#utility.yul\":643:664   */\n      swap3\n      pop\n        /* \"#utility.yul\":496:674   */\n      pop\n        /* \"#utility.yul\":483:484   */\n      0x01\n        /* \"#utility.yul\":480:481   */\n      dup2\n        /* \"#utility.yul\":476:485   */\n      add\n        /* \"#utility.yul\":471:485   */\n      swap1\n      pop\n        /* \"#utility.yul\":436:674   */\n      jump(tag_35)\n    tag_37:\n        /* \"#utility.yul\":440:454   */\n      pop\n        /* \"#utility.yul\":125:680   */\n      pop\n      pop\n        /* \"#utility.yul\":25:680   */\n      swap4\n      swap3\n      pop\n      pop\n      pop\n      jump\t// out\n        /* \"#utility.yul\":704:1043   */\n    tag_40:\n        /* \"#utility.yul\":773:778   */\n      0x00\n        /* \"#utility.yul\":822:825   */\n      dup3\n        /* \"#utility.yul\":815:819   */\n      0x1f\n        /* \"#utility.yul\":807:813   */\n      dup4\n        /* \"#utility.yul\":803:820   */\n      add\n        /* \"#utility.yul\":799:826   */\n      slt\n        /* \"#utility.yul\":789:911   */\n      tag_42\n      jumpi\n        /* \"#utility.yul\":830:909   */\n      tag_43\n      tag_44\n      jump\t// in\n    tag_43:\n        /* \"#utility.yul\":789:911   */\n    tag_42:\n        /* \"#utility.yul\":934:938   */\n      0x03\n        /* \"#utility.yul\":956:1037   */\n      tag_45\n        /* \"#utility.yul\":1033:1036   */\n      dup5\n        /* \"#utility.yul\":1025:1031   */\n      dup3\n        /* \"#utility.yul\":1017:1023   */\n      dup6\n        /* \"#utility.yul\":956:1037   */\n      tag_26\n      jump\t// in\n    tag_45:\n        /* \"#utility.yul\":947:1037   */\n      swap2\n      pop\n        /* \"#utility.yul\":779:1043   */\n      pop\n        /* \"#utility.yul\":704:1043   */\n      swap3\n      swap2\n      pop\n      pop\n      jump\t// out\n        /* \"#utility.yul\":1049:1188   */\n    tag_39:\n        /* \"#utility.yul\":1095:1100   */\n      0x00\n        /* \"#utility.yul\":1133:1139   */\n      dup2\n        /* \"#utility.yul\":1120:1140   */\n      calldataload\n        /* \"#utility.yul\":1111:1140   */\n      swap1\n      pop\n        /* \"#utility.yul\":1149:1182   */\n      tag_47\n        /* \"#utility.yul\":1176:1181   */\n      dup2\n        /* \"#utility.yul\":1149:1182   */\n      tag_48\n      jump\t// in\n    tag_47:\n        /* \"#utility.yul\":1049:1188   */\n      swap3\n      swap2\n      pop\n      pop\n      jump\t// out\n        /* \"#utility.yul\":1194:1569   */\n    tag_9:\n        /* \"#utility.yul\":1276:1282   */\n      0x00\n        /* \"#utility.yul\":1325:1327   */\n      0x60\n        /* \"#utility.yul\":1313:1322   */\n      dup3\n        /* \"#utility.yul\":1304:1311   */\n      dup5\n        /* \"#utility.yul\":1300:1323   */\n      sub\n        /* \"#utility.yul\":1296:1328   */\n      slt\n        /* \"#utility.yul\":1293:1412   */\n      iszero\n      tag_50\n      jumpi\n        /* \"#utility.yul\":1331:1410   */\n      tag_51\n      tag_52\n      jump\t// in\n    tag_51:\n        /* \"#utility.yul\":1293:1412   */\n    tag_50:\n        /* \"#utility.yul\":1451:1452   */\n      0x00\n        /* \"#utility.yul\":1476:1552   */\n      tag_53\n        /* \"#utility.yul\":1544:1551   */\n      dup5\n        /* \"#utility.yul\":1535:1541   */\n      dup3\n        /* \"#utility.yul\":1524:1533   */\n      dup6\n        /* \"#utility.yul\":1520:1542   */\n      add\n        /* \"#utility.yul\":1476:1552   */\n      tag_40\n      jump\t// in\n    tag_53:\n        /* \"#utility.yul\":1466:1552   */\n      swap2\n      pop\n        /* \"#utility.yul\":1422:1562   */\n      pop\n        /* \"#utility.yul\":1194:1569   */\n      swap3\n      swap2\n      pop\n      pop\n      jump\t// out\n        /* \"#utility.yul\":1575:1704   */\n    tag_31:\n        /* \"#utility.yul\":1609:1615   */\n      0x00\n        /* \"#utility.yul\":1636:1656   */\n      tag_55\n      tag_56\n      jump\t// in\n    tag_55:\n        /* \"#utility.yul\":1626:1656   */\n      swap1\n      pop\n        /* \"#utility.yul\":1665:1698   */\n      tag_57\n        /* \"#utility.yul\":1693:1697   */\n      dup3\n        /* \"#utility.yul\":1685:1691   */\n      dup3\n        /* \"#utility.yul\":1665:1698   */\n      tag_58\n      jump\t// in\n    tag_57:\n        /* \"#utility.yul\":1575:1704   */\n      swap2\n      swap1\n      pop\n      jump\t// out\n        /* \"#utility.yul\":1710:1785   */\n    tag_56:\n        /* \"#utility.yul\":1743:1749   */\n      0x00\n        /* \"#utility.yul\":1776:1778   */\n      0x40\n        /* \"#utility.yul\":1770:1779   */\n      mload\n        /* \"#utility.yul\":1760:1779   */\n      swap1\n      pop\n        /* \"#utility.yul\":1710:1785   */\n      swap1\n      jump\t// out\n        /* \"#utility.yul\":1791:2040   */\n    tag_30:\n        /* \"#utility.yul\":1866:1870   */\n      0x00\n        /* \"#utility.yul\":1956:1974   */\n      0xffffffffffffffff\n        /* \"#utility.yul\":1948:1954   */\n      dup3\n        /* \"#utility.yul\":1945:1975   */\n      gt\n        /* \"#utility.yul\":1942:1998   */\n      iszero\n      tag_61\n      jumpi\n        /* \"#utility.yul\":1978:1996   */\n      tag_62\n      tag_14\n      jump\t// in\n    tag_62:\n        /* \"#utility.yul\":1942:1998   */\n    tag_61:\n        /* \"#utility.yul\":2028:2032   */\n      0x20\n        /* \"#utility.yul\":2020:2026   */\n      dup3\n        /* \"#utility.yul\":2016:2033   */\n      mul\n        /* \"#utility.yul\":2008:2033   */\n      swap1\n      pop\n        /* \"#utility.yul\":1791:2040   */\n      swap2\n      swap1\n      pop\n      jump\t// out\n        /* \"#utility.yul\":2046:2123   */\n    tag_63:\n        /* \"#utility.yul\":2083:2090   */\n      0x00\n        /* \"#utility.yul\":2112:2117   */\n      dup2\n        /* \"#utility.yul\":2101:2117   */\n      swap1\n      pop\n        /* \"#utility.yul\":2046:2123   */\n      swap2\n      swap1\n      pop\n      jump\t// out\n        /* \"#utility.yul\":2129:2410   */\n    tag_58:\n        /* \"#utility.yul\":2212:2239   */\n      tag_66\n        /* \"#utility.yul\":2234:2238   */\n      dup3\n        /* \"#utility.yul\":2212:2239   */\n      tag_67\n      jump\t// in\n    tag_66:\n        /* \"#utility.yul\":2204:2210   */\n      dup2\n        /* \"#utility.yul\":2200:2240   */\n      add\n        /* \"#utility.yul\":2342:2348   */\n      dup2\n        /* \"#utility.yul\":2330:2340   */\n      dup2\n        /* \"#utility.yul\":2327:2349   */\n      lt\n        /* \"#utility.yul\":2306:2324   */\n      0xffffffffffffffff\n        /* \"#utility.yul\":2294:2304   */\n      dup3\n        /* \"#utility.yul\":2291:2325   */\n      gt\n        /* \"#utility.yul\":2288:2350   */\n      or\n        /* \"#utility.yul\":2285:2373   */\n      iszero\n      tag_68\n      jumpi\n        /* \"#utility.yul\":2353:2371   */\n      tag_69\n      tag_14\n      jump\t// in\n    tag_69:\n        /* \"#utility.yul\":2285:2373   */\n    tag_68:\n        /* \"#utility.yul\":2393:2403   */\n      dup1\n        /* \"#utility.yul\":2389:2391   */\n      0x40\n        /* \"#utility.yul\":2382:2404   */\n      mstore\n        /* \"#utility.yul\":2172:2410   */\n      pop\n        /* \"#utility.yul\":2129:2410   */\n      pop\n      pop\n      jump\t// out\n        /* \"#utility.yul\":2416:2596   */\n    tag_18:\n        /* \"#utility.yul\":2464:2541   */\n      0x4e487b7100000000000000000000000000000000000000000000000000000000\n        /* \"#utility.yul\":2461:2462   */\n      0x00\n        /* \"#utility.yul\":2454:2542   */\n      mstore\n        /* \"#utility.yul\":2561:2565   */\n      0x32\n        /* \"#utility.yul\":2558:2559   */\n      0x04\n        /* \"#utility.yul\":2551:2566   */\n      mstore\n        /* \"#utility.yul\":2585:2589   */\n      0x24\n        /* \"#utility.yul\":2582:2583   */\n      0x00\n        /* \"#utility.yul\":2575:2590   */\n      revert\n        /* \"#utility.yul\":2602:2782   */\n    tag_14:\n        /* \"#utility.yul\":2650:2727   */\n      0x4e487b7100000000000000000000000000000000000000000000000000000000\n        /* \"#utility.yul\":2647:2648   */\n      0x00\n        /* \"#utility.yul\":2640:2728   */\n      mstore\n        /* \"#utility.yul\":2747:2751   */\n      0x41\n        /* \"#utility.yul\":2744:2745   */\n      0x04\n        /* \"#utility.yul\":2737:2752   */\n      mstore\n        /* \"#utility.yul\":2771:2775   */\n      0x24\n        /* \"#utility.yul\":2768:2769   */\n      0x00\n        /* \"#utility.yul\":2761:2776   */\n      revert\n        /* \"#utility.yul\":2788:2905   */\n    tag_44:\n        /* \"#utility.yul\":2897:2898   */\n      0x00\n        /* \"#utility.yul\":2894:2895   */\n      dup1\n        /* \"#utility.yul\":2887:2899   */\n      revert\n        /* \"#utility.yul\":2911:3028   */\n    tag_34:\n        /* \"#utility.yul\":3020:3021   */\n      0x00\n        /* \"#utility.yul\":3017:3018   */\n      dup1\n        /* \"#utility.yul\":3010:3022   */\n      revert\n        /* \"#utility.yul\":3157:3274   */\n    tag_52:\n        /* \"#utility.yul\":3266:3267   */\n      0x00\n        /* \"#utility.yul\":3263:3264   */\n      dup1\n        /* \"#utility.yul\":3256:3268   */\n      revert\n        /* \"#utility.yul\":3280:3382   */\n    tag_67:\n        /* \"#utility.yul\":3321:3327   */\n      0x00\n        /* \"#utility.yul\":3372:3374   */\n      0x1f\n        /* \"#utility.yul\":3368:3375   */\n      not\n        /* \"#utility.yul\":3363:3365   */\n      0x1f\n        /* \"#utility.yul\":3356:3361   */\n      dup4\n        /* \"#utility.yul\":3352:3366   */\n      add\n        /* \"#utility.yul\":3348:3376   */\n      and\n        /* \"#utility.yul\":3338:3376   */\n      swap1\n      pop\n        /* \"#utility.yul\":3280:3382   */\n      swap2\n      swap1\n      pop\n      jump\t// out\n        /* \"#utility.yul\":3388:3510   */\n    tag_48:\n        /* \"#utility.yul\":3461:3485   */\n      tag_79\n        /* \"#utility.yul\":3479:3484   */\n      dup2\n        /* \"#utility.yul\":3461:3485   */\n      tag_63\n      jump\t// in\n    tag_79:\n        /* \"#utility.yul\":3454:3459   */\n      dup2\n        /* \"#utility.yul\":3451:3486   */\n      eq\n        /* \"#utility.yul\":3441:3504   */\n      tag_80\n      jumpi\n        /* \"#utility.yul\":3500:3501   */\n      0x00\n        /* \"#utility.yul\":3497:3498   */\n      dup1\n        /* \"#utility.yul\":3490:3502   */\n      revert\n        /* \"#utility.yul\":3441:3504   */\n    tag_80:\n        /* \"#utility.yul\":3388:3510   */\n      pop\n      jump\t// out\n\n    auxdata: 0xa26469706673582212206e1886373e2961c41dc0870948482bfbc71be1aba3e211cc782fb171d0da8f2f64736f6c63430008070033\n}\n",
				"bytecode": {
					"linkReferences": {},
					"object": "608060405234801561001057600080fd5b50610366806100206000396000f3fe608060405234801561001057600080fd5b50600436106100365760003560e01c806326121ff01461003b578063d14d385d14610045575b600080fd5b610043610061565b005b61005f600480360381019061005a91906101e8565b61013e565b005b6000600367ffffffffffffffff81111561007e5761007d6102ca565b5b6040519080825280602002602001820160405280156100ac5781602001602082028036833780820191505090505b5090506001816000815181106100c5576100c461029b565b5b6020026020010181815250506003816001815181106100e7576100e661029b565b5b6020026020010181815250506004816002815181106101095761010861029b565b5b60200260200101818152505061013b60405180606001604052806001815260200160028152602001600381525061013e565b50565b50565b600061015461014f8461023a565b610215565b9050808285602086028201111561016e5761016d6102fe565b5b60005b8581101561019e578161018488826101d3565b845260208401935060208301925050600181019050610171565b5050509392505050565b600082601f8301126101bd576101bc6102f9565b5b60036101ca848285610141565b91505092915050565b6000813590506101e281610319565b92915050565b6000606082840312156101fe576101fd610303565b5b600061020c848285016101a8565b91505092915050565b600061021f610230565b905061022b828261026a565b919050565b6000604051905090565b600067ffffffffffffffff821115610255576102546102ca565b5b602082029050919050565b6000819050919050565b61027382610308565b810181811067ffffffffffffffff82111715610292576102916102ca565b5b80604052505050565b7f4e487b7100000000000000000000000000000000000000000000000000000000600052603260045260246000fd5b7f4e487b7100000000000000000000000000000000000000000000000000000000600052604160045260246000fd5b600080fd5b600080fd5b600080fd5b6000601f19601f8301169050919050565b61032281610260565b811461032d57600080fd5b5056fea26469706673582212206e1886373e2961c41dc0870948482bfbc71be1aba3e211cc782fb171d0da8f2f64736f6c63430008070033",
					"opcodes": "PUSH1 0x80 PUSH1 0x40 MSTORE CALLVALUE DUP1 ISZERO PUSH2 0x10 JUMPI PUSH1 0x0 DUP1 REVERT JUMPDEST POP PUSH2 0x366 DUP1 PUSH2 0x20 PUSH1 0x0 CODECOPY PUSH1 0x0 RETURN INVALID PUSH1 0x80 PUSH1 0x40 MSTORE CALLVALUE DUP1 ISZERO PUSH2 0x10 JUMPI PUSH1 0x0 DUP1 REVERT JUMPDEST POP PUSH1 0x4 CALLDATASIZE LT PUSH2 0x36 JUMPI PUSH1 0x0 CALLDATALOAD PUSH1 0xE0 SHR DUP1 PUSH4 0x26121FF0 EQ PUSH2 0x3B JUMPI DUP1 PUSH4 0xD14D385D EQ PUSH2 0x45 JUMPI JUMPDEST PUSH1 0x0 DUP1 REVERT JUMPDEST PUSH2 0x43 PUSH2 0x61 JUMP JUMPDEST STOP JUMPDEST PUSH2 0x5F PUSH1 0x4 DUP1 CALLDATASIZE SUB DUP2 ADD SWAP1 PUSH2 0x5A SWAP2 SWAP1 PUSH2 0x1E8 JUMP JUMPDEST PUSH2 0x13E JUMP JUMPDEST STOP JUMPDEST PUSH1 0x0 PUSH1 0x3 PUSH8 0xFFFFFFFFFFFFFFFF DUP2 GT ISZERO PUSH2 0x7E JUMPI PUSH2 0x7D PUSH2 0x2CA JUMP JUMPDEST JUMPDEST PUSH1 0x40 MLOAD SWAP1 DUP1 DUP3 MSTORE DUP1 PUSH1 0x20 MUL PUSH1 0x20 ADD DUP3 ADD PUSH1 0x40 MSTORE DUP1 ISZERO PUSH2 0xAC JUMPI DUP2 PUSH1 0x20 ADD PUSH1 0x20 DUP3 MUL DUP1 CALLDATASIZE DUP4 CALLDATACOPY DUP1 DUP3 ADD SWAP2 POP POP SWAP1 POP JUMPDEST POP SWAP1 POP PUSH1 0x1 DUP2 PUSH1 0x0 DUP2 MLOAD DUP2 LT PUSH2 0xC5 JUMPI PUSH2 0xC4 PUSH2 0x29B JUMP JUMPDEST JUMPDEST PUSH1 0x20 MUL PUSH1 0x20 ADD ADD DUP2 DUP2 MSTORE POP POP PUSH1 0x3 DUP2 PUSH1 0x1 DUP2 MLOAD DUP2 LT PUSH2 0xE7 JUMPI PUSH2 0xE6 PUSH2 0x29B JUMP JUMPDEST JUMPDEST PUSH1 0x20 MUL PUSH1 0x20 ADD ADD DUP2 DUP2 MSTORE POP POP PUSH1 0x4 DUP2 PUSH1 0x2 DUP2 MLOAD DUP2 LT PUSH2 0x109 JUMPI PUSH2 0x108 PUSH2 0x29B JUMP JUMPDEST JUMPDEST PUSH1 0x20 MUL PUSH1 0x20 ADD ADD DUP2 DUP2 MSTORE POP POP PUSH2 0x13B PUSH1 0x40 MLOAD DUP1 PUSH1 0x60 ADD PUSH1 0x40 MSTORE DUP1 PUSH1 0x1 DUP2 MSTORE PUSH1 0x20 ADD PUSH1 0x2 DUP2 MSTORE PUSH1 0x20 ADD PUSH1 0x3 DUP2 MSTORE POP PUSH2 0x13E JUMP JUMPDEST POP JUMP JUMPDEST POP JUMP JUMPDEST PUSH1 0x0 PUSH2 0x154 PUSH2 0x14F DUP5 PUSH2 0x23A JUMP JUMPDEST PUSH2 0x215 JUMP JUMPDEST SWAP1 POP DUP1 DUP3 DUP6 PUSH1 0x20 DUP7 MUL DUP3 ADD GT ISZERO PUSH2 0x16E JUMPI PUSH2 0x16D PUSH2 0x2FE JUMP JUMPDEST JUMPDEST PUSH1 0x0 JUMPDEST DUP6 DUP2 LT ISZERO PUSH2 0x19E JUMPI DUP2 PUSH2 0x184 DUP9 DUP3 PUSH2 0x1D3 JUMP JUMPDEST DUP5 MSTORE PUSH1 0x20 DUP5 ADD SWAP4 POP PUSH1 0x20 DUP4 ADD SWAP3 POP POP PUSH1 0x1 DUP2 ADD SWAP1 POP PUSH2 0x171 JUMP JUMPDEST POP POP POP SWAP4 SWAP3 POP POP POP JUMP JUMPDEST PUSH1 0x0 DUP3 PUSH1 0x1F DUP4 ADD SLT PUSH2 0x1BD JUMPI PUSH2 0x1BC PUSH2 0x2F9 JUMP JUMPDEST JUMPDEST PUSH1 0x3 PUSH2 0x1CA DUP5 DUP3 DUP6 PUSH2 0x141 JUMP JUMPDEST SWAP2 POP POP SWAP3 SWAP2 POP POP JUMP JUMPDEST PUSH1 0x0 DUP2 CALLDATALOAD SWAP1 POP PUSH2 0x1E2 DUP2 PUSH2 0x319 JUMP JUMPDEST SWAP3 SWAP2 POP POP JUMP JUMPDEST PUSH1 0x0 PUSH1 0x60 DUP3 DUP5 SUB SLT ISZERO PUSH2 0x1FE JUMPI PUSH2 0x1FD PUSH2 0x303 JUMP JUMPDEST JUMPDEST PUSH1 0x0 PUSH2 0x20C DUP5 DUP3 DUP6 ADD PUSH2 0x1A8 JUMP JUMPDEST SWAP2 POP POP SWAP3 SWAP2 POP POP JUMP JUMPDEST PUSH1 0x0 PUSH2 0x21F PUSH2 0x230 JUMP JUMPDEST SWAP1 POP PUSH2 0x22B DUP3 DUP3 PUSH2 0x26A JUMP JUMPDEST SWAP2 SWAP1 POP JUMP JUMPDEST PUSH1 0x0 PUSH1 0x40 MLOAD SWAP1 POP SWAP1 JUMP JUMPDEST PUSH1 0x0 PUSH8 0xFFFFFFFFFFFFFFFF DUP3 GT ISZERO PUSH2 0x255 JUMPI PUSH2 0x254 PUSH2 0x2CA JUMP JUMPDEST JUMPDEST PUSH1 0x20 DUP3 MUL SWAP1 POP SWAP2 SWAP1 POP JUMP JUMPDEST PUSH1 0x0 DUP2 SWAP1 POP SWAP2 SWAP1 POP JUMP JUMPDEST PUSH2 0x273 DUP3 PUSH2 0x308 JUMP JUMPDEST DUP2 ADD DUP2 DUP2 LT PUSH8 0xFFFFFFFFFFFFFFFF DUP3 GT OR ISZERO PUSH2 0x292 JUMPI PUSH2 0x291 PUSH2 0x2CA JUMP JUMPDEST JUMPDEST DUP1 PUSH1 0x40 MSTORE POP POP POP JUMP JUMPDEST PUSH32 0x4E487B7100000000000000000000000000000000000000000000000000000000 PUSH1 0x0 MSTORE PUSH1 0x32 PUSH1 0x4 MSTORE PUSH1 0x24 PUSH1 0x0 REVERT JUMPDEST PUSH32 0x4E487B7100000000000000000000000000000000000000000000000000000000 PUSH1 0x0 MSTORE PUSH1 0x41 PUSH1 0x4 MSTORE PUSH1 0x24 PUSH1 0x0 REVERT JUMPDEST PUSH1 0x0 DUP1 REVERT JUMPDEST PUSH1 0x0 DUP1 REVERT JUMPDEST PUSH1 0x0 DUP1 REVERT JUMPDEST PUSH1 0x0 PUSH1 0x1F NOT PUSH1 0x1F DUP4 ADD AND SWAP1 POP SWAP2 SWAP1 POP JUMP JUMPDEST PUSH2 0x322 DUP2 PUSH2 0x260 JUMP JUMPDEST DUP2 EQ PUSH2 0x32D JUMPI PUSH1 0x0 DUP1 REVERT JUMPDEST POP JUMP INVALID LOG2 PUSH5 0x6970667358 0x22 SLT KECCAK256 PUSH15 0x1886373E2961C41DC0870948482BFB 0xC7 SHL 0xE1 0xAB LOG3 0xE2 GT 0xCC PUSH25 0x2FB171D0DA8F2F64736F6C6343000807003300000000000000 "
				},
				"gasEstimates": {
					"creation": {
						"codeDepositCost": "174000",
						"executionCost": "220",
						"totalCost": "174220"
					},
					"external": {
						"f()": "infinite",
						"g(uint256[3])": "infinite"
					}
				},
				"methodIdentifiers": {
					"f()": "26121ff0",
					"g(uint256[3])": "d14d385d"
				}
			},
			"storageLayout": {
				"storage": [
					{
						"astId": 5,
						"contract": "remix/006/Array-Struct.sol:Array",
						"label": "array1",
						"offset": 0,
						"slot": "0",
						"type": "t_array(t_uint256)8_storage"
					},
					{
						"astId": 9,
						"contract": "remix/006/Array-Struct.sol:Array",
						"label": "array2",
						"offset": 0,
						"slot": "8",
						"type": "t_array(t_bytes_storage)5_storage"
					},
					{
						"astId": 13,
						"contract": "remix/006/Array-Struct.sol:Array",
						"label": "array3",
						"offset": 0,
						"slot": "13",
						"type": "t_array(t_address)100_storage"
					},
					{
						"astId": 16,
						"contract": "remix/006/Array-Struct.sol:Array",
						"label": "array4",
						"offset": 0,
						"slot": "113",
						"type": "t_array(t_uint256)dyn_storage"
					},
					{
						"astId": 19,
						"contract": "remix/006/Array-Struct.sol:Array",
						"label": "array5",
						"offset": 0,
						"slot": "114",
						"type": "t_array(t_bytes_storage)dyn_storage"
					},
					{
						"astId": 22,
						"contract": "remix/006/Array-Struct.sol:Array",
						"label": "array6",
						"offset": 0,
						"slot": "115",
						"type": "t_array(t_address)dyn_storage"
					}
				],
				"types": {
					"t_address": {
						"encoding": "inplace",
						"label": "address",
						"numberOfBytes": "20"
					},
					"t_array(t_address)100_storage": {
						"base": "t_address",
						"encoding": "inplace",
						"label": "address[100]",
						"numberOfBytes": "3200"
					},
					"t_array(t_address)dyn_storage": {
						"base": "t_address",
						"encoding": "dynamic_array",
						"label": "address[]",
						"numberOfBytes": "32"
					},
					"t_array(t_bytes_storage)5_storage": {
						"base": "t_bytes_storage",
						"encoding": "inplace",
						"label": "bytes[5]",
						"numberOfBytes": "160"
					},
					"t_array(t_bytes_storage)dyn_storage": {
						"base": "t_bytes_storage",
						"encoding": "dynamic_array",
						"label": "bytes[]",
						"numberOfBytes": "32"
					},
					"t_array(t_uint256)8_storage": {
						"base": "t_uint256",
						"encoding": "inplace",
						"label": "uint256[8]",
						"numberOfBytes": "256"
					},
					"t_array(t_uint256)dyn_storage": {
						"base": "t_uint256",
						"encoding": "dynamic_array",
						"label": "uint256[]",
						"numberOfBytes": "32"
					},
					"t_bytes_storage": {
						"encoding": "bytes",
						"label": "bytes",
						"numberOfBytes": "32"
					},
					"t_uint256": {
						"encoding": "inplace",
						"label": "uint256",
						"numberOfBytes": "32"
					}
				}
			},
			"userdoc": {
				"kind": "user",
				"methods": {},
				"version": 1
			}
		}
	}
}