{
	"remix/006/Array-Struct.sol": {
		"Array": {
			"abi": [
				{
					"inputs": [],
					"name": "f",
					"outputs": [],
					"stateMutability": "pure",
					"type": "function"
				},
				{
					"inputs": [
						{
							"internalType": "uint256[3]",
							"name": "",
							"type": "uint256[3]"
						}
					],
					"name": "g",
					"outputs": [],
					"stateMutability": "pure",
					"type": "function"
				}
			],
			"devdoc": {
				"kind": "dev",
				"methods": {},
				"version": 1
			},
			"evm": {
				"assembly": "    /* \"remix/006/Array-Struct.sol\":35:404  contract Array{\r... */\n  mstore(0x40, 0x80)\n  callvalue\n  dup1\n  iszero\n  tag_1\n  jumpi\n  0x00\n  dup1\n  revert\ntag_1:\n  pop\n  dataSize(sub_0)\n  dup1\n  dataOffset(sub_0)\n  0x00\n  codecopy\n  0x00\n  return\nstop\n\nsub_0: assembly {\n        /* \"remix/006/Array-Struct.sol\":35:404  contract Array{\r... */\n      mstore(0x40, 0x80)\n      callvalue\n      dup1\n      iszero\n      tag_1\n      jumpi\n      0x00\n      dup1\n      revert\n    tag_1:\n      pop\n      jumpi(tag_2, lt(calldatasize, 0x04))\n      shr(0xe0, calldataload(0x00))\n      dup1\n      0x26121ff0\n      eq\n      tag_3\n      jumpi\n      dup1\n      0xd14d385d\n      eq\n      tag_4\n      jumpi\n    tag_2:\n      0x00\n      dup1\n      revert\n        /* \"remix/006/Array-Struct.sol\":285:344  function f() public pure{\r... */\n    tag_3:\n      tag_5\n      tag_6\n      jump\t// in\n    tag_5:\n      stop\n        /* \"remix/006/Array-Struct.sol\":352:400  function g(uint[3] memory) public pure{\r... */\n    tag_4:\n      tag_7\n      0x04\n      dup1\n      calldatasize\n      sub\n      dup2\n      add\n      swap1\n      tag_8\n      swap2\n      swap1\n      tag_9\n      jump\t// in\n    tag_8:\n      tag_10\n      jump\t// in\n    tag_7:\n      stop\n        /* \"remix/006/Array-Struct.sol\":285:344  function f() public pure{\r... */\n    tag_6:\n        /* \"remix/006/Array-Struct.sol\":320:336  g([uint(1),2,3]) */\n      tag_12\n      mload(0x40)\n      dup1\n      0x60\n      add\n      0x40\n      mstore\n      dup1\n        /* \"remix/006/Array-Struct.sol\":328:329  1 */\n      0x01\n        /* \"remix/006/Array-Struct.sol\":320:336  g([uint(1),2,3]) */\n      dup2\n      mstore\n      0x20\n      add\n        /* \"remix/006/Array-Struct.sol\":331:332  2 */\n      0x02\n        /* \"remix/006/Array-Struct.sol\":320:336  g([uint(1),2,3]) */\n      dup2\n      mstore\n      0x20\n      add\n        /* \"remix/006/Array-Struct.sol\":333:334  3 */\n      0x03\n        /* \"remix/006/Array-Struct.sol\":320:336  g([uint(1),2,3]) */\n      dup2\n      mstore\n      pop\n        /* \"remix/006/Array-Struct.sol\":320:321  g */\n      tag_10\n        /* \"remix/006/Array-Struct.sol\":320:336  g([uint(1),2,3]) */\n      jump\t// in\n    tag_12:\n        /* \"remix/006/Array-Struct.sol\":285:344  function f() public pure{\r... */\n      jump\t// out\n        /* \"remix/006/Array-Struct.sol\":352:400  function g(uint[3] memory) public pure{\r... */\n    tag_10:\n      pop\n      jump\t// out\n        /* \"#utility.yul\":25:680   */\n    tag_15:\n        /* \"#utility.yul\":119:124   */\n      0x00\n        /* \"#utility.yul\":144:223   */\n      tag_17\n        /* \"#utility.yul\":160:222   */\n      tag_18\n        /* \"#utility.yul\":215:221   */\n      dup5\n        /* \"#utility.yul\":160:222   */\n      tag_19\n      jump\t// in\n    tag_18:\n        /* \"#utility.yul\":144:223   */\n      tag_20\n      jump\t// in\n    tag_17:\n        /* \"#utility.yul\":135:223   */\n      swap1\n      pop\n        /* \"#utility.yul\":243:248   */\n      dup1\n        /* \"#utility.yul\":269:275   */\n      dup3\n        /* \"#utility.yul\":319:322   */\n      dup6\n        /* \"#utility.yul\":311:315   */\n      0x20\n        /* \"#utility.yul\":303:309   */\n      dup7\n        /* \"#utility.yul\":299:316   */\n      mul\n        /* \"#utility.yul\":294:297   */\n      dup3\n        /* \"#utility.yul\":290:317   */\n      add\n        /* \"#utility.yul\":287:323   */\n      gt\n        /* \"#utility.yul\":284:427   */\n      iszero\n      tag_21\n      jumpi\n        /* \"#utility.yul\":338:417   */\n      tag_22\n      tag_23\n      jump\t// in\n    tag_22:\n        /* \"#utility.yul\":284:427   */\n    tag_21:\n        /* \"#utility.yul\":451:452   */\n      0x00\n        /* \"#utility.yul\":436:674   */\n    tag_24:\n        /* \"#utility.yul\":461:467   */\n      dup6\n        /* \"#utility.yul\":458:459   */\n      dup2\n        /* \"#utility.yul\":455:468   */\n      lt\n        /* \"#utility.yul\":436:674   */\n      iszero\n      tag_26\n      jumpi\n        /* \"#utility.yul\":529:532   */\n      dup2\n        /* \"#utility.yul\":558:595   */\n      tag_27\n        /* \"#utility.yul\":591:594   */\n      dup9\n        /* \"#utility.yul\":579:589   */\n      dup3\n        /* \"#utility.yul\":558:595   */\n      tag_28\n      jump\t// in\n    tag_27:\n        /* \"#utility.yul\":553:556   */\n      dup5\n        /* \"#utility.yul\":546:596   */\n      mstore\n        /* \"#utility.yul\":625:629   */\n      0x20\n        /* \"#utility.yul\":620:623   */\n      dup5\n        /* \"#utility.yul\":616:630   */\n      add\n        /* \"#utility.yul\":609:630   */\n      swap4\n      pop\n        /* \"#utility.yul\":659:663   */\n      0x20\n        /* \"#utility.yul\":654:657   */\n      dup4\n        /* \"#utility.yul\":650:664   */\n      add\n        /* \"#utility.yul\":643:664   */\n      swap3\n      pop\n        /* \"#utility.yul\":496:674   */\n      pop\n        /* \"#utility.yul\":483:484   */\n      0x01\n        /* \"#utility.yul\":480:481   */\n      dup2\n        /* \"#utility.yul\":476:485   */\n      add\n        /* \"#utility.yul\":471:485   */\n      swap1\n      pop\n        /* \"#utility.yul\":436:674   */\n      jump(tag_24)\n    tag_26:\n        /* \"#utility.yul\":440:454   */\n      pop\n        /* \"#utility.yul\":125:680   */\n      pop\n      pop\n        /* \"#utility.yul\":25:680   */\n      swap4\n      swap3\n      pop\n      pop\n      pop\n      jump\t// out\n        /* \"#utility.yul\":704:1043   */\n    tag_29:\n        /* \"#utility.yul\":773:778   */\n      0x00\n        /* \"#utility.yul\":822:825   */\n      dup3\n        /* \"#utility.yul\":815:819   */\n      0x1f\n        /* \"#utility.yul\":807:813   */\n      dup4\n        /* \"#utility.yul\":803:820   */\n      add\n        /* \"#utility.yul\":799:826   */\n      slt\n        /* \"#utility.yul\":789:911   */\n      tag_31\n      jumpi\n        /* \"#utility.yul\":830:909   */\n      tag_32\n      tag_33\n      jump\t// in\n    tag_32:\n        /* \"#utility.yul\":789:911   */\n    tag_31:\n        /* \"#utility.yul\":934:938   */\n      0x03\n        /* \"#utility.yul\":956:1037   */\n      tag_34\n        /* \"#utility.yul\":1033:1036   */\n      dup5\n        /* \"#utility.yul\":1025:1031   */\n      dup3\n        /* \"#utility.yul\":1017:1023   */\n      dup6\n        /* \"#utility.yul\":956:1037   */\n      tag_15\n      jump\t// in\n    tag_34:\n        /* \"#utility.yul\":947:1037   */\n      swap2\n      pop\n        /* \"#utility.yul\":779:1043   */\n      pop\n        /* \"#utility.yul\":704:1043   */\n      swap3\n      swap2\n      pop\n      pop\n      jump\t// out\n        /* \"#utility.yul\":1049:1188   */\n    tag_28:\n        /* \"#utility.yul\":1095:1100   */\n      0x00\n        /* \"#utility.yul\":1133:1139   */\n      dup2\n        /* \"#utility.yul\":1120:1140   */\n      calldataload\n        /* \"#utility.yul\":1111:1140   */\n      swap1\n      pop\n        /* \"#utility.yul\":1149:1182   */\n      tag_36\n        /* \"#utility.yul\":1176:1181   */\n      dup2\n        /* \"#utility.yul\":1149:1182   */\n      tag_37\n      jump\t// in\n    tag_36:\n        /* \"#utility.yul\":1049:1188   */\n      swap3\n      swap2\n      pop\n      pop\n      jump\t// out\n        /* \"#utility.yul\":1194:1569   */\n    tag_9:\n        /* \"#utility.yul\":1276:1282   */\n      0x00\n        /* \"#utility.yul\":1325:1327   */\n      0x60\n        /* \"#utility.yul\":1313:1322   */\n      dup3\n        /* \"#utility.yul\":1304:1311   */\n      dup5\n        /* \"#utility.yul\":1300:1323   */\n      sub\n        /* \"#utility.yul\":1296:1328   */\n      slt\n        /* \"#utility.yul\":1293:1412   */\n      iszero\n      tag_39\n      jumpi\n        /* \"#utility.yul\":1331:1410   */\n      tag_40\n      tag_41\n      jump\t// in\n    tag_40:\n        /* \"#utility.yul\":1293:1412   */\n    tag_39:\n        /* \"#utility.yul\":1451:1452   */\n      0x00\n        /* \"#utility.yul\":1476:1552   */\n      tag_42\n        /* \"#utility.yul\":1544:1551   */\n      dup5\n        /* \"#utility.yul\":1535:1541   */\n      dup3\n        /* \"#utility.yul\":1524:1533   */\n      dup6\n        /* \"#utility.yul\":1520:1542   */\n      add\n        /* \"#utility.yul\":1476:1552   */\n      tag_29\n      jump\t// in\n    tag_42:\n        /* \"#utility.yul\":1466:1552   */\n      swap2\n      pop\n        /* \"#utility.yul\":1422:1562   */\n      pop\n        /* \"#utility.yul\":1194:1569   */\n      swap3\n      swap2\n      pop\n      pop\n      jump\t// out\n        /* \"#utility.yul\":1575:1704   */\n    tag_20:\n        /* \"#utility.yul\":1609:1615   */\n      0x00\n        /* \"#utility.yul\":1636:1656   */\n      tag_44\n      tag_45\n      jump\t// in\n    tag_44:\n        /* \"#utility.yul\":1626:1656   */\n      swap1\n      pop\n        /* \"#utility.yul\":1665:1698   */\n      tag_46\n        /* \"#utility.yul\":1693:1697   */\n      dup3\n        /* \"#utility.yul\":1685:1691   */\n      dup3\n        /* \"#utility.yul\":1665:1698   */\n      tag_47\n      jump\t// in\n    tag_46:\n        /* \"#utility.yul\":1575:1704   */\n      swap2\n      swap1\n      pop\n      jump\t// out\n        /* \"#utility.yul\":1710:1785   */\n    tag_45:\n        /* \"#utility.yul\":1743:1749   */\n      0x00\n        /* \"#utility.yul\":1776:1778   */\n      0x40\n        /* \"#utility.yul\":1770:1779   */\n      mload\n        /* \"#utility.yul\":1760:1779   */\n      swap1\n      pop\n        /* \"#utility.yul\":1710:1785   */\n      swap1\n      jump\t// out\n        /* \"#utility.yul\":1791:2040   */\n    tag_19:\n        /* \"#utility.yul\":1866:1870   */\n      0x00\n        /* \"#utility.yul\":1956:1974   */\n      0xffffffffffffffff\n        /* \"#utility.yul\":1948:1954   */\n      dup3\n        /* \"#utility.yul\":1945:1975   */\n      gt\n        /* \"#utility.yul\":1942:1998   */\n      iszero\n      tag_50\n      jumpi\n        /* \"#utility.yul\":1978:1996   */\n      tag_51\n      tag_52\n      jump\t// in\n    tag_51:\n        /* \"#utility.yul\":1942:1998   */\n    tag_50:\n        /* \"#utility.yul\":2028:2032   */\n      0x20\n        /* \"#utility.yul\":2020:2026   */\n      dup3\n        /* \"#utility.yul\":2016:2033   */\n      mul\n        /* \"#utility.yul\":2008:2033   */\n      swap1\n      pop\n        /* \"#utility.yul\":1791:2040   */\n      swap2\n      swap1\n      pop\n      jump\t// out\n        /* \"#utility.yul\":2046:2123   */\n    tag_53:\n        /* \"#utility.yul\":2083:2090   */\n      0x00\n        /* \"#utility.yul\":2112:2117   */\n      dup2\n        /* \"#utility.yul\":2101:2117   */\n      swap1\n      pop\n        /* \"#utility.yul\":2046:2123   */\n      swap2\n      swap1\n      pop\n      jump\t// out\n        /* \"#utility.yul\":2129:2410   */\n    tag_47:\n        /* \"#utility.yul\":2212:2239   */\n      tag_56\n        /* \"#utility.yul\":2234:2238   */\n      dup3\n        /* \"#utility.yul\":2212:2239   */\n      tag_57\n      jump\t// in\n    tag_56:\n        /* \"#utility.yul\":2204:2210   */\n      dup2\n        /* \"#utility.yul\":2200:2240   */\n      add\n        /* \"#utility.yul\":2342:2348   */\n      dup2\n        /* \"#utility.yul\":2330:2340   */\n      dup2\n        /* \"#utility.yul\":2327:2349   */\n      lt\n        /* \"#utility.yul\":2306:2324   */\n      0xffffffffffffffff\n        /* \"#utility.yul\":2294:2304   */\n      dup3\n        /* \"#utility.yul\":2291:2325   */\n      gt\n        /* \"#utility.yul\":2288:2350   */\n      or\n        /* \"#utility.yul\":2285:2373   */\n      iszero\n      tag_58\n      jumpi\n        /* \"#utility.yul\":2353:2371   */\n      tag_59\n      tag_52\n      jump\t// in\n    tag_59:\n        /* \"#utility.yul\":2285:2373   */\n    tag_58:\n        /* \"#utility.yul\":2393:2403   */\n      dup1\n        /* \"#utility.yul\":2389:2391   */\n      0x40\n        /* \"#utility.yul\":2382:2404   */\n      mstore\n        /* \"#utility.yul\":2172:2410   */\n      pop\n        /* \"#utility.yul\":2129:2410   */\n      pop\n      pop\n      jump\t// out\n        /* \"#utility.yul\":2416:2596   */\n    tag_52:\n        /* \"#utility.yul\":2464:2541   */\n      0x4e487b7100000000000000000000000000000000000000000000000000000000\n        /* \"#utility.yul\":2461:2462   */\n      0x00\n        /* \"#utility.yul\":2454:2542   */\n      mstore\n        /* \"#utility.yul\":2561:2565   */\n      0x41\n        /* \"#utility.yul\":2558:2559   */\n      0x04\n        /* \"#utility.yul\":2551:2566   */\n      mstore\n        /* \"#utility.yul\":2585:2589   */\n      0x24\n        /* \"#utility.yul\":2582:2583   */\n      0x00\n        /* \"#utility.yul\":2575:2590   */\n      revert\n        /* \"#utility.yul\":2602:2719   */\n    tag_33:\n        /* \"#utility.yul\":2711:2712   */\n      0x00\n        /* \"#utility.yul\":2708:2709   */\n      dup1\n        /* \"#utility.yul\":2701:2713   */\n      revert\n        /* \"#utility.yul\":2725:2842   */\n    tag_23:\n        /* \"#utility.yul\":2834:2835   */\n      0x00\n        /* \"#utility.yul\":2831:2832   */\n      dup1\n        /* \"#utility.yul\":2824:2836   */\n      revert\n        /* \"#utility.yul\":2971:3088   */\n    tag_41:\n        /* \"#utility.yul\":3080:3081   */\n      0x00\n        /* \"#utility.yul\":3077:3078   */\n      dup1\n        /* \"#utility.yul\":3070:3082   */\n      revert\n        /* \"#utility.yul\":3094:3196   */\n    tag_57:\n        /* \"#utility.yul\":3135:3141   */\n      0x00\n        /* \"#utility.yul\":3186:3188   */\n      0x1f\n        /* \"#utility.yul\":3182:3189   */\n      not\n        /* \"#utility.yul\":3177:3179   */\n      0x1f\n        /* \"#utility.yul\":3170:3175   */\n      dup4\n        /* \"#utility.yul\":3166:3180   */\n      add\n        /* \"#utility.yul\":3162:3190   */\n      and\n        /* \"#utility.yul\":3152:3190   */\n      swap1\n      pop\n        /* \"#utility.yul\":3094:3196   */\n      swap2\n      swap1\n      pop\n      jump\t// out\n        /* \"#utility.yul\":3202:3324   */\n    tag_37:\n        /* \"#utility.yul\":3275:3299   */\n      tag_68\n        /* \"#utility.yul\":3293:3298   */\n      dup2\n        /* \"#utility.yul\":3275:3299   */\n      tag_53\n      jump\t// in\n    tag_68:\n        /* \"#utility.yul\":3268:3273   */\n      dup2\n        /* \"#utility.yul\":3265:3300   */\n      eq\n        /* \"#utility.yul\":3255:3318   */\n      tag_69\n      jumpi\n        /* \"#utility.yul\":3314:3315   */\n      0x00\n        /* \"#utility.yul\":3311:3312   */\n      dup1\n        /* \"#utility.yul\":3304:3316   */\n      revert\n        /* \"#utility.yul\":3255:3318   */\n    tag_69:\n        /* \"#utility.yul\":3202:3324   */\n      pop\n      jump\t// out\n\n    auxdata: 0xa26469706673582212202ea1e2e1f8ed48921b4cb05c4cfbd34069f2e0592a82fb8633b86b29a6e2979464736f6c63430008070033\n}\n",
				"bytecode": {
					"linkReferences": {},
					"object": "608060405234801561001057600080fd5b50610282806100206000396000f3fe608060405234801561001057600080fd5b50600436106100365760003560e01c806326121ff01461003b578063d14d385d14610045575b600080fd5b610043610061565b005b61005f600480360381019061005a9190610133565b610089565b005b610087604051806060016040528060018152602001600281526020016003815250610089565b565b50565b600061009f61009a84610185565b610160565b905080828560208602820111156100b9576100b861021a565b5b60005b858110156100e957816100cf888261011e565b8452602084019350602083019250506001810190506100bc565b5050509392505050565b600082601f83011261010857610107610215565b5b600361011584828561008c565b91505092915050565b60008135905061012d81610235565b92915050565b6000606082840312156101495761014861021f565b5b6000610157848285016100f3565b91505092915050565b600061016a61017b565b905061017682826101b5565b919050565b6000604051905090565b600067ffffffffffffffff8211156101a05761019f6101e6565b5b602082029050919050565b6000819050919050565b6101be82610224565b810181811067ffffffffffffffff821117156101dd576101dc6101e6565b5b80604052505050565b7f4e487b7100000000000000000000000000000000000000000000000000000000600052604160045260246000fd5b600080fd5b600080fd5b600080fd5b6000601f19601f8301169050919050565b61023e816101ab565b811461024957600080fd5b5056fea26469706673582212202ea1e2e1f8ed48921b4cb05c4cfbd34069f2e0592a82fb8633b86b29a6e2979464736f6c63430008070033",
					"opcodes": "PUSH1 0x80 PUSH1 0x40 MSTORE CALLVALUE DUP1 ISZERO PUSH2 0x10 JUMPI PUSH1 0x0 DUP1 REVERT JUMPDEST POP PUSH2 0x282 DUP1 PUSH2 0x20 PUSH1 0x0 CODECOPY PUSH1 0x0 RETURN INVALID PUSH1 0x80 PUSH1 0x40 MSTORE CALLVALUE DUP1 ISZERO PUSH2 0x10 JUMPI PUSH1 0x0 DUP1 REVERT JUMPDEST POP PUSH1 0x4 CALLDATASIZE LT PUSH2 0x36 JUMPI PUSH1 0x0 CALLDATALOAD PUSH1 0xE0 SHR DUP1 PUSH4 0x26121FF0 EQ PUSH2 0x3B JUMPI DUP1 PUSH4 0xD14D385D EQ PUSH2 0x45 JUMPI JUMPDEST PUSH1 0x0 DUP1 REVERT JUMPDEST PUSH2 0x43 PUSH2 0x61 JUMP JUMPDEST STOP JUMPDEST PUSH2 0x5F PUSH1 0x4 DUP1 CALLDATASIZE SUB DUP2 ADD SWAP1 PUSH2 0x5A SWAP2 SWAP1 PUSH2 0x133 JUMP JUMPDEST PUSH2 0x89 JUMP JUMPDEST STOP JUMPDEST PUSH2 0x87 PUSH1 0x40 MLOAD DUP1 PUSH1 0x60 ADD PUSH1 0x40 MSTORE DUP1 PUSH1 0x1 DUP2 MSTORE PUSH1 0x20 ADD PUSH1 0x2 DUP2 MSTORE PUSH1 0x20 ADD PUSH1 0x3 DUP2 MSTORE POP PUSH2 0x89 JUMP JUMPDEST JUMP JUMPDEST POP JUMP JUMPDEST PUSH1 0x0 PUSH2 0x9F PUSH2 0x9A DUP5 PUSH2 0x185 JUMP JUMPDEST PUSH2 0x160 JUMP JUMPDEST SWAP1 POP DUP1 DUP3 DUP6 PUSH1 0x20 DUP7 MUL DUP3 ADD GT ISZERO PUSH2 0xB9 JUMPI PUSH2 0xB8 PUSH2 0x21A JUMP JUMPDEST JUMPDEST PUSH1 0x0 JUMPDEST DUP6 DUP2 LT ISZERO PUSH2 0xE9 JUMPI DUP2 PUSH2 0xCF DUP9 DUP3 PUSH2 0x11E JUMP JUMPDEST DUP5 MSTORE PUSH1 0x20 DUP5 ADD SWAP4 POP PUSH1 0x20 DUP4 ADD SWAP3 POP POP PUSH1 0x1 DUP2 ADD SWAP1 POP PUSH2 0xBC JUMP JUMPDEST POP POP POP SWAP4 SWAP3 POP POP POP JUMP JUMPDEST PUSH1 0x0 DUP3 PUSH1 0x1F DUP4 ADD SLT PUSH2 0x108 JUMPI PUSH2 0x107 PUSH2 0x215 JUMP JUMPDEST JUMPDEST PUSH1 0x3 PUSH2 0x115 DUP5 DUP3 DUP6 PUSH2 0x8C JUMP JUMPDEST SWAP2 POP POP SWAP3 SWAP2 POP POP JUMP JUMPDEST PUSH1 0x0 DUP2 CALLDATALOAD SWAP1 POP PUSH2 0x12D DUP2 PUSH2 0x235 JUMP JUMPDEST SWAP3 SWAP2 POP POP JUMP JUMPDEST PUSH1 0x0 PUSH1 0x60 DUP3 DUP5 SUB SLT ISZERO PUSH2 0x149 JUMPI PUSH2 0x148 PUSH2 0x21F JUMP JUMPDEST JUMPDEST PUSH1 0x0 PUSH2 0x157 DUP5 DUP3 DUP6 ADD PUSH2 0xF3 JUMP JUMPDEST SWAP2 POP POP SWAP3 SWAP2 POP POP JUMP JUMPDEST PUSH1 0x0 PUSH2 0x16A PUSH2 0x17B JUMP JUMPDEST SWAP1 POP PUSH2 0x176 DUP3 DUP3 PUSH2 0x1B5 JUMP JUMPDEST SWAP2 SWAP1 POP JUMP JUMPDEST PUSH1 0x0 PUSH1 0x40 MLOAD SWAP1 POP SWAP1 JUMP JUMPDEST PUSH1 0x0 PUSH8 0xFFFFFFFFFFFFFFFF DUP3 GT ISZERO PUSH2 0x1A0 JUMPI PUSH2 0x19F PUSH2 0x1E6 JUMP JUMPDEST JUMPDEST PUSH1 0x20 DUP3 MUL SWAP1 POP SWAP2 SWAP1 POP JUMP JUMPDEST PUSH1 0x0 DUP2 SWAP1 POP SWAP2 SWAP1 POP JUMP JUMPDEST PUSH2 0x1BE DUP3 PUSH2 0x224 JUMP JUMPDEST DUP2 ADD DUP2 DUP2 LT PUSH8 0xFFFFFFFFFFFFFFFF DUP3 GT OR ISZERO PUSH2 0x1DD JUMPI PUSH2 0x1DC PUSH2 0x1E6 JUMP JUMPDEST JUMPDEST DUP1 PUSH1 0x40 MSTORE POP POP POP JUMP JUMPDEST PUSH32 0x4E487B7100000000000000000000000000000000000000000000000000000000 PUSH1 0x0 MSTORE PUSH1 0x41 PUSH1 0x4 MSTORE PUSH1 0x24 PUSH1 0x0 REVERT JUMPDEST PUSH1 0x0 DUP1 REVERT JUMPDEST PUSH1 0x0 DUP1 REVERT JUMPDEST PUSH1 0x0 DUP1 REVERT JUMPDEST PUSH1 0x0 PUSH1 0x1F NOT PUSH1 0x1F DUP4 ADD AND SWAP1 POP SWAP2 SWAP1 POP JUMP JUMPDEST PUSH2 0x23E DUP2 PUSH2 0x1AB JUMP JUMPDEST DUP2 EQ PUSH2 0x249 JUMPI PUSH1 0x0 DUP1 REVERT JUMPDEST POP JUMP INVALID LOG2 PUSH5 0x6970667358 0x22 SLT KECCAK256 0x2E LOG1 0xE2 0xE1 0xF8 0xED BASEFEE SWAP3 SHL 0x4C 0xB0 0x5C 0x4C 0xFB 0xD3 BLOCKHASH PUSH10 0xF2E0592A82FB8633B86B 0x29 0xA6 0xE2 SWAP8 SWAP5 PUSH5 0x736F6C6343 STOP ADDMOD SMOD STOP CALLER "
				},
				"gasEstimates": {
					"creation": {
						"codeDepositCost": "128400",
						"executionCost": "177",
						"totalCost": "128577"
					},
					"external": {
						"f()": "225",
						"g(uint256[3])": "infinite"
					}
				},
				"methodIdentifiers": {
					"f()": "26121ff0",
					"g(uint256[3])": "d14d385d"
				}
			},
			"storageLayout": {
				"storage": [
					{
						"astId": 5,
						"contract": "remix/006/Array-Struct.sol:Array",
						"label": "array1",
						"offset": 0,
						"slot": "0",
						"type": "t_array(t_uint256)8_storage"
					},
					{
						"astId": 9,
						"contract": "remix/006/Array-Struct.sol:Array",
						"label": "array2",
						"offset": 0,
						"slot": "8",
						"type": "t_array(t_bytes_storage)5_storage"
					},
					{
						"astId": 13,
						"contract": "remix/006/Array-Struct.sol:Array",
						"label": "array3",
						"offset": 0,
						"slot": "13",
						"type": "t_array(t_address)100_storage"
					},
					{
						"astId": 16,
						"contract": "remix/006/Array-Struct.sol:Array",
						"label": "array4",
						"offset": 0,
						"slot": "113",
						"type": "t_array(t_uint256)dyn_storage"
					},
					{
						"astId": 19,
						"contract": "remix/006/Array-Struct.sol:Array",
						"label": "array5",
						"offset": 0,
						"slot": "114",
						"type": "t_array(t_bytes_storage)dyn_storage"
					},
					{
						"astId": 22,
						"contract": "remix/006/Array-Struct.sol:Array",
						"label": "array6",
						"offset": 0,
						"slot": "115",
						"type": "t_array(t_address)dyn_storage"
					}
				],
				"types": {
					"t_address": {
						"encoding": "inplace",
						"label": "address",
						"numberOfBytes": "20"
					},
					"t_array(t_address)100_storage": {
						"base": "t_address",
						"encoding": "inplace",
						"label": "address[100]",
						"numberOfBytes": "3200"
					},
					"t_array(t_address)dyn_storage": {
						"base": "t_address",
						"encoding": "dynamic_array",
						"label": "address[]",
						"numberOfBytes": "32"
					},
					"t_array(t_bytes_storage)5_storage": {
						"base": "t_bytes_storage",
						"encoding": "inplace",
						"label": "bytes[5]",
						"numberOfBytes": "160"
					},
					"t_array(t_bytes_storage)dyn_storage": {
						"base": "t_bytes_storage",
						"encoding": "dynamic_array",
						"label": "bytes[]",
						"numberOfBytes": "32"
					},
					"t_array(t_uint256)8_storage": {
						"base": "t_uint256",
						"encoding": "inplace",
						"label": "uint256[8]",
						"numberOfBytes": "256"
					},
					"t_array(t_uint256)dyn_storage": {
						"base": "t_uint256",
						"encoding": "dynamic_array",
						"label": "uint256[]",
						"numberOfBytes": "32"
					},
					"t_bytes_storage": {
						"encoding": "bytes",
						"label": "bytes",
						"numberOfBytes": "32"
					},
					"t_uint256": {
						"encoding": "inplace",
						"label": "uint256",
						"numberOfBytes": "32"
					}
				}
			},
			"userdoc": {
				"kind": "user",
				"methods": {},
				"version": 1
			}
		}
	}
}