{
	"data": {
		"bytecode": {
			"linkReferences": {},
			"object": "608060405234801561001057600080fd5b506101e4806100206000396000f3fe608060405234801561001057600080fd5b50600436106100365760003560e01c806345773e4e1461003b578063b69ef8a814610059575b600080fd5b610043610077565b60405161005091906100e5565b60405180910390f35b610061610097565b60405161006e9190610107565b60405180910390f35b606060405180606001604052806022815260200161018d60229139905090565b60005481565b60006100a882610122565b6100b2818561012d565b93506100c2818560208601610148565b6100cb8161017b565b840191505092915050565b6100df8161013e565b82525050565b600060208201905081810360008301526100ff818461009d565b905092915050565b600060208201905061011c60008301846100d6565b92915050565b600081519050919050565b600082825260208201905092915050565b6000819050919050565b60005b8381101561016657808201518184015260208101905061014b565b83811115610175576000848401525b50505050565b6000601f19601f830116905091905056fe48656c6c6f20576f726c6421204d79206e616d65206973204d616f2048616f78696ea26469706673582212208ce0a62aa93c1a97c0b320b8b46804e754db2435d61895570dba443d5d904b8664736f6c63430008070033",
			"opcodes": "PUSH1 0x80 PUSH1 0x40 MSTORE CALLVALUE DUP1 ISZERO PUSH2 0x10 JUMPI PUSH1 0x0 DUP1 REVERT JUMPDEST POP PUSH2 0x1E4 DUP1 PUSH2 0x20 PUSH1 0x0 CODECOPY PUSH1 0x0 RETURN INVALID PUSH1 0x80 PUSH1 0x40 MSTORE CALLVALUE DUP1 ISZERO PUSH2 0x10 JUMPI PUSH1 0x0 DUP1 REVERT JUMPDEST POP PUSH1 0x4 CALLDATASIZE LT PUSH2 0x36 JUMPI PUSH1 0x0 CALLDATALOAD PUSH1 0xE0 SHR DUP1 PUSH4 0x45773E4E EQ PUSH2 0x3B JUMPI DUP1 PUSH4 0xB69EF8A8 EQ PUSH2 0x59 JUMPI JUMPDEST PUSH1 0x0 DUP1 REVERT JUMPDEST PUSH2 0x43 PUSH2 0x77 JUMP JUMPDEST PUSH1 0x40 MLOAD PUSH2 0x50 SWAP2 SWAP1 PUSH2 0xE5 JUMP JUMPDEST PUSH1 0x40 MLOAD DUP1 SWAP2 SUB SWAP1 RETURN JUMPDEST PUSH2 0x61 PUSH2 0x97 JUMP JUMPDEST PUSH1 0x40 MLOAD PUSH2 0x6E SWAP2 SWAP1 PUSH2 0x107 JUMP JUMPDEST PUSH1 0x40 MLOAD DUP1 SWAP2 SUB SWAP1 RETURN JUMPDEST PUSH1 0x60 PUSH1 0x40 MLOAD DUP1 PUSH1 0x60 ADD PUSH1 0x40 MSTORE DUP1 PUSH1 0x22 DUP2 MSTORE PUSH1 0x20 ADD PUSH2 0x18D PUSH1 0x22 SWAP2 CODECOPY SWAP1 POP SWAP1 JUMP JUMPDEST PUSH1 0x0 SLOAD DUP2 JUMP JUMPDEST PUSH1 0x0 PUSH2 0xA8 DUP3 PUSH2 0x122 JUMP JUMPDEST PUSH2 0xB2 DUP2 DUP6 PUSH2 0x12D JUMP JUMPDEST SWAP4 POP PUSH2 0xC2 DUP2 DUP6 PUSH1 0x20 DUP7 ADD PUSH2 0x148 JUMP JUMPDEST PUSH2 0xCB DUP2 PUSH2 0x17B JUMP JUMPDEST DUP5 ADD SWAP2 POP POP SWAP3 SWAP2 POP POP JUMP JUMPDEST PUSH2 0xDF DUP2 PUSH2 0x13E JUMP JUMPDEST DUP3 MSTORE POP POP JUMP JUMPDEST PUSH1 0x0 PUSH1 0x20 DUP3 ADD SWAP1 POP DUP2 DUP2 SUB PUSH1 0x0 DUP4 ADD MSTORE PUSH2 0xFF DUP2 DUP5 PUSH2 0x9D JUMP JUMPDEST SWAP1 POP SWAP3 SWAP2 POP POP JUMP JUMPDEST PUSH1 0x0 PUSH1 0x20 DUP3 ADD SWAP1 POP PUSH2 0x11C PUSH1 0x0 DUP4 ADD DUP5 PUSH2 0xD6 JUMP JUMPDEST SWAP3 SWAP2 POP POP JUMP JUMPDEST PUSH1 0x0 DUP2 MLOAD SWAP1 POP SWAP2 SWAP1 POP JUMP JUMPDEST PUSH1 0x0 DUP3 DUP3 MSTORE PUSH1 0x20 DUP3 ADD SWAP1 POP SWAP3 SWAP2 POP POP JUMP JUMPDEST PUSH1 0x0 DUP2 SWAP1 POP SWAP2 SWAP1 POP JUMP JUMPDEST PUSH1 0x0 JUMPDEST DUP4 DUP2 LT ISZERO PUSH2 0x166 JUMPI DUP1 DUP3 ADD MLOAD DUP2 DUP5 ADD MSTORE PUSH1 0x20 DUP2 ADD SWAP1 POP PUSH2 0x14B JUMP JUMPDEST DUP4 DUP2 GT ISZERO PUSH2 0x175 JUMPI PUSH1 0x0 DUP5 DUP5 ADD MSTORE JUMPDEST POP POP POP POP JUMP JUMPDEST PUSH1 0x0 PUSH1 0x1F NOT PUSH1 0x1F DUP4 ADD AND SWAP1 POP SWAP2 SWAP1 POP JUMP INVALID BASEFEE PUSH6 0x6C6C6F20576F PUSH19 0x6C6421204D79206E616D65206973204D616F20 BASEFEE PUSH2 0x6F78 PUSH10 0x6EA26469706673582212 KECCAK256 DUP13 0xE0 0xA6 0x2A 0xA9 EXTCODECOPY BYTE SWAP8 0xC0 0xB3 KECCAK256 0xB8 0xB4 PUSH9 0x4E754DB2435D61895 JUMPI 0xD 0xBA DIFFICULTY RETURNDATASIZE 0x5D SWAP1 0x4B DUP7 PUSH5 0x736F6C6343 STOP ADDMOD SMOD STOP CALLER "
		},
		"gasEstimates": {
			"creation": {
				"codeDepositCost": "96800",
				"executionCost": "147",
				"totalCost": "96947"
			},
			"external": {
				"balance()": "2429",
				"sayHelloWorld()": "infinite"
			}
		},
		"methodIdentifiers": {
			"balance()": "b69ef8a8",
			"sayHelloWorld()": "45773e4e"
		}
	},
	"abi": [
		{
			"inputs": [],
			"name": "balance",
			"outputs": [
				{
					"internalType": "uint256",
					"name": "",
					"type": "uint256"
				}
			],
			"stateMutability": "view",
			"type": "function"
		},
		{
			"inputs": [],
			"name": "sayHelloWorld",
			"outputs": [
				{
					"internalType": "string",
					"name": "",
					"type": "string"
				}
			],
			"stateMutability": "pure",
			"type": "function"
		}
	]
}